{
	"votingSystem.sol": {
		"VotingSystem": {
			"abi": [
				{
					"inputs": [],
					"stateMutability": "nonpayable",
					"type": "constructor"
				},
				{
					"inputs": [
						{
							"internalType": "address",
							"name": "owner",
							"type": "address"
						}
					],
					"name": "OwnableInvalidOwner",
					"type": "error"
				},
				{
					"inputs": [
						{
							"internalType": "address",
							"name": "account",
							"type": "address"
						}
					],
					"name": "OwnableUnauthorizedAccount",
					"type": "error"
				},
				{
					"anonymous": false,
					"inputs": [
						{
							"indexed": false,
							"internalType": "string",
							"name": "name",
							"type": "string"
						},
						{
							"indexed": false,
							"internalType": "uint256",
							"name": "index",
							"type": "uint256"
						}
					],
					"name": "CandidateAdded",
					"type": "event"
				},
				{
					"anonymous": false,
					"inputs": [
						{
							"indexed": true,
							"internalType": "address",
							"name": "previousOwner",
							"type": "address"
						},
						{
							"indexed": true,
							"internalType": "address",
							"name": "newOwner",
							"type": "address"
						}
					],
					"name": "OwnershipTransferred",
					"type": "event"
				},
				{
					"anonymous": false,
					"inputs": [
						{
							"indexed": false,
							"internalType": "address",
							"name": "voter",
							"type": "address"
						},
						{
							"indexed": false,
							"internalType": "uint256",
							"name": "candidateIndex",
							"type": "uint256"
						}
					],
					"name": "Voted",
					"type": "event"
				},
				{
					"inputs": [
						{
							"internalType": "string",
							"name": "_name",
							"type": "string"
						}
					],
					"name": "addCandidate",
					"outputs": [],
					"stateMutability": "nonpayable",
					"type": "function"
				},
				{
					"inputs": [
						{
							"internalType": "uint256",
							"name": "",
							"type": "uint256"
						}
					],
					"name": "candidates",
					"outputs": [
						{
							"internalType": "string",
							"name": "name",
							"type": "string"
						},
						{
							"internalType": "uint256",
							"name": "voteCount",
							"type": "uint256"
						}
					],
					"stateMutability": "view",
					"type": "function"
				},
				{
					"inputs": [],
					"name": "getCandidateCount",
					"outputs": [
						{
							"internalType": "uint256",
							"name": "",
							"type": "uint256"
						}
					],
					"stateMutability": "view",
					"type": "function"
				},
				{
					"inputs": [
						{
							"internalType": "address",
							"name": "",
							"type": "address"
						}
					],
					"name": "hasVoted",
					"outputs": [
						{
							"internalType": "bool",
							"name": "",
							"type": "bool"
						}
					],
					"stateMutability": "view",
					"type": "function"
				},
				{
					"inputs": [],
					"name": "leadingCandidate",
					"outputs": [
						{
							"internalType": "uint256",
							"name": "",
							"type": "uint256"
						}
					],
					"stateMutability": "view",
					"type": "function"
				},
				{
					"inputs": [],
					"name": "owner",
					"outputs": [
						{
							"internalType": "address",
							"name": "",
							"type": "address"
						}
					],
					"stateMutability": "view",
					"type": "function"
				},
				{
					"inputs": [],
					"name": "renounceOwnership",
					"outputs": [],
					"stateMutability": "nonpayable",
					"type": "function"
				},
				{
					"inputs": [
						{
							"internalType": "address",
							"name": "newOwner",
							"type": "address"
						}
					],
					"name": "transferOwnership",
					"outputs": [],
					"stateMutability": "nonpayable",
					"type": "function"
				},
				{
					"inputs": [
						{
							"internalType": "uint256",
							"name": "_candidateIndex",
							"type": "uint256"
						}
					],
					"name": "vote",
					"outputs": [],
					"stateMutability": "nonpayable",
					"type": "function"
				}
			],
			"devdoc": {
				"errors": {
					"OwnableInvalidOwner(address)": [
						{
							"details": "The owner is not a valid owner account. (eg. `address(0)`)"
						}
					],
					"OwnableUnauthorizedAccount(address)": [
						{
							"details": "The caller account is not authorized to perform an operation."
						}
					]
				},
				"kind": "dev",
				"methods": {
					"owner()": {
						"details": "Returns the address of the current owner."
					},
					"renounceOwnership()": {
						"details": "Leaves the contract without owner. It will not be possible to call `onlyOwner` functions. Can only be called by the current owner. NOTE: Renouncing ownership will leave the contract without an owner, thereby disabling any functionality that is only available to the owner."
					},
					"transferOwnership(address)": {
						"details": "Transfers ownership of the contract to a new account (`newOwner`). Can only be called by the current owner."
					}
				},
				"version": 1
			},
			"evm": {
				"assembly": "    /* \"votingSystem.sol\":115:1706  contract VotingSystem is Ownable {... */\n  mstore(0x40, 0x80)\n    /* \"votingSystem.sol\":155:191  constructor() Ownable(msg.sender) {} */\n  callvalue\n  dup1\n  iszero\n  tag_1\n  jumpi\n  revert(0x00, 0x00)\ntag_1:\n  pop\n    /* \"votingSystem.sol\":177:187  msg.sender */\n  caller\n    /* \"@openzeppelin/contracts/access/Ownable.sol\":1297:1298  0 */\n  0x00\n    /* \"@openzeppelin/contracts/access/Ownable.sol\":1273:1299  initialOwner == address(0) */\n  0xffffffffffffffffffffffffffffffffffffffff\n  and\n    /* \"@openzeppelin/contracts/access/Ownable.sol\":1273:1285  initialOwner */\n  dup2\n    /* \"@openzeppelin/contracts/access/Ownable.sol\":1273:1299  initialOwner == address(0) */\n  0xffffffffffffffffffffffffffffffffffffffff\n  and\n  sub\n    /* \"@openzeppelin/contracts/access/Ownable.sol\":1269:1364  if (initialOwner == address(0)) {... */\n  tag_5\n  jumpi\n    /* \"@openzeppelin/contracts/access/Ownable.sol\":1350:1351  0 */\n  0x00\n    /* \"@openzeppelin/contracts/access/Ownable.sol\":1322:1353  OwnableInvalidOwner(address(0)) */\n  mload(0x40)\n  0x1e4fbdf700000000000000000000000000000000000000000000000000000000\n  dup2\n  mstore\n  0x04\n  add\n  tag_6\n  swap2\n  swap1\n  tag_7\n  jump\t// in\ntag_6:\n  mload(0x40)\n  dup1\n  swap2\n  sub\n  swap1\n  revert\n    /* \"@openzeppelin/contracts/access/Ownable.sol\":1269:1364  if (initialOwner == address(0)) {... */\ntag_5:\n    /* \"@openzeppelin/contracts/access/Ownable.sol\":1373:1405  _transferOwnership(initialOwner) */\n  tag_8\n    /* \"@openzeppelin/contracts/access/Ownable.sol\":1392:1404  initialOwner */\n  dup2\n    /* \"@openzeppelin/contracts/access/Ownable.sol\":1373:1391  _transferOwnership */\n  shl(0x20, tag_9)\n    /* \"@openzeppelin/contracts/access/Ownable.sol\":1373:1405  _transferOwnership(initialOwner) */\n  0x20\n  shr\n  jump\t// in\ntag_8:\n    /* \"@openzeppelin/contracts/access/Ownable.sol\":1225:1412  constructor(address initialOwner) {... */\n  pop\n    /* \"votingSystem.sol\":115:1706  contract VotingSystem is Ownable {... */\n  jump(tag_11)\n    /* \"@openzeppelin/contracts/access/Ownable.sol\":2912:3099  function _transferOwnership(address newOwner) internal virtual {... */\ntag_9:\n    /* \"@openzeppelin/contracts/access/Ownable.sol\":2985:3001  address oldOwner */\n  0x00\n    /* \"@openzeppelin/contracts/access/Ownable.sol\":3004:3010  _owner */\n  0x00\n  0x00\n  swap1\n  sload\n  swap1\n  0x0100\n  exp\n  swap1\n  div\n  0xffffffffffffffffffffffffffffffffffffffff\n  and\n    /* \"@openzeppelin/contracts/access/Ownable.sol\":2985:3010  address oldOwner = _owner */\n  swap1\n  pop\n    /* \"@openzeppelin/contracts/access/Ownable.sol\":3029:3037  newOwner */\n  dup2\n    /* \"@openzeppelin/contracts/access/Ownable.sol\":3020:3026  _owner */\n  0x00\n  0x00\n    /* \"@openzeppelin/contracts/access/Ownable.sol\":3020:3037  _owner = newOwner */\n  0x0100\n  exp\n  dup2\n  sload\n  dup2\n  0xffffffffffffffffffffffffffffffffffffffff\n  mul\n  not\n  and\n  swap1\n  dup4\n  0xffffffffffffffffffffffffffffffffffffffff\n  and\n  mul\n  or\n  swap1\n  sstore\n  pop\n    /* \"@openzeppelin/contracts/access/Ownable.sol\":3083:3091  newOwner */\n  dup2\n    /* \"@openzeppelin/contracts/access/Ownable.sol\":3052:3092  OwnershipTransferred(oldOwner, newOwner) */\n  0xffffffffffffffffffffffffffffffffffffffff\n  and\n    /* \"@openzeppelin/contracts/access/Ownable.sol\":3073:3081  oldOwner */\n  dup2\n    /* \"@openzeppelin/contracts/access/Ownable.sol\":3052:3092  OwnershipTransferred(oldOwner, newOwner) */\n  0xffffffffffffffffffffffffffffffffffffffff\n  and\n  0x8be0079c531659141344cd1fd0a4f28419497f9722a3daafe3b4186f6b6457e0\n  mload(0x40)\n  mload(0x40)\n  dup1\n  swap2\n  sub\n  swap1\n  log3\n    /* \"@openzeppelin/contracts/access/Ownable.sol\":2975:3099  {... */\n  pop\n    /* \"@openzeppelin/contracts/access/Ownable.sol\":2912:3099  function _transferOwnership(address newOwner) internal virtual {... */\n  pop\n  jump\t// out\n    /* \"#utility.yul\":7:133   */\ntag_13:\n    /* \"#utility.yul\":44:51   */\n  0x00\n    /* \"#utility.yul\":84:126   */\n  0xffffffffffffffffffffffffffffffffffffffff\n    /* \"#utility.yul\":77:82   */\n  dup3\n    /* \"#utility.yul\":73:127   */\n  and\n    /* \"#utility.yul\":62:127   */\n  swap1\n  pop\n    /* \"#utility.yul\":7:133   */\n  swap2\n  swap1\n  pop\n  jump\t// out\n    /* \"#utility.yul\":139:235   */\ntag_14:\n    /* \"#utility.yul\":176:183   */\n  0x00\n    /* \"#utility.yul\":205:229   */\n  tag_19\n    /* \"#utility.yul\":223:228   */\n  dup3\n    /* \"#utility.yul\":205:229   */\n  tag_13\n  jump\t// in\ntag_19:\n    /* \"#utility.yul\":194:229   */\n  swap1\n  pop\n    /* \"#utility.yul\":139:235   */\n  swap2\n  swap1\n  pop\n  jump\t// out\n    /* \"#utility.yul\":241:359   */\ntag_15:\n    /* \"#utility.yul\":328:352   */\n  tag_21\n    /* \"#utility.yul\":346:351   */\n  dup2\n    /* \"#utility.yul\":328:352   */\n  tag_14\n  jump\t// in\ntag_21:\n    /* \"#utility.yul\":323:326   */\n  dup3\n    /* \"#utility.yul\":316:353   */\n  mstore\n    /* \"#utility.yul\":241:359   */\n  pop\n  pop\n  jump\t// out\n    /* \"#utility.yul\":365:587   */\ntag_7:\n    /* \"#utility.yul\":458:462   */\n  0x00\n    /* \"#utility.yul\":496:498   */\n  0x20\n    /* \"#utility.yul\":485:494   */\n  dup3\n    /* \"#utility.yul\":481:499   */\n  add\n    /* \"#utility.yul\":473:499   */\n  swap1\n  pop\n    /* \"#utility.yul\":509:580   */\n  tag_23\n    /* \"#utility.yul\":577:578   */\n  0x00\n    /* \"#utility.yul\":566:575   */\n  dup4\n    /* \"#utility.yul\":562:579   */\n  add\n    /* \"#utility.yul\":553:559   */\n  dup5\n    /* \"#utility.yul\":509:580   */\n  tag_15\n  jump\t// in\ntag_23:\n    /* \"#utility.yul\":365:587   */\n  swap3\n  swap2\n  pop\n  pop\n  jump\t// out\n    /* \"votingSystem.sol\":115:1706  contract VotingSystem is Ownable {... */\ntag_11:\n  dataSize(sub_0)\n  dup1\n  dataOffset(sub_0)\n  0x00\n  codecopy\n  0x00\n  return\nstop\n\nsub_0: assembly {\n        /* \"votingSystem.sol\":115:1706  contract VotingSystem is Ownable {... */\n      mstore(0x40, 0x80)\n      callvalue\n      dup1\n      iszero\n      tag_1\n      jumpi\n      revert(0x00, 0x00)\n    tag_1:\n      pop\n      jumpi(tag_2, lt(calldatasize, 0x04))\n      shr(0xe0, calldataload(0x00))\n      dup1\n      0x462e91ec\n      gt\n      tag_12\n      jumpi\n      dup1\n      0x462e91ec\n      eq\n      tag_7\n      jumpi\n      dup1\n      0x47a553ad\n      eq\n      tag_8\n      jumpi\n      dup1\n      0x715018a6\n      eq\n      tag_9\n      jumpi\n      dup1\n      0x8da5cb5b\n      eq\n      tag_10\n      jumpi\n      dup1\n      0xf2fde38b\n      eq\n      tag_11\n      jumpi\n      jump(tag_2)\n    tag_12:\n      dup1\n      0x0121b93f\n      eq\n      tag_3\n      jumpi\n      dup1\n      0x09eef43e\n      eq\n      tag_4\n      jumpi\n      dup1\n      0x30a56347\n      eq\n      tag_5\n      jumpi\n      dup1\n      0x3477ee2e\n      eq\n      tag_6\n      jumpi\n    tag_2:\n      revert(0x00, 0x00)\n        /* \"votingSystem.sol\":853:1187  function vote(uint256 _candidateIndex) public virtual {... */\n    tag_3:\n      tag_13\n      0x04\n      dup1\n      calldatasize\n      sub\n      dup2\n      add\n      swap1\n      tag_14\n      swap2\n      swap1\n      tag_15\n      jump\t// in\n    tag_14:\n      tag_16\n      jump\t// in\n    tag_13:\n      stop\n        /* \"votingSystem.sol\":306:346  mapping(address => bool) public hasVoted */\n    tag_4:\n      tag_17\n      0x04\n      dup1\n      calldatasize\n      sub\n      dup2\n      add\n      swap1\n      tag_18\n      swap2\n      swap1\n      tag_19\n      jump\t// in\n    tag_18:\n      tag_20\n      jump\t// in\n    tag_17:\n      mload(0x40)\n      tag_21\n      swap2\n      swap1\n      tag_22\n      jump\t// in\n    tag_21:\n      mload(0x40)\n      dup1\n      swap2\n      sub\n      swap1\n      return\n        /* \"votingSystem.sol\":1195:1297  function getCandidateCount() public view returns (uint256) {... */\n    tag_5:\n      tag_23\n      tag_24\n      jump\t// in\n    tag_23:\n      mload(0x40)\n      tag_25\n      swap2\n      swap1\n      tag_26\n      jump\t// in\n    tag_25:\n      mload(0x40)\n      dup1\n      swap2\n      sub\n      swap1\n      return\n        /* \"votingSystem.sol\":407:436  Candidate[] public candidates */\n    tag_6:\n      tag_27\n      0x04\n      dup1\n      calldatasize\n      sub\n      dup2\n      add\n      swap1\n      tag_28\n      swap2\n      swap1\n      tag_15\n      jump\t// in\n    tag_28:\n      tag_29\n      jump\t// in\n    tag_27:\n      mload(0x40)\n      tag_30\n      swap3\n      swap2\n      swap1\n      tag_31\n      jump\t// in\n    tag_30:\n      mload(0x40)\n      dup1\n      swap2\n      sub\n      swap1\n      return\n        /* \"votingSystem.sol\":559:845  function addCandidate(string memory _name) public onlyOwner {... */\n    tag_7:\n      tag_32\n      0x04\n      dup1\n      calldatasize\n      sub\n      dup2\n      add\n      swap1\n      tag_33\n      swap2\n      swap1\n      tag_34\n      jump\t// in\n    tag_33:\n      tag_35\n      jump\t// in\n    tag_32:\n      stop\n        /* \"votingSystem.sol\":1305:1699  function leadingCandidate() public view returns (uint256) {... */\n    tag_8:\n      tag_36\n      tag_37\n      jump\t// in\n    tag_36:\n      mload(0x40)\n      tag_38\n      swap2\n      swap1\n      tag_26\n      jump\t// in\n    tag_38:\n      mload(0x40)\n      dup1\n      swap2\n      sub\n      swap1\n      return\n        /* \"@openzeppelin/contracts/access/Ownable.sol\":2293:2394  function renounceOwnership() public virtual onlyOwner {... */\n    tag_9:\n      tag_39\n      tag_40\n      jump\t// in\n    tag_39:\n      stop\n        /* \"@openzeppelin/contracts/access/Ownable.sol\":1638:1723  function owner() public view virtual returns (address) {... */\n    tag_10:\n      tag_41\n      tag_42\n      jump\t// in\n    tag_41:\n      mload(0x40)\n      tag_43\n      swap2\n      swap1\n      tag_44\n      jump\t// in\n    tag_43:\n      mload(0x40)\n      dup1\n      swap2\n      sub\n      swap1\n      return\n        /* \"@openzeppelin/contracts/access/Ownable.sol\":2543:2758  function transferOwnership(address newOwner) public virtual onlyOwner {... */\n    tag_11:\n      tag_45\n      0x04\n      dup1\n      calldatasize\n      sub\n      dup2\n      add\n      swap1\n      tag_46\n      swap2\n      swap1\n      tag_19\n      jump\t// in\n    tag_46:\n      tag_47\n      jump\t// in\n    tag_45:\n      stop\n        /* \"votingSystem.sol\":853:1187  function vote(uint256 _candidateIndex) public virtual {... */\n    tag_16:\n        /* \"votingSystem.sol\":927:935  hasVoted */\n      0x01\n        /* \"votingSystem.sol\":927:947  hasVoted[msg.sender] */\n      0x00\n        /* \"votingSystem.sol\":936:946  msg.sender */\n      caller\n        /* \"votingSystem.sol\":927:947  hasVoted[msg.sender] */\n      0xffffffffffffffffffffffffffffffffffffffff\n      and\n      0xffffffffffffffffffffffffffffffffffffffff\n      and\n      dup2\n      mstore\n      0x20\n      add\n      swap1\n      dup2\n      mstore\n      0x20\n      add\n      0x00\n      keccak256\n      0x00\n      swap1\n      sload\n      swap1\n      0x0100\n      exp\n      swap1\n      div\n      0xff\n      and\n        /* \"votingSystem.sol\":926:947  !hasVoted[msg.sender] */\n      iszero\n        /* \"votingSystem.sol\":918:965  require(!hasVoted[msg.sender], \"Already voted\") */\n      tag_49\n      jumpi\n      mload(0x40)\n      0x08c379a000000000000000000000000000000000000000000000000000000000\n      dup2\n      mstore\n      0x04\n      add\n      tag_50\n      swap1\n      tag_51\n      jump\t// in\n    tag_50:\n      mload(0x40)\n      dup1\n      swap2\n      sub\n      swap1\n      revert\n    tag_49:\n        /* \"votingSystem.sol\":1002:1012  candidates */\n      0x03\n        /* \"votingSystem.sol\":1002:1019  candidates.length */\n      dup1\n      sload\n      swap1\n      pop\n        /* \"votingSystem.sol\":984:999  _candidateIndex */\n      dup2\n        /* \"votingSystem.sol\":984:1019  _candidateIndex < candidates.length */\n      lt\n        /* \"votingSystem.sol\":976:1041  require(_candidateIndex < candidates.length, \"Invalid candidate\") */\n      tag_52\n      jumpi\n      mload(0x40)\n      0x08c379a000000000000000000000000000000000000000000000000000000000\n      dup2\n      mstore\n      0x04\n      add\n      tag_53\n      swap1\n      tag_54\n      jump\t// in\n    tag_53:\n      mload(0x40)\n      dup1\n      swap2\n      sub\n      swap1\n      revert\n    tag_52:\n        /* \"votingSystem.sol\":1052:1062  candidates */\n      0x03\n        /* \"votingSystem.sol\":1063:1078  _candidateIndex */\n      dup2\n        /* \"votingSystem.sol\":1052:1079  candidates[_candidateIndex] */\n      dup2\n      sload\n      dup2\n      lt\n      tag_55\n      jumpi\n      tag_56\n      tag_57\n      jump\t// in\n    tag_56:\n    tag_55:\n      swap1\n      0x00\n      mstore\n      keccak256(0x00, 0x20)\n      swap1\n      0x02\n      mul\n      add\n        /* \"votingSystem.sol\":1052:1089  candidates[_candidateIndex].voteCount */\n      0x01\n      add\n      0x00\n        /* \"votingSystem.sol\":1052:1091  candidates[_candidateIndex].voteCount++ */\n      dup2\n      sload\n      dup1\n      swap3\n      swap2\n      swap1\n      tag_59\n      swap1\n      tag_60\n      jump\t// in\n    tag_59:\n      swap2\n      swap1\n      pop\n      sstore\n      pop\n        /* \"votingSystem.sol\":1125:1129  true */\n      0x01\n        /* \"votingSystem.sol\":1102:1110  hasVoted */\n      dup1\n        /* \"votingSystem.sol\":1102:1122  hasVoted[msg.sender] */\n      0x00\n        /* \"votingSystem.sol\":1111:1121  msg.sender */\n      caller\n        /* \"votingSystem.sol\":1102:1122  hasVoted[msg.sender] */\n      0xffffffffffffffffffffffffffffffffffffffff\n      and\n      0xffffffffffffffffffffffffffffffffffffffff\n      and\n      dup2\n      mstore\n      0x20\n      add\n      swap1\n      dup2\n      mstore\n      0x20\n      add\n      0x00\n      keccak256\n      0x00\n        /* \"votingSystem.sol\":1102:1129  hasVoted[msg.sender] = true */\n      0x0100\n      exp\n      dup2\n      sload\n      dup2\n      0xff\n      mul\n      not\n      and\n      swap1\n      dup4\n      iszero\n      iszero\n      mul\n      or\n      swap1\n      sstore\n      pop\n        /* \"votingSystem.sol\":1145:1179  Voted(msg.sender, _candidateIndex) */\n      0x4d99b957a2bc29a30ebd96a7be8e68fe50a3c701db28a91436490b7d53870ca4\n        /* \"votingSystem.sol\":1151:1161  msg.sender */\n      caller\n        /* \"votingSystem.sol\":1163:1178  _candidateIndex */\n      dup3\n        /* \"votingSystem.sol\":1145:1179  Voted(msg.sender, _candidateIndex) */\n      mload(0x40)\n      tag_61\n      swap3\n      swap2\n      swap1\n      tag_62\n      jump\t// in\n    tag_61:\n      mload(0x40)\n      dup1\n      swap2\n      sub\n      swap1\n      log1\n        /* \"votingSystem.sol\":853:1187  function vote(uint256 _candidateIndex) public virtual {... */\n      pop\n      jump\t// out\n        /* \"votingSystem.sol\":306:346  mapping(address => bool) public hasVoted */\n    tag_20:\n      mstore(0x20, 0x01)\n      dup1\n      0x00\n      mstore\n      keccak256(0x00, 0x40)\n      0x00\n      swap2\n      pop\n      sload\n      swap1\n      0x0100\n      exp\n      swap1\n      div\n      0xff\n      and\n      dup2\n      jump\t// out\n        /* \"votingSystem.sol\":1195:1297  function getCandidateCount() public view returns (uint256) {... */\n    tag_24:\n        /* \"votingSystem.sol\":1245:1252  uint256 */\n      0x00\n        /* \"votingSystem.sol\":1272:1282  candidates */\n      0x03\n        /* \"votingSystem.sol\":1272:1289  candidates.length */\n      dup1\n      sload\n      swap1\n      pop\n        /* \"votingSystem.sol\":1265:1289  return candidates.length */\n      swap1\n      pop\n        /* \"votingSystem.sol\":1195:1297  function getCandidateCount() public view returns (uint256) {... */\n      swap1\n      jump\t// out\n        /* \"votingSystem.sol\":407:436  Candidate[] public candidates */\n    tag_29:\n      0x03\n      dup2\n      dup2\n      sload\n      dup2\n      lt\n      tag_64\n      jumpi\n      0x00\n      dup1\n      revert\n    tag_64:\n      swap1\n      0x00\n      mstore\n      keccak256(0x00, 0x20)\n      swap1\n      0x02\n      mul\n      add\n      0x00\n      swap2\n      pop\n      swap1\n      pop\n      dup1\n      0x00\n      add\n      dup1\n      sload\n      tag_66\n      swap1\n      tag_67\n      jump\t// in\n    tag_66:\n      dup1\n      0x1f\n      add\n      0x20\n      dup1\n      swap2\n      div\n      mul\n      0x20\n      add\n      mload(0x40)\n      swap1\n      dup2\n      add\n      0x40\n      mstore\n      dup1\n      swap3\n      swap2\n      swap1\n      dup2\n      dup2\n      mstore\n      0x20\n      add\n      dup3\n      dup1\n      sload\n      tag_68\n      swap1\n      tag_67\n      jump\t// in\n    tag_68:\n      dup1\n      iszero\n      tag_69\n      jumpi\n      dup1\n      0x1f\n      lt\n      tag_70\n      jumpi\n      0x0100\n      dup1\n      dup4\n      sload\n      div\n      mul\n      dup4\n      mstore\n      swap2\n      0x20\n      add\n      swap2\n      jump(tag_69)\n    tag_70:\n      dup3\n      add\n      swap2\n      swap1\n      0x00\n      mstore\n      keccak256(0x00, 0x20)\n      swap1\n    tag_71:\n      dup2\n      sload\n      dup2\n      mstore\n      swap1\n      0x01\n      add\n      swap1\n      0x20\n      add\n      dup1\n      dup4\n      gt\n      tag_71\n      jumpi\n      dup3\n      swap1\n      sub\n      0x1f\n      and\n      dup3\n      add\n      swap2\n    tag_69:\n      pop\n      pop\n      pop\n      pop\n      pop\n      swap1\n      dup1\n      0x01\n      add\n      sload\n      swap1\n      pop\n      dup3\n      jump\t// out\n        /* \"votingSystem.sol\":559:845  function addCandidate(string memory _name) public onlyOwner {... */\n    tag_35:\n        /* \"@openzeppelin/contracts/access/Ownable.sol\":1531:1544  _checkOwner() */\n      tag_73\n        /* \"@openzeppelin/contracts/access/Ownable.sol\":1531:1542  _checkOwner */\n      tag_74\n        /* \"@openzeppelin/contracts/access/Ownable.sol\":1531:1544  _checkOwner() */\n      jump\t// in\n    tag_73:\n        /* \"votingSystem.sol\":639:654  _candidateNames */\n      0x02\n        /* \"votingSystem.sol\":655:660  _name */\n      dup2\n        /* \"votingSystem.sol\":639:661  _candidateNames[_name] */\n      mload(0x40)\n      tag_76\n      swap2\n      swap1\n      tag_77\n      jump\t// in\n    tag_76:\n      swap1\n      dup2\n      mstore\n      0x20\n      add\n      mload(0x40)\n      dup1\n      swap2\n      sub\n      swap1\n      keccak256\n      0x00\n      swap1\n      sload\n      swap1\n      0x0100\n      exp\n      swap1\n      div\n      0xff\n      and\n        /* \"votingSystem.sol\":638:661  !_candidateNames[_name] */\n      iszero\n        /* \"votingSystem.sol\":630:690  require(!_candidateNames[_name], \"Candidate already exists\") */\n      tag_78\n      jumpi\n      mload(0x40)\n      0x08c379a000000000000000000000000000000000000000000000000000000000\n      dup2\n      mstore\n      0x04\n      add\n      tag_79\n      swap1\n      tag_80\n      jump\t// in\n    tag_79:\n      mload(0x40)\n      dup1\n      swap2\n      sub\n      swap1\n      revert\n    tag_78:\n        /* \"votingSystem.sol\":726:730  true */\n      0x01\n        /* \"votingSystem.sol\":701:716  _candidateNames */\n      0x02\n        /* \"votingSystem.sol\":717:722  _name */\n      dup3\n        /* \"votingSystem.sol\":701:723  _candidateNames[_name] */\n      mload(0x40)\n      tag_81\n      swap2\n      swap1\n      tag_77\n      jump\t// in\n    tag_81:\n      swap1\n      dup2\n      mstore\n      0x20\n      add\n      mload(0x40)\n      dup1\n      swap2\n      sub\n      swap1\n      keccak256\n      0x00\n        /* \"votingSystem.sol\":701:730  _candidateNames[_name] = true */\n      0x0100\n      exp\n      dup2\n      sload\n      dup2\n      0xff\n      mul\n      not\n      and\n      swap1\n      dup4\n      iszero\n      iszero\n      mul\n      or\n      swap1\n      sstore\n      pop\n        /* \"votingSystem.sol\":741:751  candidates */\n      0x03\n        /* \"votingSystem.sol\":757:776  Candidate(_name, 0) */\n      mload(0x40)\n      dup1\n      0x40\n      add\n      0x40\n      mstore\n      dup1\n        /* \"votingSystem.sol\":767:772  _name */\n      dup4\n        /* \"votingSystem.sol\":757:776  Candidate(_name, 0) */\n      dup2\n      mstore\n      0x20\n      add\n        /* \"votingSystem.sol\":774:775  0 */\n      0x00\n        /* \"votingSystem.sol\":757:776  Candidate(_name, 0) */\n      dup2\n      mstore\n      pop\n        /* \"votingSystem.sol\":741:777  candidates.push(Candidate(_name, 0)) */\n      swap1\n      dup1\n      0x01\n      dup2\n      sload\n      add\n      dup1\n      dup3\n      sstore\n      dup1\n      swap2\n      pop\n      pop\n      0x01\n      swap1\n      sub\n      swap1\n      0x00\n      mstore\n      keccak256(0x00, 0x20)\n      swap1\n      0x02\n      mul\n      add\n      0x00\n      swap1\n      swap2\n      swap1\n      swap2\n      swap1\n      swap2\n      pop\n      0x00\n      dup3\n      add\n      mload\n      dup2\n      0x00\n      add\n      swap1\n      dup2\n      tag_83\n      swap2\n      swap1\n      tag_84\n      jump\t// in\n    tag_83:\n      pop\n      0x20\n      dup3\n      add\n      mload\n      dup2\n      0x01\n      add\n      sstore\n      pop\n      pop\n        /* \"votingSystem.sol\":793:837  CandidateAdded(_name, candidates.length - 1) */\n      0xa89e28469fa9e15d5149634a9ce8d8dd59ec42c18ba2d281b08c305f2095acef\n        /* \"votingSystem.sol\":808:813  _name */\n      dup2\n        /* \"votingSystem.sol\":835:836  1 */\n      0x01\n        /* \"votingSystem.sol\":815:825  candidates */\n      0x03\n        /* \"votingSystem.sol\":815:832  candidates.length */\n      dup1\n      sload\n      swap1\n      pop\n        /* \"votingSystem.sol\":815:836  candidates.length - 1 */\n      tag_85\n      swap2\n      swap1\n      tag_86\n      jump\t// in\n    tag_85:\n        /* \"votingSystem.sol\":793:837  CandidateAdded(_name, candidates.length - 1) */\n      mload(0x40)\n      tag_87\n      swap3\n      swap2\n      swap1\n      tag_31\n      jump\t// in\n    tag_87:\n      mload(0x40)\n      dup1\n      swap2\n      sub\n      swap1\n      log1\n        /* \"votingSystem.sol\":559:845  function addCandidate(string memory _name) public onlyOwner {... */\n      pop\n      jump\t// out\n        /* \"votingSystem.sol\":1305:1699  function leadingCandidate() public view returns (uint256) {... */\n    tag_37:\n        /* \"votingSystem.sol\":1354:1361  uint256 */\n      0x00\n        /* \"votingSystem.sol\":1374:1390  uint256 maxVotes */\n      0x00\n        /* \"votingSystem.sol\":1393:1394  0 */\n      0x00\n        /* \"votingSystem.sol\":1374:1394  uint256 maxVotes = 0 */\n      swap1\n      pop\n        /* \"votingSystem.sol\":1405:1425  uint256 leadingIndex */\n      0x00\n        /* \"votingSystem.sol\":1428:1429  0 */\n      0x00\n        /* \"votingSystem.sol\":1405:1429  uint256 leadingIndex = 0 */\n      swap1\n      pop\n        /* \"votingSystem.sol\":1447:1456  uint256 i */\n      0x00\n        /* \"votingSystem.sol\":1459:1460  0 */\n      0x00\n        /* \"votingSystem.sol\":1447:1460  uint256 i = 0 */\n      swap1\n      pop\n        /* \"votingSystem.sol\":1442:1660  for (uint256 i = 0; i < candidates.length; i++) {... */\n    tag_89:\n        /* \"votingSystem.sol\":1466:1476  candidates */\n      0x03\n        /* \"votingSystem.sol\":1466:1483  candidates.length */\n      dup1\n      sload\n      swap1\n      pop\n        /* \"votingSystem.sol\":1462:1463  i */\n      dup2\n        /* \"votingSystem.sol\":1462:1483  i < candidates.length */\n      lt\n        /* \"votingSystem.sol\":1442:1660  for (uint256 i = 0; i < candidates.length; i++) {... */\n      iszero\n      tag_90\n      jumpi\n        /* \"votingSystem.sol\":1535:1543  maxVotes */\n      dup3\n        /* \"votingSystem.sol\":1509:1519  candidates */\n      0x03\n        /* \"votingSystem.sol\":1520:1521  i */\n      dup3\n        /* \"votingSystem.sol\":1509:1522  candidates[i] */\n      dup2\n      sload\n      dup2\n      lt\n      tag_92\n      jumpi\n      tag_93\n      tag_57\n      jump\t// in\n    tag_93:\n    tag_92:\n      swap1\n      0x00\n      mstore\n      keccak256(0x00, 0x20)\n      swap1\n      0x02\n      mul\n      add\n        /* \"votingSystem.sol\":1509:1532  candidates[i].voteCount */\n      0x01\n      add\n      sload\n        /* \"votingSystem.sol\":1509:1543  candidates[i].voteCount > maxVotes */\n      gt\n        /* \"votingSystem.sol\":1505:1649  if (candidates[i].voteCount > maxVotes) {... */\n      iszero\n      tag_95\n      jumpi\n        /* \"votingSystem.sol\":1575:1585  candidates */\n      0x03\n        /* \"votingSystem.sol\":1586:1587  i */\n      dup2\n        /* \"votingSystem.sol\":1575:1588  candidates[i] */\n      dup2\n      sload\n      dup2\n      lt\n      tag_96\n      jumpi\n      tag_97\n      tag_57\n      jump\t// in\n    tag_97:\n    tag_96:\n      swap1\n      0x00\n      mstore\n      keccak256(0x00, 0x20)\n      swap1\n      0x02\n      mul\n      add\n        /* \"votingSystem.sol\":1575:1598  candidates[i].voteCount */\n      0x01\n      add\n      sload\n        /* \"votingSystem.sol\":1564:1598  maxVotes = candidates[i].voteCount */\n      swap3\n      pop\n        /* \"votingSystem.sol\":1632:1633  i */\n      dup1\n        /* \"votingSystem.sol\":1617:1633  leadingIndex = i */\n      swap2\n      pop\n        /* \"votingSystem.sol\":1505:1649  if (candidates[i].voteCount > maxVotes) {... */\n    tag_95:\n        /* \"votingSystem.sol\":1485:1488  i++ */\n      dup1\n      dup1\n      0x01\n      add\n      swap2\n      pop\n      pop\n        /* \"votingSystem.sol\":1442:1660  for (uint256 i = 0; i < candidates.length; i++) {... */\n      jump(tag_89)\n    tag_90:\n      pop\n        /* \"votingSystem.sol\":1679:1691  leadingIndex */\n      dup1\n        /* \"votingSystem.sol\":1672:1691  return leadingIndex */\n      swap3\n      pop\n      pop\n      pop\n        /* \"votingSystem.sol\":1305:1699  function leadingCandidate() public view returns (uint256) {... */\n      swap1\n      jump\t// out\n        /* \"@openzeppelin/contracts/access/Ownable.sol\":2293:2394  function renounceOwnership() public virtual onlyOwner {... */\n    tag_40:\n        /* \"@openzeppelin/contracts/access/Ownable.sol\":1531:1544  _checkOwner() */\n      tag_100\n        /* \"@openzeppelin/contracts/access/Ownable.sol\":1531:1542  _checkOwner */\n      tag_74\n        /* \"@openzeppelin/contracts/access/Ownable.sol\":1531:1544  _checkOwner() */\n      jump\t// in\n    tag_100:\n        /* \"@openzeppelin/contracts/access/Ownable.sol\":2357:2387  _transferOwnership(address(0)) */\n      tag_102\n        /* \"@openzeppelin/contracts/access/Ownable.sol\":2384:2385  0 */\n      0x00\n        /* \"@openzeppelin/contracts/access/Ownable.sol\":2357:2375  _transferOwnership */\n      tag_103\n        /* \"@openzeppelin/contracts/access/Ownable.sol\":2357:2387  _transferOwnership(address(0)) */\n      jump\t// in\n    tag_102:\n        /* \"@openzeppelin/contracts/access/Ownable.sol\":2293:2394  function renounceOwnership() public virtual onlyOwner {... */\n      jump\t// out\n        /* \"@openzeppelin/contracts/access/Ownable.sol\":1638:1723  function owner() public view virtual returns (address) {... */\n    tag_42:\n        /* \"@openzeppelin/contracts/access/Ownable.sol\":1684:1691  address */\n      0x00\n        /* \"@openzeppelin/contracts/access/Ownable.sol\":1710:1716  _owner */\n      0x00\n      0x00\n      swap1\n      sload\n      swap1\n      0x0100\n      exp\n      swap1\n      div\n      0xffffffffffffffffffffffffffffffffffffffff\n      and\n        /* \"@openzeppelin/contracts/access/Ownable.sol\":1703:1716  return _owner */\n      swap1\n      pop\n        /* \"@openzeppelin/contracts/access/Ownable.sol\":1638:1723  function owner() public view virtual returns (address) {... */\n      swap1\n      jump\t// out\n        /* \"@openzeppelin/contracts/access/Ownable.sol\":2543:2758  function transferOwnership(address newOwner) public virtual onlyOwner {... */\n    tag_47:\n        /* \"@openzeppelin/contracts/access/Ownable.sol\":1531:1544  _checkOwner() */\n      tag_106\n        /* \"@openzeppelin/contracts/access/Ownable.sol\":1531:1542  _checkOwner */\n      tag_74\n        /* \"@openzeppelin/contracts/access/Ownable.sol\":1531:1544  _checkOwner() */\n      jump\t// in\n    tag_106:\n        /* \"@openzeppelin/contracts/access/Ownable.sol\":2647:2648  0 */\n      0x00\n        /* \"@openzeppelin/contracts/access/Ownable.sol\":2627:2649  newOwner == address(0) */\n      0xffffffffffffffffffffffffffffffffffffffff\n      and\n        /* \"@openzeppelin/contracts/access/Ownable.sol\":2627:2635  newOwner */\n      dup2\n        /* \"@openzeppelin/contracts/access/Ownable.sol\":2627:2649  newOwner == address(0) */\n      0xffffffffffffffffffffffffffffffffffffffff\n      and\n      sub\n        /* \"@openzeppelin/contracts/access/Ownable.sol\":2623:2714  if (newOwner == address(0)) {... */\n      tag_108\n      jumpi\n        /* \"@openzeppelin/contracts/access/Ownable.sol\":2700:2701  0 */\n      0x00\n        /* \"@openzeppelin/contracts/access/Ownable.sol\":2672:2703  OwnableInvalidOwner(address(0)) */\n      mload(0x40)\n      0x1e4fbdf700000000000000000000000000000000000000000000000000000000\n      dup2\n      mstore\n      0x04\n      add\n      tag_109\n      swap2\n      swap1\n      tag_44\n      jump\t// in\n    tag_109:\n      mload(0x40)\n      dup1\n      swap2\n      sub\n      swap1\n      revert\n        /* \"@openzeppelin/contracts/access/Ownable.sol\":2623:2714  if (newOwner == address(0)) {... */\n    tag_108:\n        /* \"@openzeppelin/contracts/access/Ownable.sol\":2723:2751  _transferOwnership(newOwner) */\n      tag_110\n        /* \"@openzeppelin/contracts/access/Ownable.sol\":2742:2750  newOwner */\n      dup2\n        /* \"@openzeppelin/contracts/access/Ownable.sol\":2723:2741  _transferOwnership */\n      tag_103\n        /* \"@openzeppelin/contracts/access/Ownable.sol\":2723:2751  _transferOwnership(newOwner) */\n      jump\t// in\n    tag_110:\n        /* \"@openzeppelin/contracts/access/Ownable.sol\":2543:2758  function transferOwnership(address newOwner) public virtual onlyOwner {... */\n      pop\n      jump\t// out\n        /* \"@openzeppelin/contracts/access/Ownable.sol\":1796:1958  function _checkOwner() internal view virtual {... */\n    tag_74:\n        /* \"@openzeppelin/contracts/access/Ownable.sol\":1866:1878  _msgSender() */\n      tag_112\n        /* \"@openzeppelin/contracts/access/Ownable.sol\":1866:1876  _msgSender */\n      tag_113\n        /* \"@openzeppelin/contracts/access/Ownable.sol\":1866:1878  _msgSender() */\n      jump\t// in\n    tag_112:\n        /* \"@openzeppelin/contracts/access/Ownable.sol\":1855:1878  owner() != _msgSender() */\n      0xffffffffffffffffffffffffffffffffffffffff\n      and\n        /* \"@openzeppelin/contracts/access/Ownable.sol\":1855:1862  owner() */\n      tag_114\n        /* \"@openzeppelin/contracts/access/Ownable.sol\":1855:1860  owner */\n      tag_42\n        /* \"@openzeppelin/contracts/access/Ownable.sol\":1855:1862  owner() */\n      jump\t// in\n    tag_114:\n        /* \"@openzeppelin/contracts/access/Ownable.sol\":1855:1878  owner() != _msgSender() */\n      0xffffffffffffffffffffffffffffffffffffffff\n      and\n      eq\n        /* \"@openzeppelin/contracts/access/Ownable.sol\":1851:1952  if (owner() != _msgSender()) {... */\n      tag_115\n      jumpi\n        /* \"@openzeppelin/contracts/access/Ownable.sol\":1928:1940  _msgSender() */\n      tag_116\n        /* \"@openzeppelin/contracts/access/Ownable.sol\":1928:1938  _msgSender */\n      tag_113\n        /* \"@openzeppelin/contracts/access/Ownable.sol\":1928:1940  _msgSender() */\n      jump\t// in\n    tag_116:\n        /* \"@openzeppelin/contracts/access/Ownable.sol\":1901:1941  OwnableUnauthorizedAccount(_msgSender()) */\n      mload(0x40)\n      0x118cdaa700000000000000000000000000000000000000000000000000000000\n      dup2\n      mstore\n      0x04\n      add\n      tag_117\n      swap2\n      swap1\n      tag_44\n      jump\t// in\n    tag_117:\n      mload(0x40)\n      dup1\n      swap2\n      sub\n      swap1\n      revert\n        /* \"@openzeppelin/contracts/access/Ownable.sol\":1851:1952  if (owner() != _msgSender()) {... */\n    tag_115:\n        /* \"@openzeppelin/contracts/access/Ownable.sol\":1796:1958  function _checkOwner() internal view virtual {... */\n      jump\t// out\n        /* \"@openzeppelin/contracts/access/Ownable.sol\":2912:3099  function _transferOwnership(address newOwner) internal virtual {... */\n    tag_103:\n        /* \"@openzeppelin/contracts/access/Ownable.sol\":2985:3001  address oldOwner */\n      0x00\n        /* \"@openzeppelin/contracts/access/Ownable.sol\":3004:3010  _owner */\n      0x00\n      0x00\n      swap1\n      sload\n      swap1\n      0x0100\n      exp\n      swap1\n      div\n      0xffffffffffffffffffffffffffffffffffffffff\n      and\n        /* \"@openzeppelin/contracts/access/Ownable.sol\":2985:3010  address oldOwner = _owner */\n      swap1\n      pop\n        /* \"@openzeppelin/contracts/access/Ownable.sol\":3029:3037  newOwner */\n      dup2\n        /* \"@openzeppelin/contracts/access/Ownable.sol\":3020:3026  _owner */\n      0x00\n      0x00\n        /* \"@openzeppelin/contracts/access/Ownable.sol\":3020:3037  _owner = newOwner */\n      0x0100\n      exp\n      dup2\n      sload\n      dup2\n      0xffffffffffffffffffffffffffffffffffffffff\n      mul\n      not\n      and\n      swap1\n      dup4\n      0xffffffffffffffffffffffffffffffffffffffff\n      and\n      mul\n      or\n      swap1\n      sstore\n      pop\n        /* \"@openzeppelin/contracts/access/Ownable.sol\":3083:3091  newOwner */\n      dup2\n        /* \"@openzeppelin/contracts/access/Ownable.sol\":3052:3092  OwnershipTransferred(oldOwner, newOwner) */\n      0xffffffffffffffffffffffffffffffffffffffff\n      and\n        /* \"@openzeppelin/contracts/access/Ownable.sol\":3073:3081  oldOwner */\n      dup2\n        /* \"@openzeppelin/contracts/access/Ownable.sol\":3052:3092  OwnershipTransferred(oldOwner, newOwner) */\n      0xffffffffffffffffffffffffffffffffffffffff\n      and\n      0x8be0079c531659141344cd1fd0a4f28419497f9722a3daafe3b4186f6b6457e0\n      mload(0x40)\n      mload(0x40)\n      dup1\n      swap2\n      sub\n      swap1\n      log3\n        /* \"@openzeppelin/contracts/access/Ownable.sol\":2975:3099  {... */\n      pop\n        /* \"@openzeppelin/contracts/access/Ownable.sol\":2912:3099  function _transferOwnership(address newOwner) internal virtual {... */\n      pop\n      jump\t// out\n        /* \"@openzeppelin/contracts/utils/Context.sol\":656:752  function _msgSender() internal view virtual returns (address) {... */\n    tag_113:\n        /* \"@openzeppelin/contracts/utils/Context.sol\":709:716  address */\n      0x00\n        /* \"@openzeppelin/contracts/utils/Context.sol\":735:745  msg.sender */\n      caller\n        /* \"@openzeppelin/contracts/utils/Context.sol\":728:745  return msg.sender */\n      swap1\n      pop\n        /* \"@openzeppelin/contracts/utils/Context.sol\":656:752  function _msgSender() internal view virtual returns (address) {... */\n      swap1\n      jump\t// out\n        /* \"#utility.yul\":7:82   */\n    tag_120:\n        /* \"#utility.yul\":40:46   */\n      0x00\n        /* \"#utility.yul\":73:75   */\n      0x40\n        /* \"#utility.yul\":67:76   */\n      mload\n        /* \"#utility.yul\":57:76   */\n      swap1\n      pop\n        /* \"#utility.yul\":7:82   */\n      swap1\n      jump\t// out\n        /* \"#utility.yul\":88:205   */\n    tag_121:\n        /* \"#utility.yul\":197:198   */\n      0x00\n        /* \"#utility.yul\":194:195   */\n      0x00\n        /* \"#utility.yul\":187:199   */\n      revert\n        /* \"#utility.yul\":211:328   */\n    tag_122:\n        /* \"#utility.yul\":320:321   */\n      0x00\n        /* \"#utility.yul\":317:318   */\n      0x00\n        /* \"#utility.yul\":310:322   */\n      revert\n        /* \"#utility.yul\":334:411   */\n    tag_123:\n        /* \"#utility.yul\":371:378   */\n      0x00\n        /* \"#utility.yul\":400:405   */\n      dup2\n        /* \"#utility.yul\":389:405   */\n      swap1\n      pop\n        /* \"#utility.yul\":334:411   */\n      swap2\n      swap1\n      pop\n      jump\t// out\n        /* \"#utility.yul\":417:539   */\n    tag_124:\n        /* \"#utility.yul\":490:514   */\n      tag_179\n        /* \"#utility.yul\":508:513   */\n      dup2\n        /* \"#utility.yul\":490:514   */\n      tag_123\n      jump\t// in\n    tag_179:\n        /* \"#utility.yul\":483:488   */\n      dup2\n        /* \"#utility.yul\":480:515   */\n      eq\n        /* \"#utility.yul\":470:533   */\n      tag_180\n      jumpi\n        /* \"#utility.yul\":529:530   */\n      0x00\n        /* \"#utility.yul\":526:527   */\n      0x00\n        /* \"#utility.yul\":519:531   */\n      revert\n        /* \"#utility.yul\":470:533   */\n    tag_180:\n        /* \"#utility.yul\":417:539   */\n      pop\n      jump\t// out\n        /* \"#utility.yul\":545:684   */\n    tag_125:\n        /* \"#utility.yul\":591:596   */\n      0x00\n        /* \"#utility.yul\":629:635   */\n      dup2\n        /* \"#utility.yul\":616:636   */\n      calldataload\n        /* \"#utility.yul\":607:636   */\n      swap1\n      pop\n        /* \"#utility.yul\":645:678   */\n      tag_182\n        /* \"#utility.yul\":672:677   */\n      dup2\n        /* \"#utility.yul\":645:678   */\n      tag_124\n      jump\t// in\n    tag_182:\n        /* \"#utility.yul\":545:684   */\n      swap3\n      swap2\n      pop\n      pop\n      jump\t// out\n        /* \"#utility.yul\":690:1019   */\n    tag_15:\n        /* \"#utility.yul\":749:755   */\n      0x00\n        /* \"#utility.yul\":798:800   */\n      0x20\n        /* \"#utility.yul\":786:795   */\n      dup3\n        /* \"#utility.yul\":777:784   */\n      dup5\n        /* \"#utility.yul\":773:796   */\n      sub\n        /* \"#utility.yul\":769:801   */\n      slt\n        /* \"#utility.yul\":766:885   */\n      iszero\n      tag_184\n      jumpi\n        /* \"#utility.yul\":804:883   */\n      tag_185\n      tag_121\n      jump\t// in\n    tag_185:\n        /* \"#utility.yul\":766:885   */\n    tag_184:\n        /* \"#utility.yul\":924:925   */\n      0x00\n        /* \"#utility.yul\":949:1002   */\n      tag_186\n        /* \"#utility.yul\":994:1001   */\n      dup5\n        /* \"#utility.yul\":985:991   */\n      dup3\n        /* \"#utility.yul\":974:983   */\n      dup6\n        /* \"#utility.yul\":970:992   */\n      add\n        /* \"#utility.yul\":949:1002   */\n      tag_125\n      jump\t// in\n    tag_186:\n        /* \"#utility.yul\":939:1002   */\n      swap2\n      pop\n        /* \"#utility.yul\":895:1012   */\n      pop\n        /* \"#utility.yul\":690:1019   */\n      swap3\n      swap2\n      pop\n      pop\n      jump\t// out\n        /* \"#utility.yul\":1025:1151   */\n    tag_126:\n        /* \"#utility.yul\":1062:1069   */\n      0x00\n        /* \"#utility.yul\":1102:1144   */\n      0xffffffffffffffffffffffffffffffffffffffff\n        /* \"#utility.yul\":1095:1100   */\n      dup3\n        /* \"#utility.yul\":1091:1145   */\n      and\n        /* \"#utility.yul\":1080:1145   */\n      swap1\n      pop\n        /* \"#utility.yul\":1025:1151   */\n      swap2\n      swap1\n      pop\n      jump\t// out\n        /* \"#utility.yul\":1157:1253   */\n    tag_127:\n        /* \"#utility.yul\":1194:1201   */\n      0x00\n        /* \"#utility.yul\":1223:1247   */\n      tag_189\n        /* \"#utility.yul\":1241:1246   */\n      dup3\n        /* \"#utility.yul\":1223:1247   */\n      tag_126\n      jump\t// in\n    tag_189:\n        /* \"#utility.yul\":1212:1247   */\n      swap1\n      pop\n        /* \"#utility.yul\":1157:1253   */\n      swap2\n      swap1\n      pop\n      jump\t// out\n        /* \"#utility.yul\":1259:1381   */\n    tag_128:\n        /* \"#utility.yul\":1332:1356   */\n      tag_191\n        /* \"#utility.yul\":1350:1355   */\n      dup2\n        /* \"#utility.yul\":1332:1356   */\n      tag_127\n      jump\t// in\n    tag_191:\n        /* \"#utility.yul\":1325:1330   */\n      dup2\n        /* \"#utility.yul\":1322:1357   */\n      eq\n        /* \"#utility.yul\":1312:1375   */\n      tag_192\n      jumpi\n        /* \"#utility.yul\":1371:1372   */\n      0x00\n        /* \"#utility.yul\":1368:1369   */\n      0x00\n        /* \"#utility.yul\":1361:1373   */\n      revert\n        /* \"#utility.yul\":1312:1375   */\n    tag_192:\n        /* \"#utility.yul\":1259:1381   */\n      pop\n      jump\t// out\n        /* \"#utility.yul\":1387:1526   */\n    tag_129:\n        /* \"#utility.yul\":1433:1438   */\n      0x00\n        /* \"#utility.yul\":1471:1477   */\n      dup2\n        /* \"#utility.yul\":1458:1478   */\n      calldataload\n        /* \"#utility.yul\":1449:1478   */\n      swap1\n      pop\n        /* \"#utility.yul\":1487:1520   */\n      tag_194\n        /* \"#utility.yul\":1514:1519   */\n      dup2\n        /* \"#utility.yul\":1487:1520   */\n      tag_128\n      jump\t// in\n    tag_194:\n        /* \"#utility.yul\":1387:1526   */\n      swap3\n      swap2\n      pop\n      pop\n      jump\t// out\n        /* \"#utility.yul\":1532:1861   */\n    tag_19:\n        /* \"#utility.yul\":1591:1597   */\n      0x00\n        /* \"#utility.yul\":1640:1642   */\n      0x20\n        /* \"#utility.yul\":1628:1637   */\n      dup3\n        /* \"#utility.yul\":1619:1626   */\n      dup5\n        /* \"#utility.yul\":1615:1638   */\n      sub\n        /* \"#utility.yul\":1611:1643   */\n      slt\n        /* \"#utility.yul\":1608:1727   */\n      iszero\n      tag_196\n      jumpi\n        /* \"#utility.yul\":1646:1725   */\n      tag_197\n      tag_121\n      jump\t// in\n    tag_197:\n        /* \"#utility.yul\":1608:1727   */\n    tag_196:\n        /* \"#utility.yul\":1766:1767   */\n      0x00\n        /* \"#utility.yul\":1791:1844   */\n      tag_198\n        /* \"#utility.yul\":1836:1843   */\n      dup5\n        /* \"#utility.yul\":1827:1833   */\n      dup3\n        /* \"#utility.yul\":1816:1825   */\n      dup6\n        /* \"#utility.yul\":1812:1834   */\n      add\n        /* \"#utility.yul\":1791:1844   */\n      tag_129\n      jump\t// in\n    tag_198:\n        /* \"#utility.yul\":1781:1844   */\n      swap2\n      pop\n        /* \"#utility.yul\":1737:1854   */\n      pop\n        /* \"#utility.yul\":1532:1861   */\n      swap3\n      swap2\n      pop\n      pop\n      jump\t// out\n        /* \"#utility.yul\":1867:1957   */\n    tag_130:\n        /* \"#utility.yul\":1901:1908   */\n      0x00\n        /* \"#utility.yul\":1944:1949   */\n      dup2\n        /* \"#utility.yul\":1937:1950   */\n      iszero\n        /* \"#utility.yul\":1930:1951   */\n      iszero\n        /* \"#utility.yul\":1919:1951   */\n      swap1\n      pop\n        /* \"#utility.yul\":1867:1957   */\n      swap2\n      swap1\n      pop\n      jump\t// out\n        /* \"#utility.yul\":1963:2072   */\n    tag_131:\n        /* \"#utility.yul\":2044:2065   */\n      tag_201\n        /* \"#utility.yul\":2059:2064   */\n      dup2\n        /* \"#utility.yul\":2044:2065   */\n      tag_130\n      jump\t// in\n    tag_201:\n        /* \"#utility.yul\":2039:2042   */\n      dup3\n        /* \"#utility.yul\":2032:2066   */\n      mstore\n        /* \"#utility.yul\":1963:2072   */\n      pop\n      pop\n      jump\t// out\n        /* \"#utility.yul\":2078:2288   */\n    tag_22:\n        /* \"#utility.yul\":2165:2169   */\n      0x00\n        /* \"#utility.yul\":2203:2205   */\n      0x20\n        /* \"#utility.yul\":2192:2201   */\n      dup3\n        /* \"#utility.yul\":2188:2206   */\n      add\n        /* \"#utility.yul\":2180:2206   */\n      swap1\n      pop\n        /* \"#utility.yul\":2216:2281   */\n      tag_203\n        /* \"#utility.yul\":2278:2279   */\n      0x00\n        /* \"#utility.yul\":2267:2276   */\n      dup4\n        /* \"#utility.yul\":2263:2280   */\n      add\n        /* \"#utility.yul\":2254:2260   */\n      dup5\n        /* \"#utility.yul\":2216:2281   */\n      tag_131\n      jump\t// in\n    tag_203:\n        /* \"#utility.yul\":2078:2288   */\n      swap3\n      swap2\n      pop\n      pop\n      jump\t// out\n        /* \"#utility.yul\":2294:2412   */\n    tag_132:\n        /* \"#utility.yul\":2381:2405   */\n      tag_205\n        /* \"#utility.yul\":2399:2404   */\n      dup2\n        /* \"#utility.yul\":2381:2405   */\n      tag_123\n      jump\t// in\n    tag_205:\n        /* \"#utility.yul\":2376:2379   */\n      dup3\n        /* \"#utility.yul\":2369:2406   */\n      mstore\n        /* \"#utility.yul\":2294:2412   */\n      pop\n      pop\n      jump\t// out\n        /* \"#utility.yul\":2418:2640   */\n    tag_26:\n        /* \"#utility.yul\":2511:2515   */\n      0x00\n        /* \"#utility.yul\":2549:2551   */\n      0x20\n        /* \"#utility.yul\":2538:2547   */\n      dup3\n        /* \"#utility.yul\":2534:2552   */\n      add\n        /* \"#utility.yul\":2526:2552   */\n      swap1\n      pop\n        /* \"#utility.yul\":2562:2633   */\n      tag_207\n        /* \"#utility.yul\":2630:2631   */\n      0x00\n        /* \"#utility.yul\":2619:2628   */\n      dup4\n        /* \"#utility.yul\":2615:2632   */\n      add\n        /* \"#utility.yul\":2606:2612   */\n      dup5\n        /* \"#utility.yul\":2562:2633   */\n      tag_132\n      jump\t// in\n    tag_207:\n        /* \"#utility.yul\":2418:2640   */\n      swap3\n      swap2\n      pop\n      pop\n      jump\t// out\n        /* \"#utility.yul\":2646:2745   */\n    tag_133:\n        /* \"#utility.yul\":2698:2704   */\n      0x00\n        /* \"#utility.yul\":2732:2737   */\n      dup2\n        /* \"#utility.yul\":2726:2738   */\n      mload\n        /* \"#utility.yul\":2716:2738   */\n      swap1\n      pop\n        /* \"#utility.yul\":2646:2745   */\n      swap2\n      swap1\n      pop\n      jump\t// out\n        /* \"#utility.yul\":2751:2920   */\n    tag_134:\n        /* \"#utility.yul\":2835:2846   */\n      0x00\n        /* \"#utility.yul\":2869:2875   */\n      dup3\n        /* \"#utility.yul\":2864:2867   */\n      dup3\n        /* \"#utility.yul\":2857:2876   */\n      mstore\n        /* \"#utility.yul\":2909:2913   */\n      0x20\n        /* \"#utility.yul\":2904:2907   */\n      dup3\n        /* \"#utility.yul\":2900:2914   */\n      add\n        /* \"#utility.yul\":2885:2914   */\n      swap1\n      pop\n        /* \"#utility.yul\":2751:2920   */\n      swap3\n      swap2\n      pop\n      pop\n      jump\t// out\n        /* \"#utility.yul\":2926:3065   */\n    tag_135:\n        /* \"#utility.yul\":3015:3021   */\n      dup3\n        /* \"#utility.yul\":3010:3013   */\n      dup2\n        /* \"#utility.yul\":3005:3008   */\n      dup4\n        /* \"#utility.yul\":2999:3022   */\n      mcopy\n        /* \"#utility.yul\":3056:3057   */\n      0x00\n        /* \"#utility.yul\":3047:3053   */\n      dup4\n        /* \"#utility.yul\":3042:3045   */\n      dup4\n        /* \"#utility.yul\":3038:3054   */\n      add\n        /* \"#utility.yul\":3031:3058   */\n      mstore\n        /* \"#utility.yul\":2926:3065   */\n      pop\n      pop\n      pop\n      jump\t// out\n        /* \"#utility.yul\":3071:3173   */\n    tag_136:\n        /* \"#utility.yul\":3112:3118   */\n      0x00\n        /* \"#utility.yul\":3163:3165   */\n      0x1f\n        /* \"#utility.yul\":3159:3166   */\n      not\n        /* \"#utility.yul\":3154:3156   */\n      0x1f\n        /* \"#utility.yul\":3147:3152   */\n      dup4\n        /* \"#utility.yul\":3143:3157   */\n      add\n        /* \"#utility.yul\":3139:3167   */\n      and\n        /* \"#utility.yul\":3129:3167   */\n      swap1\n      pop\n        /* \"#utility.yul\":3071:3173   */\n      swap2\n      swap1\n      pop\n      jump\t// out\n        /* \"#utility.yul\":3179:3556   */\n    tag_137:\n        /* \"#utility.yul\":3267:3270   */\n      0x00\n        /* \"#utility.yul\":3295:3334   */\n      tag_213\n        /* \"#utility.yul\":3328:3333   */\n      dup3\n        /* \"#utility.yul\":3295:3334   */\n      tag_133\n      jump\t// in\n    tag_213:\n        /* \"#utility.yul\":3350:3421   */\n      tag_214\n        /* \"#utility.yul\":3414:3420   */\n      dup2\n        /* \"#utility.yul\":3409:3412   */\n      dup6\n        /* \"#utility.yul\":3350:3421   */\n      tag_134\n      jump\t// in\n    tag_214:\n        /* \"#utility.yul\":3343:3421   */\n      swap4\n      pop\n        /* \"#utility.yul\":3430:3495   */\n      tag_215\n        /* \"#utility.yul\":3488:3494   */\n      dup2\n        /* \"#utility.yul\":3483:3486   */\n      dup6\n        /* \"#utility.yul\":3476:3480   */\n      0x20\n        /* \"#utility.yul\":3469:3474   */\n      dup7\n        /* \"#utility.yul\":3465:3481   */\n      add\n        /* \"#utility.yul\":3430:3495   */\n      tag_135\n      jump\t// in\n    tag_215:\n        /* \"#utility.yul\":3520:3549   */\n      tag_216\n        /* \"#utility.yul\":3542:3548   */\n      dup2\n        /* \"#utility.yul\":3520:3549   */\n      tag_136\n      jump\t// in\n    tag_216:\n        /* \"#utility.yul\":3515:3518   */\n      dup5\n        /* \"#utility.yul\":3511:3550   */\n      add\n        /* \"#utility.yul\":3504:3550   */\n      swap2\n      pop\n        /* \"#utility.yul\":3271:3556   */\n      pop\n        /* \"#utility.yul\":3179:3556   */\n      swap3\n      swap2\n      pop\n      pop\n      jump\t// out\n        /* \"#utility.yul\":3562:3985   */\n    tag_31:\n        /* \"#utility.yul\":3703:3707   */\n      0x00\n        /* \"#utility.yul\":3741:3743   */\n      0x40\n        /* \"#utility.yul\":3730:3739   */\n      dup3\n        /* \"#utility.yul\":3726:3744   */\n      add\n        /* \"#utility.yul\":3718:3744   */\n      swap1\n      pop\n        /* \"#utility.yul\":3790:3799   */\n      dup2\n        /* \"#utility.yul\":3784:3788   */\n      dup2\n        /* \"#utility.yul\":3780:3800   */\n      sub\n        /* \"#utility.yul\":3776:3777   */\n      0x00\n        /* \"#utility.yul\":3765:3774   */\n      dup4\n        /* \"#utility.yul\":3761:3778   */\n      add\n        /* \"#utility.yul\":3754:3801   */\n      mstore\n        /* \"#utility.yul\":3818:3896   */\n      tag_218\n        /* \"#utility.yul\":3891:3895   */\n      dup2\n        /* \"#utility.yul\":3882:3888   */\n      dup6\n        /* \"#utility.yul\":3818:3896   */\n      tag_137\n      jump\t// in\n    tag_218:\n        /* \"#utility.yul\":3810:3896   */\n      swap1\n      pop\n        /* \"#utility.yul\":3906:3978   */\n      tag_219\n        /* \"#utility.yul\":3974:3976   */\n      0x20\n        /* \"#utility.yul\":3963:3972   */\n      dup4\n        /* \"#utility.yul\":3959:3977   */\n      add\n        /* \"#utility.yul\":3950:3956   */\n      dup5\n        /* \"#utility.yul\":3906:3978   */\n      tag_132\n      jump\t// in\n    tag_219:\n        /* \"#utility.yul\":3562:3985   */\n      swap4\n      swap3\n      pop\n      pop\n      pop\n      jump\t// out\n        /* \"#utility.yul\":3991:4108   */\n    tag_138:\n        /* \"#utility.yul\":4100:4101   */\n      0x00\n        /* \"#utility.yul\":4097:4098   */\n      0x00\n        /* \"#utility.yul\":4090:4102   */\n      revert\n        /* \"#utility.yul\":4114:4231   */\n    tag_139:\n        /* \"#utility.yul\":4223:4224   */\n      0x00\n        /* \"#utility.yul\":4220:4221   */\n      0x00\n        /* \"#utility.yul\":4213:4225   */\n      revert\n        /* \"#utility.yul\":4237:4417   */\n    tag_140:\n        /* \"#utility.yul\":4285:4362   */\n      0x4e487b7100000000000000000000000000000000000000000000000000000000\n        /* \"#utility.yul\":4282:4283   */\n      0x00\n        /* \"#utility.yul\":4275:4363   */\n      mstore\n        /* \"#utility.yul\":4382:4386   */\n      0x41\n        /* \"#utility.yul\":4379:4380   */\n      0x04\n        /* \"#utility.yul\":4372:4387   */\n      mstore\n        /* \"#utility.yul\":4406:4410   */\n      0x24\n        /* \"#utility.yul\":4403:4404   */\n      0x00\n        /* \"#utility.yul\":4396:4411   */\n      revert\n        /* \"#utility.yul\":4423:4704   */\n    tag_141:\n        /* \"#utility.yul\":4506:4533   */\n      tag_224\n        /* \"#utility.yul\":4528:4532   */\n      dup3\n        /* \"#utility.yul\":4506:4533   */\n      tag_136\n      jump\t// in\n    tag_224:\n        /* \"#utility.yul\":4498:4504   */\n      dup2\n        /* \"#utility.yul\":4494:4534   */\n      add\n        /* \"#utility.yul\":4636:4642   */\n      dup2\n        /* \"#utility.yul\":4624:4634   */\n      dup2\n        /* \"#utility.yul\":4621:4643   */\n      lt\n        /* \"#utility.yul\":4600:4618   */\n      0xffffffffffffffff\n        /* \"#utility.yul\":4588:4598   */\n      dup3\n        /* \"#utility.yul\":4585:4619   */\n      gt\n        /* \"#utility.yul\":4582:4644   */\n      or\n        /* \"#utility.yul\":4579:4667   */\n      iszero\n      tag_225\n      jumpi\n        /* \"#utility.yul\":4647:4665   */\n      tag_226\n      tag_140\n      jump\t// in\n    tag_226:\n        /* \"#utility.yul\":4579:4667   */\n    tag_225:\n        /* \"#utility.yul\":4687:4697   */\n      dup1\n        /* \"#utility.yul\":4683:4685   */\n      0x40\n        /* \"#utility.yul\":4676:4698   */\n      mstore\n        /* \"#utility.yul\":4466:4704   */\n      pop\n        /* \"#utility.yul\":4423:4704   */\n      pop\n      pop\n      jump\t// out\n        /* \"#utility.yul\":4710:4839   */\n    tag_142:\n        /* \"#utility.yul\":4744:4750   */\n      0x00\n        /* \"#utility.yul\":4771:4791   */\n      tag_228\n      tag_120\n      jump\t// in\n    tag_228:\n        /* \"#utility.yul\":4761:4791   */\n      swap1\n      pop\n        /* \"#utility.yul\":4800:4833   */\n      tag_229\n        /* \"#utility.yul\":4828:4832   */\n      dup3\n        /* \"#utility.yul\":4820:4826   */\n      dup3\n        /* \"#utility.yul\":4800:4833   */\n      tag_141\n      jump\t// in\n    tag_229:\n        /* \"#utility.yul\":4710:4839   */\n      swap2\n      swap1\n      pop\n      jump\t// out\n        /* \"#utility.yul\":4845:5153   */\n    tag_143:\n        /* \"#utility.yul\":4907:4911   */\n      0x00\n        /* \"#utility.yul\":4997:5015   */\n      0xffffffffffffffff\n        /* \"#utility.yul\":4989:4995   */\n      dup3\n        /* \"#utility.yul\":4986:5016   */\n      gt\n        /* \"#utility.yul\":4983:5039   */\n      iszero\n      tag_231\n      jumpi\n        /* \"#utility.yul\":5019:5037   */\n      tag_232\n      tag_140\n      jump\t// in\n    tag_232:\n        /* \"#utility.yul\":4983:5039   */\n    tag_231:\n        /* \"#utility.yul\":5057:5086   */\n      tag_233\n        /* \"#utility.yul\":5079:5085   */\n      dup3\n        /* \"#utility.yul\":5057:5086   */\n      tag_136\n      jump\t// in\n    tag_233:\n        /* \"#utility.yul\":5049:5086   */\n      swap1\n      pop\n        /* \"#utility.yul\":5141:5145   */\n      0x20\n        /* \"#utility.yul\":5135:5139   */\n      dup2\n        /* \"#utility.yul\":5131:5146   */\n      add\n        /* \"#utility.yul\":5123:5146   */\n      swap1\n      pop\n        /* \"#utility.yul\":4845:5153   */\n      swap2\n      swap1\n      pop\n      jump\t// out\n        /* \"#utility.yul\":5159:5307   */\n    tag_144:\n        /* \"#utility.yul\":5257:5263   */\n      dup3\n        /* \"#utility.yul\":5252:5255   */\n      dup2\n        /* \"#utility.yul\":5247:5250   */\n      dup4\n        /* \"#utility.yul\":5234:5264   */\n      calldatacopy\n        /* \"#utility.yul\":5298:5299   */\n      0x00\n        /* \"#utility.yul\":5289:5295   */\n      dup4\n        /* \"#utility.yul\":5284:5287   */\n      dup4\n        /* \"#utility.yul\":5280:5296   */\n      add\n        /* \"#utility.yul\":5273:5300   */\n      mstore\n        /* \"#utility.yul\":5159:5307   */\n      pop\n      pop\n      pop\n      jump\t// out\n        /* \"#utility.yul\":5313:5738   */\n    tag_145:\n        /* \"#utility.yul\":5391:5396   */\n      0x00\n        /* \"#utility.yul\":5416:5482   */\n      tag_236\n        /* \"#utility.yul\":5432:5481   */\n      tag_237\n        /* \"#utility.yul\":5474:5480   */\n      dup5\n        /* \"#utility.yul\":5432:5481   */\n      tag_143\n      jump\t// in\n    tag_237:\n        /* \"#utility.yul\":5416:5482   */\n      tag_142\n      jump\t// in\n    tag_236:\n        /* \"#utility.yul\":5407:5482   */\n      swap1\n      pop\n        /* \"#utility.yul\":5505:5511   */\n      dup3\n        /* \"#utility.yul\":5498:5503   */\n      dup2\n        /* \"#utility.yul\":5491:5512   */\n      mstore\n        /* \"#utility.yul\":5543:5547   */\n      0x20\n        /* \"#utility.yul\":5536:5541   */\n      dup2\n        /* \"#utility.yul\":5532:5548   */\n      add\n        /* \"#utility.yul\":5581:5584   */\n      dup5\n        /* \"#utility.yul\":5572:5578   */\n      dup5\n        /* \"#utility.yul\":5567:5570   */\n      dup5\n        /* \"#utility.yul\":5563:5579   */\n      add\n        /* \"#utility.yul\":5560:5585   */\n      gt\n        /* \"#utility.yul\":5557:5669   */\n      iszero\n      tag_238\n      jumpi\n        /* \"#utility.yul\":5588:5667   */\n      tag_239\n      tag_139\n      jump\t// in\n    tag_239:\n        /* \"#utility.yul\":5557:5669   */\n    tag_238:\n        /* \"#utility.yul\":5678:5732   */\n      tag_240\n        /* \"#utility.yul\":5725:5731   */\n      dup5\n        /* \"#utility.yul\":5720:5723   */\n      dup3\n        /* \"#utility.yul\":5715:5718   */\n      dup6\n        /* \"#utility.yul\":5678:5732   */\n      tag_144\n      jump\t// in\n    tag_240:\n        /* \"#utility.yul\":5397:5738   */\n      pop\n        /* \"#utility.yul\":5313:5738   */\n      swap4\n      swap3\n      pop\n      pop\n      pop\n      jump\t// out\n        /* \"#utility.yul\":5758:6098   */\n    tag_146:\n        /* \"#utility.yul\":5814:5819   */\n      0x00\n        /* \"#utility.yul\":5863:5866   */\n      dup3\n        /* \"#utility.yul\":5856:5860   */\n      0x1f\n        /* \"#utility.yul\":5848:5854   */\n      dup4\n        /* \"#utility.yul\":5844:5861   */\n      add\n        /* \"#utility.yul\":5840:5867   */\n      slt\n        /* \"#utility.yul\":5830:5952   */\n      tag_242\n      jumpi\n        /* \"#utility.yul\":5871:5950   */\n      tag_243\n      tag_138\n      jump\t// in\n    tag_243:\n        /* \"#utility.yul\":5830:5952   */\n    tag_242:\n        /* \"#utility.yul\":5988:5994   */\n      dup2\n        /* \"#utility.yul\":5975:5995   */\n      calldataload\n        /* \"#utility.yul\":6013:6092   */\n      tag_244\n        /* \"#utility.yul\":6088:6091   */\n      dup5\n        /* \"#utility.yul\":6080:6086   */\n      dup3\n        /* \"#utility.yul\":6073:6077   */\n      0x20\n        /* \"#utility.yul\":6065:6071   */\n      dup7\n        /* \"#utility.yul\":6061:6078   */\n      add\n        /* \"#utility.yul\":6013:6092   */\n      tag_145\n      jump\t// in\n    tag_244:\n        /* \"#utility.yul\":6004:6092   */\n      swap2\n      pop\n        /* \"#utility.yul\":5820:6098   */\n      pop\n        /* \"#utility.yul\":5758:6098   */\n      swap3\n      swap2\n      pop\n      pop\n      jump\t// out\n        /* \"#utility.yul\":6104:6613   */\n    tag_34:\n        /* \"#utility.yul\":6173:6179   */\n      0x00\n        /* \"#utility.yul\":6222:6224   */\n      0x20\n        /* \"#utility.yul\":6210:6219   */\n      dup3\n        /* \"#utility.yul\":6201:6208   */\n      dup5\n        /* \"#utility.yul\":6197:6220   */\n      sub\n        /* \"#utility.yul\":6193:6225   */\n      slt\n        /* \"#utility.yul\":6190:6309   */\n      iszero\n      tag_246\n      jumpi\n        /* \"#utility.yul\":6228:6307   */\n      tag_247\n      tag_121\n      jump\t// in\n    tag_247:\n        /* \"#utility.yul\":6190:6309   */\n    tag_246:\n        /* \"#utility.yul\":6376:6377   */\n      0x00\n        /* \"#utility.yul\":6365:6374   */\n      dup3\n        /* \"#utility.yul\":6361:6378   */\n      add\n        /* \"#utility.yul\":6348:6379   */\n      calldataload\n        /* \"#utility.yul\":6406:6424   */\n      0xffffffffffffffff\n        /* \"#utility.yul\":6398:6404   */\n      dup2\n        /* \"#utility.yul\":6395:6425   */\n      gt\n        /* \"#utility.yul\":6392:6509   */\n      iszero\n      tag_248\n      jumpi\n        /* \"#utility.yul\":6428:6507   */\n      tag_249\n      tag_122\n      jump\t// in\n    tag_249:\n        /* \"#utility.yul\":6392:6509   */\n    tag_248:\n        /* \"#utility.yul\":6533:6596   */\n      tag_250\n        /* \"#utility.yul\":6588:6595   */\n      dup5\n        /* \"#utility.yul\":6579:6585   */\n      dup3\n        /* \"#utility.yul\":6568:6577   */\n      dup6\n        /* \"#utility.yul\":6564:6586   */\n      add\n        /* \"#utility.yul\":6533:6596   */\n      tag_146\n      jump\t// in\n    tag_250:\n        /* \"#utility.yul\":6523:6596   */\n      swap2\n      pop\n        /* \"#utility.yul\":6319:6606   */\n      pop\n        /* \"#utility.yul\":6104:6613   */\n      swap3\n      swap2\n      pop\n      pop\n      jump\t// out\n        /* \"#utility.yul\":6619:6737   */\n    tag_147:\n        /* \"#utility.yul\":6706:6730   */\n      tag_252\n        /* \"#utility.yul\":6724:6729   */\n      dup2\n        /* \"#utility.yul\":6706:6730   */\n      tag_127\n      jump\t// in\n    tag_252:\n        /* \"#utility.yul\":6701:6704   */\n      dup3\n        /* \"#utility.yul\":6694:6731   */\n      mstore\n        /* \"#utility.yul\":6619:6737   */\n      pop\n      pop\n      jump\t// out\n        /* \"#utility.yul\":6743:6965   */\n    tag_44:\n        /* \"#utility.yul\":6836:6840   */\n      0x00\n        /* \"#utility.yul\":6874:6876   */\n      0x20\n        /* \"#utility.yul\":6863:6872   */\n      dup3\n        /* \"#utility.yul\":6859:6877   */\n      add\n        /* \"#utility.yul\":6851:6877   */\n      swap1\n      pop\n        /* \"#utility.yul\":6887:6958   */\n      tag_254\n        /* \"#utility.yul\":6955:6956   */\n      0x00\n        /* \"#utility.yul\":6944:6953   */\n      dup4\n        /* \"#utility.yul\":6940:6957   */\n      add\n        /* \"#utility.yul\":6931:6937   */\n      dup5\n        /* \"#utility.yul\":6887:6958   */\n      tag_147\n      jump\t// in\n    tag_254:\n        /* \"#utility.yul\":6743:6965   */\n      swap3\n      swap2\n      pop\n      pop\n      jump\t// out\n        /* \"#utility.yul\":6971:7134   */\n    tag_148:\n        /* \"#utility.yul\":7111:7126   */\n      0x416c726561647920766f74656400000000000000000000000000000000000000\n        /* \"#utility.yul\":7107:7108   */\n      0x00\n        /* \"#utility.yul\":7099:7105   */\n      dup3\n        /* \"#utility.yul\":7095:7109   */\n      add\n        /* \"#utility.yul\":7088:7127   */\n      mstore\n        /* \"#utility.yul\":6971:7134   */\n      pop\n      jump\t// out\n        /* \"#utility.yul\":7140:7506   */\n    tag_149:\n        /* \"#utility.yul\":7282:7285   */\n      0x00\n        /* \"#utility.yul\":7303:7370   */\n      tag_257\n        /* \"#utility.yul\":7367:7369   */\n      0x0d\n        /* \"#utility.yul\":7362:7365   */\n      dup4\n        /* \"#utility.yul\":7303:7370   */\n      tag_134\n      jump\t// in\n    tag_257:\n        /* \"#utility.yul\":7296:7370   */\n      swap2\n      pop\n        /* \"#utility.yul\":7379:7472   */\n      tag_258\n        /* \"#utility.yul\":7468:7471   */\n      dup3\n        /* \"#utility.yul\":7379:7472   */\n      tag_148\n      jump\t// in\n    tag_258:\n        /* \"#utility.yul\":7497:7499   */\n      0x20\n        /* \"#utility.yul\":7492:7495   */\n      dup3\n        /* \"#utility.yul\":7488:7500   */\n      add\n        /* \"#utility.yul\":7481:7500   */\n      swap1\n      pop\n        /* \"#utility.yul\":7140:7506   */\n      swap2\n      swap1\n      pop\n      jump\t// out\n        /* \"#utility.yul\":7512:7931   */\n    tag_51:\n        /* \"#utility.yul\":7678:7682   */\n      0x00\n        /* \"#utility.yul\":7716:7718   */\n      0x20\n        /* \"#utility.yul\":7705:7714   */\n      dup3\n        /* \"#utility.yul\":7701:7719   */\n      add\n        /* \"#utility.yul\":7693:7719   */\n      swap1\n      pop\n        /* \"#utility.yul\":7765:7774   */\n      dup2\n        /* \"#utility.yul\":7759:7763   */\n      dup2\n        /* \"#utility.yul\":7755:7775   */\n      sub\n        /* \"#utility.yul\":7751:7752   */\n      0x00\n        /* \"#utility.yul\":7740:7749   */\n      dup4\n        /* \"#utility.yul\":7736:7753   */\n      add\n        /* \"#utility.yul\":7729:7776   */\n      mstore\n        /* \"#utility.yul\":7793:7924   */\n      tag_260\n        /* \"#utility.yul\":7919:7923   */\n      dup2\n        /* \"#utility.yul\":7793:7924   */\n      tag_149\n      jump\t// in\n    tag_260:\n        /* \"#utility.yul\":7785:7924   */\n      swap1\n      pop\n        /* \"#utility.yul\":7512:7931   */\n      swap2\n      swap1\n      pop\n      jump\t// out\n        /* \"#utility.yul\":7937:8104   */\n    tag_150:\n        /* \"#utility.yul\":8077:8096   */\n      0x496e76616c69642063616e646964617465000000000000000000000000000000\n        /* \"#utility.yul\":8073:8074   */\n      0x00\n        /* \"#utility.yul\":8065:8071   */\n      dup3\n        /* \"#utility.yul\":8061:8075   */\n      add\n        /* \"#utility.yul\":8054:8097   */\n      mstore\n        /* \"#utility.yul\":7937:8104   */\n      pop\n      jump\t// out\n        /* \"#utility.yul\":8110:8476   */\n    tag_151:\n        /* \"#utility.yul\":8252:8255   */\n      0x00\n        /* \"#utility.yul\":8273:8340   */\n      tag_263\n        /* \"#utility.yul\":8337:8339   */\n      0x11\n        /* \"#utility.yul\":8332:8335   */\n      dup4\n        /* \"#utility.yul\":8273:8340   */\n      tag_134\n      jump\t// in\n    tag_263:\n        /* \"#utility.yul\":8266:8340   */\n      swap2\n      pop\n        /* \"#utility.yul\":8349:8442   */\n      tag_264\n        /* \"#utility.yul\":8438:8441   */\n      dup3\n        /* \"#utility.yul\":8349:8442   */\n      tag_150\n      jump\t// in\n    tag_264:\n        /* \"#utility.yul\":8467:8469   */\n      0x20\n        /* \"#utility.yul\":8462:8465   */\n      dup3\n        /* \"#utility.yul\":8458:8470   */\n      add\n        /* \"#utility.yul\":8451:8470   */\n      swap1\n      pop\n        /* \"#utility.yul\":8110:8476   */\n      swap2\n      swap1\n      pop\n      jump\t// out\n        /* \"#utility.yul\":8482:8901   */\n    tag_54:\n        /* \"#utility.yul\":8648:8652   */\n      0x00\n        /* \"#utility.yul\":8686:8688   */\n      0x20\n        /* \"#utility.yul\":8675:8684   */\n      dup3\n        /* \"#utility.yul\":8671:8689   */\n      add\n        /* \"#utility.yul\":8663:8689   */\n      swap1\n      pop\n        /* \"#utility.yul\":8735:8744   */\n      dup2\n        /* \"#utility.yul\":8729:8733   */\n      dup2\n        /* \"#utility.yul\":8725:8745   */\n      sub\n        /* \"#utility.yul\":8721:8722   */\n      0x00\n        /* \"#utility.yul\":8710:8719   */\n      dup4\n        /* \"#utility.yul\":8706:8723   */\n      add\n        /* \"#utility.yul\":8699:8746   */\n      mstore\n        /* \"#utility.yul\":8763:8894   */\n      tag_266\n        /* \"#utility.yul\":8889:8893   */\n      dup2\n        /* \"#utility.yul\":8763:8894   */\n      tag_151\n      jump\t// in\n    tag_266:\n        /* \"#utility.yul\":8755:8894   */\n      swap1\n      pop\n        /* \"#utility.yul\":8482:8901   */\n      swap2\n      swap1\n      pop\n      jump\t// out\n        /* \"#utility.yul\":8907:9087   */\n    tag_57:\n        /* \"#utility.yul\":8955:9032   */\n      0x4e487b7100000000000000000000000000000000000000000000000000000000\n        /* \"#utility.yul\":8952:8953   */\n      0x00\n        /* \"#utility.yul\":8945:9033   */\n      mstore\n        /* \"#utility.yul\":9052:9056   */\n      0x32\n        /* \"#utility.yul\":9049:9050   */\n      0x04\n        /* \"#utility.yul\":9042:9057   */\n      mstore\n        /* \"#utility.yul\":9076:9080   */\n      0x24\n        /* \"#utility.yul\":9073:9074   */\n      0x00\n        /* \"#utility.yul\":9066:9081   */\n      revert\n        /* \"#utility.yul\":9093:9273   */\n    tag_152:\n        /* \"#utility.yul\":9141:9218   */\n      0x4e487b7100000000000000000000000000000000000000000000000000000000\n        /* \"#utility.yul\":9138:9139   */\n      0x00\n        /* \"#utility.yul\":9131:9219   */\n      mstore\n        /* \"#utility.yul\":9238:9242   */\n      0x11\n        /* \"#utility.yul\":9235:9236   */\n      0x04\n        /* \"#utility.yul\":9228:9243   */\n      mstore\n        /* \"#utility.yul\":9262:9266   */\n      0x24\n        /* \"#utility.yul\":9259:9260   */\n      0x00\n        /* \"#utility.yul\":9252:9267   */\n      revert\n        /* \"#utility.yul\":9279:9512   */\n    tag_60:\n        /* \"#utility.yul\":9318:9321   */\n      0x00\n        /* \"#utility.yul\":9341:9365   */\n      tag_270\n        /* \"#utility.yul\":9359:9364   */\n      dup3\n        /* \"#utility.yul\":9341:9365   */\n      tag_123\n      jump\t// in\n    tag_270:\n        /* \"#utility.yul\":9332:9365   */\n      swap2\n      pop\n        /* \"#utility.yul\":9387:9453   */\n      0xffffffffffffffffffffffffffffffffffffffffffffffffffffffffffffffff\n        /* \"#utility.yul\":9380:9385   */\n      dup3\n        /* \"#utility.yul\":9377:9454   */\n      sub\n        /* \"#utility.yul\":9374:9477   */\n      tag_271\n      jumpi\n        /* \"#utility.yul\":9457:9475   */\n      tag_272\n      tag_152\n      jump\t// in\n    tag_272:\n        /* \"#utility.yul\":9374:9477   */\n    tag_271:\n        /* \"#utility.yul\":9504:9505   */\n      0x01\n        /* \"#utility.yul\":9497:9502   */\n      dup3\n        /* \"#utility.yul\":9493:9506   */\n      add\n        /* \"#utility.yul\":9486:9506   */\n      swap1\n      pop\n        /* \"#utility.yul\":9279:9512   */\n      swap2\n      swap1\n      pop\n      jump\t// out\n        /* \"#utility.yul\":9518:9850   */\n    tag_62:\n        /* \"#utility.yul\":9639:9643   */\n      0x00\n        /* \"#utility.yul\":9677:9679   */\n      0x40\n        /* \"#utility.yul\":9666:9675   */\n      dup3\n        /* \"#utility.yul\":9662:9680   */\n      add\n        /* \"#utility.yul\":9654:9680   */\n      swap1\n      pop\n        /* \"#utility.yul\":9690:9761   */\n      tag_274\n        /* \"#utility.yul\":9758:9759   */\n      0x00\n        /* \"#utility.yul\":9747:9756   */\n      dup4\n        /* \"#utility.yul\":9743:9760   */\n      add\n        /* \"#utility.yul\":9734:9740   */\n      dup6\n        /* \"#utility.yul\":9690:9761   */\n      tag_147\n      jump\t// in\n    tag_274:\n        /* \"#utility.yul\":9771:9843   */\n      tag_275\n        /* \"#utility.yul\":9839:9841   */\n      0x20\n        /* \"#utility.yul\":9828:9837   */\n      dup4\n        /* \"#utility.yul\":9824:9842   */\n      add\n        /* \"#utility.yul\":9815:9821   */\n      dup5\n        /* \"#utility.yul\":9771:9843   */\n      tag_132\n      jump\t// in\n    tag_275:\n        /* \"#utility.yul\":9518:9850   */\n      swap4\n      swap3\n      pop\n      pop\n      pop\n      jump\t// out\n        /* \"#utility.yul\":9856:10036   */\n    tag_153:\n        /* \"#utility.yul\":9904:9981   */\n      0x4e487b7100000000000000000000000000000000000000000000000000000000\n        /* \"#utility.yul\":9901:9902   */\n      0x00\n        /* \"#utility.yul\":9894:9982   */\n      mstore\n        /* \"#utility.yul\":10001:10005   */\n      0x22\n        /* \"#utility.yul\":9998:9999   */\n      0x04\n        /* \"#utility.yul\":9991:10006   */\n      mstore\n        /* \"#utility.yul\":10025:10029   */\n      0x24\n        /* \"#utility.yul\":10022:10023   */\n      0x00\n        /* \"#utility.yul\":10015:10030   */\n      revert\n        /* \"#utility.yul\":10042:10362   */\n    tag_67:\n        /* \"#utility.yul\":10086:10092   */\n      0x00\n        /* \"#utility.yul\":10123:10124   */\n      0x02\n        /* \"#utility.yul\":10117:10121   */\n      dup3\n        /* \"#utility.yul\":10113:10125   */\n      div\n        /* \"#utility.yul\":10103:10125   */\n      swap1\n      pop\n        /* \"#utility.yul\":10170:10171   */\n      0x01\n        /* \"#utility.yul\":10164:10168   */\n      dup3\n        /* \"#utility.yul\":10160:10172   */\n      and\n        /* \"#utility.yul\":10191:10209   */\n      dup1\n        /* \"#utility.yul\":10181:10262   */\n      tag_278\n      jumpi\n        /* \"#utility.yul\":10247:10251   */\n      0x7f\n        /* \"#utility.yul\":10239:10245   */\n      dup3\n        /* \"#utility.yul\":10235:10252   */\n      and\n        /* \"#utility.yul\":10225:10252   */\n      swap2\n      pop\n        /* \"#utility.yul\":10181:10262   */\n    tag_278:\n        /* \"#utility.yul\":10309:10311   */\n      0x20\n        /* \"#utility.yul\":10301:10307   */\n      dup3\n        /* \"#utility.yul\":10298:10312   */\n      lt\n        /* \"#utility.yul\":10278:10296   */\n      dup2\n        /* \"#utility.yul\":10275:10313   */\n      sub\n        /* \"#utility.yul\":10272:10356   */\n      tag_279\n      jumpi\n        /* \"#utility.yul\":10328:10346   */\n      tag_280\n      tag_153\n      jump\t// in\n    tag_280:\n        /* \"#utility.yul\":10272:10356   */\n    tag_279:\n        /* \"#utility.yul\":10093:10362   */\n      pop\n        /* \"#utility.yul\":10042:10362   */\n      swap2\n      swap1\n      pop\n      jump\t// out\n        /* \"#utility.yul\":10368:10516   */\n    tag_154:\n        /* \"#utility.yul\":10470:10481   */\n      0x00\n        /* \"#utility.yul\":10507:10510   */\n      dup2\n        /* \"#utility.yul\":10492:10510   */\n      swap1\n      pop\n        /* \"#utility.yul\":10368:10516   */\n      swap3\n      swap2\n      pop\n      pop\n      jump\t// out\n        /* \"#utility.yul\":10522:10912   */\n    tag_155:\n        /* \"#utility.yul\":10628:10631   */\n      0x00\n        /* \"#utility.yul\":10656:10695   */\n      tag_283\n        /* \"#utility.yul\":10689:10694   */\n      dup3\n        /* \"#utility.yul\":10656:10695   */\n      tag_133\n      jump\t// in\n    tag_283:\n        /* \"#utility.yul\":10711:10800   */\n      tag_284\n        /* \"#utility.yul\":10793:10799   */\n      dup2\n        /* \"#utility.yul\":10788:10791   */\n      dup6\n        /* \"#utility.yul\":10711:10800   */\n      tag_154\n      jump\t// in\n    tag_284:\n        /* \"#utility.yul\":10704:10800   */\n      swap4\n      pop\n        /* \"#utility.yul\":10809:10874   */\n      tag_285\n        /* \"#utility.yul\":10867:10873   */\n      dup2\n        /* \"#utility.yul\":10862:10865   */\n      dup6\n        /* \"#utility.yul\":10855:10859   */\n      0x20\n        /* \"#utility.yul\":10848:10853   */\n      dup7\n        /* \"#utility.yul\":10844:10860   */\n      add\n        /* \"#utility.yul\":10809:10874   */\n      tag_135\n      jump\t// in\n    tag_285:\n        /* \"#utility.yul\":10899:10905   */\n      dup1\n        /* \"#utility.yul\":10894:10897   */\n      dup5\n        /* \"#utility.yul\":10890:10906   */\n      add\n        /* \"#utility.yul\":10883:10906   */\n      swap2\n      pop\n        /* \"#utility.yul\":10632:10912   */\n      pop\n        /* \"#utility.yul\":10522:10912   */\n      swap3\n      swap2\n      pop\n      pop\n      jump\t// out\n        /* \"#utility.yul\":10918:11193   */\n    tag_77:\n        /* \"#utility.yul\":11050:11053   */\n      0x00\n        /* \"#utility.yul\":11072:11167   */\n      tag_287\n        /* \"#utility.yul\":11163:11166   */\n      dup3\n        /* \"#utility.yul\":11154:11160   */\n      dup5\n        /* \"#utility.yul\":11072:11167   */\n      tag_155\n      jump\t// in\n    tag_287:\n        /* \"#utility.yul\":11065:11167   */\n      swap2\n      pop\n        /* \"#utility.yul\":11184:11187   */\n      dup2\n        /* \"#utility.yul\":11177:11187   */\n      swap1\n      pop\n        /* \"#utility.yul\":10918:11193   */\n      swap3\n      swap2\n      pop\n      pop\n      jump\t// out\n        /* \"#utility.yul\":11199:11373   */\n    tag_156:\n        /* \"#utility.yul\":11339:11365   */\n      0x43616e64696461746520616c7265616479206578697374730000000000000000\n        /* \"#utility.yul\":11335:11336   */\n      0x00\n        /* \"#utility.yul\":11327:11333   */\n      dup3\n        /* \"#utility.yul\":11323:11337   */\n      add\n        /* \"#utility.yul\":11316:11366   */\n      mstore\n        /* \"#utility.yul\":11199:11373   */\n      pop\n      jump\t// out\n        /* \"#utility.yul\":11379:11745   */\n    tag_157:\n        /* \"#utility.yul\":11521:11524   */\n      0x00\n        /* \"#utility.yul\":11542:11609   */\n      tag_290\n        /* \"#utility.yul\":11606:11608   */\n      0x18\n        /* \"#utility.yul\":11601:11604   */\n      dup4\n        /* \"#utility.yul\":11542:11609   */\n      tag_134\n      jump\t// in\n    tag_290:\n        /* \"#utility.yul\":11535:11609   */\n      swap2\n      pop\n        /* \"#utility.yul\":11618:11711   */\n      tag_291\n        /* \"#utility.yul\":11707:11710   */\n      dup3\n        /* \"#utility.yul\":11618:11711   */\n      tag_156\n      jump\t// in\n    tag_291:\n        /* \"#utility.yul\":11736:11738   */\n      0x20\n        /* \"#utility.yul\":11731:11734   */\n      dup3\n        /* \"#utility.yul\":11727:11739   */\n      add\n        /* \"#utility.yul\":11720:11739   */\n      swap1\n      pop\n        /* \"#utility.yul\":11379:11745   */\n      swap2\n      swap1\n      pop\n      jump\t// out\n        /* \"#utility.yul\":11751:12170   */\n    tag_80:\n        /* \"#utility.yul\":11917:11921   */\n      0x00\n        /* \"#utility.yul\":11955:11957   */\n      0x20\n        /* \"#utility.yul\":11944:11953   */\n      dup3\n        /* \"#utility.yul\":11940:11958   */\n      add\n        /* \"#utility.yul\":11932:11958   */\n      swap1\n      pop\n        /* \"#utility.yul\":12004:12013   */\n      dup2\n        /* \"#utility.yul\":11998:12002   */\n      dup2\n        /* \"#utility.yul\":11994:12014   */\n      sub\n        /* \"#utility.yul\":11990:11991   */\n      0x00\n        /* \"#utility.yul\":11979:11988   */\n      dup4\n        /* \"#utility.yul\":11975:11992   */\n      add\n        /* \"#utility.yul\":11968:12015   */\n      mstore\n        /* \"#utility.yul\":12032:12163   */\n      tag_293\n        /* \"#utility.yul\":12158:12162   */\n      dup2\n        /* \"#utility.yul\":12032:12163   */\n      tag_157\n      jump\t// in\n    tag_293:\n        /* \"#utility.yul\":12024:12163   */\n      swap1\n      pop\n        /* \"#utility.yul\":11751:12170   */\n      swap2\n      swap1\n      pop\n      jump\t// out\n        /* \"#utility.yul\":12176:12317   */\n    tag_158:\n        /* \"#utility.yul\":12225:12229   */\n      0x00\n        /* \"#utility.yul\":12248:12251   */\n      dup2\n        /* \"#utility.yul\":12240:12251   */\n      swap1\n      pop\n        /* \"#utility.yul\":12271:12274   */\n      dup2\n        /* \"#utility.yul\":12268:12269   */\n      0x00\n        /* \"#utility.yul\":12261:12275   */\n      mstore\n        /* \"#utility.yul\":12305:12309   */\n      0x20\n        /* \"#utility.yul\":12302:12303   */\n      0x00\n        /* \"#utility.yul\":12292:12310   */\n      keccak256\n        /* \"#utility.yul\":12284:12310   */\n      swap1\n      pop\n        /* \"#utility.yul\":12176:12317   */\n      swap2\n      swap1\n      pop\n      jump\t// out\n        /* \"#utility.yul\":12323:12416   */\n    tag_159:\n        /* \"#utility.yul\":12360:12366   */\n      0x00\n        /* \"#utility.yul\":12407:12409   */\n      0x20\n        /* \"#utility.yul\":12402:12404   */\n      0x1f\n        /* \"#utility.yul\":12395:12400   */\n      dup4\n        /* \"#utility.yul\":12391:12405   */\n      add\n        /* \"#utility.yul\":12387:12410   */\n      div\n        /* \"#utility.yul\":12377:12410   */\n      swap1\n      pop\n        /* \"#utility.yul\":12323:12416   */\n      swap2\n      swap1\n      pop\n      jump\t// out\n        /* \"#utility.yul\":12422:12529   */\n    tag_160:\n        /* \"#utility.yul\":12466:12474   */\n      0x00\n        /* \"#utility.yul\":12516:12521   */\n      dup3\n        /* \"#utility.yul\":12510:12514   */\n      dup3\n        /* \"#utility.yul\":12506:12522   */\n      shl\n        /* \"#utility.yul\":12485:12522   */\n      swap1\n      pop\n        /* \"#utility.yul\":12422:12529   */\n      swap3\n      swap2\n      pop\n      pop\n      jump\t// out\n        /* \"#utility.yul\":12535:12928   */\n    tag_161:\n        /* \"#utility.yul\":12604:12610   */\n      0x00\n        /* \"#utility.yul\":12654:12655   */\n      0x08\n        /* \"#utility.yul\":12642:12652   */\n      dup4\n        /* \"#utility.yul\":12638:12656   */\n      mul\n        /* \"#utility.yul\":12677:12774   */\n      tag_298\n        /* \"#utility.yul\":12707:12773   */\n      0xffffffffffffffffffffffffffffffffffffffffffffffffffffffffffffffff\n        /* \"#utility.yul\":12696:12705   */\n      dup3\n        /* \"#utility.yul\":12677:12774   */\n      tag_160\n      jump\t// in\n    tag_298:\n        /* \"#utility.yul\":12795:12834   */\n      tag_299\n        /* \"#utility.yul\":12825:12833   */\n      dup7\n        /* \"#utility.yul\":12814:12823   */\n      dup4\n        /* \"#utility.yul\":12795:12834   */\n      tag_160\n      jump\t// in\n    tag_299:\n        /* \"#utility.yul\":12783:12834   */\n      swap6\n      pop\n        /* \"#utility.yul\":12867:12871   */\n      dup1\n        /* \"#utility.yul\":12863:12872   */\n      not\n        /* \"#utility.yul\":12856:12861   */\n      dup5\n        /* \"#utility.yul\":12852:12873   */\n      and\n        /* \"#utility.yul\":12843:12873   */\n      swap4\n      pop\n        /* \"#utility.yul\":12916:12920   */\n      dup1\n        /* \"#utility.yul\":12906:12914   */\n      dup7\n        /* \"#utility.yul\":12902:12921   */\n      and\n        /* \"#utility.yul\":12895:12900   */\n      dup5\n        /* \"#utility.yul\":12892:12922   */\n      or\n        /* \"#utility.yul\":12882:12922   */\n      swap3\n      pop\n        /* \"#utility.yul\":12611:12928   */\n      pop\n      pop\n        /* \"#utility.yul\":12535:12928   */\n      swap4\n      swap3\n      pop\n      pop\n      pop\n      jump\t// out\n        /* \"#utility.yul\":12934:12994   */\n    tag_162:\n        /* \"#utility.yul\":12962:12965   */\n      0x00\n        /* \"#utility.yul\":12983:12988   */\n      dup2\n        /* \"#utility.yul\":12976:12988   */\n      swap1\n      pop\n        /* \"#utility.yul\":12934:12994   */\n      swap2\n      swap1\n      pop\n      jump\t// out\n        /* \"#utility.yul\":13000:13142   */\n    tag_163:\n        /* \"#utility.yul\":13050:13059   */\n      0x00\n        /* \"#utility.yul\":13083:13136   */\n      tag_302\n        /* \"#utility.yul\":13101:13135   */\n      tag_303\n        /* \"#utility.yul\":13110:13134   */\n      tag_304\n        /* \"#utility.yul\":13128:13133   */\n      dup5\n        /* \"#utility.yul\":13110:13134   */\n      tag_123\n      jump\t// in\n    tag_304:\n        /* \"#utility.yul\":13101:13135   */\n      tag_162\n      jump\t// in\n    tag_303:\n        /* \"#utility.yul\":13083:13136   */\n      tag_123\n      jump\t// in\n    tag_302:\n        /* \"#utility.yul\":13070:13136   */\n      swap1\n      pop\n        /* \"#utility.yul\":13000:13142   */\n      swap2\n      swap1\n      pop\n      jump\t// out\n        /* \"#utility.yul\":13148:13223   */\n    tag_164:\n        /* \"#utility.yul\":13191:13194   */\n      0x00\n        /* \"#utility.yul\":13212:13217   */\n      dup2\n        /* \"#utility.yul\":13205:13217   */\n      swap1\n      pop\n        /* \"#utility.yul\":13148:13223   */\n      swap2\n      swap1\n      pop\n      jump\t// out\n        /* \"#utility.yul\":13229:13498   */\n    tag_165:\n        /* \"#utility.yul\":13339:13378   */\n      tag_307\n        /* \"#utility.yul\":13370:13377   */\n      dup4\n        /* \"#utility.yul\":13339:13378   */\n      tag_163\n      jump\t// in\n    tag_307:\n        /* \"#utility.yul\":13400:13491   */\n      tag_308\n        /* \"#utility.yul\":13449:13490   */\n      tag_309\n        /* \"#utility.yul\":13473:13489   */\n      dup3\n        /* \"#utility.yul\":13449:13490   */\n      tag_164\n      jump\t// in\n    tag_309:\n        /* \"#utility.yul\":13441:13447   */\n      dup5\n        /* \"#utility.yul\":13434:13438   */\n      dup5\n        /* \"#utility.yul\":13428:13439   */\n      sload\n        /* \"#utility.yul\":13400:13491   */\n      tag_161\n      jump\t// in\n    tag_308:\n        /* \"#utility.yul\":13394:13398   */\n      dup3\n        /* \"#utility.yul\":13387:13492   */\n      sstore\n        /* \"#utility.yul\":13305:13498   */\n      pop\n        /* \"#utility.yul\":13229:13498   */\n      pop\n      pop\n      pop\n      jump\t// out\n        /* \"#utility.yul\":13504:13577   */\n    tag_166:\n        /* \"#utility.yul\":13549:13552   */\n      0x00\n        /* \"#utility.yul\":13570:13571   */\n      0x00\n        /* \"#utility.yul\":13563:13571   */\n      swap1\n      pop\n        /* \"#utility.yul\":13504:13577   */\n      swap1\n      jump\t// out\n        /* \"#utility.yul\":13583:13772   */\n    tag_167:\n        /* \"#utility.yul\":13660:13692   */\n      tag_312\n      tag_166\n      jump\t// in\n    tag_312:\n        /* \"#utility.yul\":13701:13766   */\n      tag_313\n        /* \"#utility.yul\":13759:13765   */\n      dup2\n        /* \"#utility.yul\":13751:13757   */\n      dup5\n        /* \"#utility.yul\":13745:13749   */\n      dup5\n        /* \"#utility.yul\":13701:13766   */\n      tag_165\n      jump\t// in\n    tag_313:\n        /* \"#utility.yul\":13636:13772   */\n      pop\n        /* \"#utility.yul\":13583:13772   */\n      pop\n      pop\n      jump\t// out\n        /* \"#utility.yul\":13778:13992   */\n    tag_168:\n        /* \"#utility.yul\":13863:13864   */\n      0x00\n        /* \"#utility.yul\":13848:13986   */\n    tag_315:\n        /* \"#utility.yul\":13873:13882   */\n      dup3\n        /* \"#utility.yul\":13870:13871   */\n      dup2\n        /* \"#utility.yul\":13867:13883   */\n      lt\n        /* \"#utility.yul\":13848:13986   */\n      iszero\n      tag_317\n      jumpi\n        /* \"#utility.yul\":13925:13976   */\n      tag_318\n        /* \"#utility.yul\":13974:13975   */\n      0x00\n        /* \"#utility.yul\":13970:13971   */\n      dup3\n        /* \"#utility.yul\":13959:13968   */\n      dup5\n        /* \"#utility.yul\":13955:13972   */\n      add\n        /* \"#utility.yul\":13925:13976   */\n      tag_167\n      jump\t// in\n    tag_318:\n        /* \"#utility.yul\":13898:13899   */\n      0x01\n        /* \"#utility.yul\":13895:13896   */\n      dup2\n        /* \"#utility.yul\":13891:13900   */\n      add\n        /* \"#utility.yul\":13886:13900   */\n      swap1\n      pop\n        /* \"#utility.yul\":13848:13986   */\n      jump(tag_315)\n    tag_317:\n        /* \"#utility.yul\":13852:13866   */\n      pop\n        /* \"#utility.yul\":13778:13992   */\n      pop\n      pop\n      jump\t// out\n        /* \"#utility.yul\":13998:14744   */\n    tag_169:\n        /* \"#utility.yul\":14099:14101   */\n      0x1f\n        /* \"#utility.yul\":14094:14097   */\n      dup3\n        /* \"#utility.yul\":14091:14102   */\n      gt\n        /* \"#utility.yul\":14088:14737   */\n      iszero\n      tag_320\n      jumpi\n        /* \"#utility.yul\":14128:14138   */\n      dup3\n        /* \"#utility.yul\":14123:14126   */\n      dup3\n        /* \"#utility.yul\":14120:14139   */\n      gt\n        /* \"#utility.yul\":14117:14727   */\n      iszero\n      tag_321\n      jumpi\n        /* \"#utility.yul\":14174:14212   */\n      tag_322\n        /* \"#utility.yul\":14206:14211   */\n      dup2\n        /* \"#utility.yul\":14174:14212   */\n      tag_158\n      jump\t// in\n    tag_322:\n        /* \"#utility.yul\":14249:14271   */\n      tag_323\n        /* \"#utility.yul\":14267:14270   */\n      dup4\n        /* \"#utility.yul\":14249:14271   */\n      tag_159\n      jump\t// in\n    tag_323:\n        /* \"#utility.yul\":14308:14337   */\n      tag_324\n        /* \"#utility.yul\":14326:14336   */\n      dup6\n        /* \"#utility.yul\":14308:14337   */\n      tag_159\n      jump\t// in\n    tag_324:\n        /* \"#utility.yul\":14498:14500   */\n      0x20\n        /* \"#utility.yul\":14486:14496   */\n      dup7\n        /* \"#utility.yul\":14483:14501   */\n      lt\n        /* \"#utility.yul\":14480:14559   */\n      iszero\n      tag_325\n      jumpi\n        /* \"#utility.yul\":14540:14541   */\n      0x00\n        /* \"#utility.yul\":14524:14541   */\n      swap1\n      pop\n        /* \"#utility.yul\":14480:14559   */\n    tag_325:\n        /* \"#utility.yul\":14609:14621   */\n      dup1\n        /* \"#utility.yul\":14599:14607   */\n      dup4\n        /* \"#utility.yul\":14595:14622   */\n      add\n        /* \"#utility.yul\":14639:14713   */\n      tag_326\n        /* \"#utility.yul\":14699:14711   */\n      dup3\n        /* \"#utility.yul\":14685:14697   */\n      dup5\n        /* \"#utility.yul\":14681:14712   */\n      sub\n        /* \"#utility.yul\":14668:14679   */\n      dup3\n        /* \"#utility.yul\":14639:14713   */\n      tag_168\n      jump\t// in\n    tag_326:\n        /* \"#utility.yul\":14140:14727   */\n      pop\n      pop\n      pop\n      pop\n        /* \"#utility.yul\":14117:14727   */\n    tag_321:\n        /* \"#utility.yul\":14088:14737   */\n    tag_320:\n        /* \"#utility.yul\":13998:14744   */\n      pop\n      pop\n      pop\n      jump\t// out\n        /* \"#utility.yul\":14750:14867   */\n    tag_170:\n        /* \"#utility.yul\":14804:14812   */\n      0x00\n        /* \"#utility.yul\":14854:14859   */\n      dup3\n        /* \"#utility.yul\":14848:14852   */\n      dup3\n        /* \"#utility.yul\":14844:14860   */\n      shr\n        /* \"#utility.yul\":14823:14860   */\n      swap1\n      pop\n        /* \"#utility.yul\":14750:14867   */\n      swap3\n      swap2\n      pop\n      pop\n      jump\t// out\n        /* \"#utility.yul\":14873:15042   */\n    tag_171:\n        /* \"#utility.yul\":14917:14923   */\n      0x00\n        /* \"#utility.yul\":14950:15001   */\n      tag_329\n        /* \"#utility.yul\":14998:14999   */\n      0x00\n        /* \"#utility.yul\":14994:15000   */\n      not\n        /* \"#utility.yul\":14986:14991   */\n      dup5\n        /* \"#utility.yul\":14983:14984   */\n      0x08\n        /* \"#utility.yul\":14979:14992   */\n      mul\n        /* \"#utility.yul\":14950:15001   */\n      tag_170\n      jump\t// in\n    tag_329:\n        /* \"#utility.yul\":14946:15002   */\n      not\n        /* \"#utility.yul\":15031:15035   */\n      dup1\n        /* \"#utility.yul\":15025:15029   */\n      dup4\n        /* \"#utility.yul\":15021:15036   */\n      and\n        /* \"#utility.yul\":15011:15036   */\n      swap2\n      pop\n        /* \"#utility.yul\":14924:15042   */\n      pop\n        /* \"#utility.yul\":14873:15042   */\n      swap3\n      swap2\n      pop\n      pop\n      jump\t// out\n        /* \"#utility.yul\":15047:15342   */\n    tag_172:\n        /* \"#utility.yul\":15123:15127   */\n      0x00\n        /* \"#utility.yul\":15269:15298   */\n      tag_331\n        /* \"#utility.yul\":15294:15297   */\n      dup4\n        /* \"#utility.yul\":15288:15292   */\n      dup4\n        /* \"#utility.yul\":15269:15298   */\n      tag_171\n      jump\t// in\n    tag_331:\n        /* \"#utility.yul\":15261:15298   */\n      swap2\n      pop\n        /* \"#utility.yul\":15331:15334   */\n      dup3\n        /* \"#utility.yul\":15328:15329   */\n      0x02\n        /* \"#utility.yul\":15324:15335   */\n      mul\n        /* \"#utility.yul\":15318:15322   */\n      dup3\n        /* \"#utility.yul\":15315:15336   */\n      or\n        /* \"#utility.yul\":15307:15336   */\n      swap1\n      pop\n        /* \"#utility.yul\":15047:15342   */\n      swap3\n      swap2\n      pop\n      pop\n      jump\t// out\n        /* \"#utility.yul\":15347:16742   */\n    tag_84:\n        /* \"#utility.yul\":15464:15501   */\n      tag_333\n        /* \"#utility.yul\":15497:15500   */\n      dup3\n        /* \"#utility.yul\":15464:15501   */\n      tag_133\n      jump\t// in\n    tag_333:\n        /* \"#utility.yul\":15566:15584   */\n      0xffffffffffffffff\n        /* \"#utility.yul\":15558:15564   */\n      dup2\n        /* \"#utility.yul\":15555:15585   */\n      gt\n        /* \"#utility.yul\":15552:15608   */\n      iszero\n      tag_334\n      jumpi\n        /* \"#utility.yul\":15588:15606   */\n      tag_335\n      tag_140\n      jump\t// in\n    tag_335:\n        /* \"#utility.yul\":15552:15608   */\n    tag_334:\n        /* \"#utility.yul\":15632:15670   */\n      tag_336\n        /* \"#utility.yul\":15664:15668   */\n      dup3\n        /* \"#utility.yul\":15658:15669   */\n      sload\n        /* \"#utility.yul\":15632:15670   */\n      tag_67\n      jump\t// in\n    tag_336:\n        /* \"#utility.yul\":15717:15784   */\n      tag_337\n        /* \"#utility.yul\":15777:15783   */\n      dup3\n        /* \"#utility.yul\":15769:15775   */\n      dup3\n        /* \"#utility.yul\":15763:15767   */\n      dup6\n        /* \"#utility.yul\":15717:15784   */\n      tag_169\n      jump\t// in\n    tag_337:\n        /* \"#utility.yul\":15811:15812   */\n      0x00\n        /* \"#utility.yul\":15835:15839   */\n      0x20\n        /* \"#utility.yul\":15822:15839   */\n      swap1\n      pop\n        /* \"#utility.yul\":15867:15869   */\n      0x1f\n        /* \"#utility.yul\":15859:15865   */\n      dup4\n        /* \"#utility.yul\":15856:15870   */\n      gt\n        /* \"#utility.yul\":15884:15885   */\n      0x01\n        /* \"#utility.yul\":15879:16497   */\n      dup2\n      eq\n      tag_339\n      jumpi\n        /* \"#utility.yul\":16541:16542   */\n      0x00\n        /* \"#utility.yul\":16558:16564   */\n      dup5\n        /* \"#utility.yul\":16555:16632   */\n      iszero\n      tag_340\n      jumpi\n        /* \"#utility.yul\":16607:16616   */\n      dup3\n        /* \"#utility.yul\":16602:16605   */\n      dup8\n        /* \"#utility.yul\":16598:16617   */\n      add\n        /* \"#utility.yul\":16592:16618   */\n      mload\n        /* \"#utility.yul\":16583:16618   */\n      swap1\n      pop\n        /* \"#utility.yul\":16555:16632   */\n    tag_340:\n        /* \"#utility.yul\":16658:16725   */\n      tag_341\n        /* \"#utility.yul\":16718:16724   */\n      dup6\n        /* \"#utility.yul\":16711:16716   */\n      dup3\n        /* \"#utility.yul\":16658:16725   */\n      tag_172\n      jump\t// in\n    tag_341:\n        /* \"#utility.yul\":16652:16656   */\n      dup7\n        /* \"#utility.yul\":16645:16726   */\n      sstore\n        /* \"#utility.yul\":16514:16736   */\n      pop\n        /* \"#utility.yul\":15849:16736   */\n      jump(tag_338)\n        /* \"#utility.yul\":15879:16497   */\n    tag_339:\n        /* \"#utility.yul\":15931:15935   */\n      0x1f\n        /* \"#utility.yul\":15927:15936   */\n      not\n        /* \"#utility.yul\":15919:15925   */\n      dup5\n        /* \"#utility.yul\":15915:15937   */\n      and\n        /* \"#utility.yul\":15965:16002   */\n      tag_342\n        /* \"#utility.yul\":15997:16001   */\n      dup7\n        /* \"#utility.yul\":15965:16002   */\n      tag_158\n      jump\t// in\n    tag_342:\n        /* \"#utility.yul\":16024:16025   */\n      0x00\n        /* \"#utility.yul\":16038:16246   */\n    tag_343:\n        /* \"#utility.yul\":16052:16059   */\n      dup3\n        /* \"#utility.yul\":16049:16050   */\n      dup2\n        /* \"#utility.yul\":16046:16060   */\n      lt\n        /* \"#utility.yul\":16038:16246   */\n      iszero\n      tag_345\n      jumpi\n        /* \"#utility.yul\":16131:16140   */\n      dup5\n        /* \"#utility.yul\":16126:16129   */\n      dup10\n        /* \"#utility.yul\":16122:16141   */\n      add\n        /* \"#utility.yul\":16116:16142   */\n      mload\n        /* \"#utility.yul\":16108:16114   */\n      dup3\n        /* \"#utility.yul\":16101:16143   */\n      sstore\n        /* \"#utility.yul\":16182:16183   */\n      0x01\n        /* \"#utility.yul\":16174:16180   */\n      dup3\n        /* \"#utility.yul\":16170:16184   */\n      add\n        /* \"#utility.yul\":16160:16184   */\n      swap2\n      pop\n        /* \"#utility.yul\":16229:16231   */\n      0x20\n        /* \"#utility.yul\":16218:16227   */\n      dup6\n        /* \"#utility.yul\":16214:16232   */\n      add\n        /* \"#utility.yul\":16201:16232   */\n      swap5\n      pop\n        /* \"#utility.yul\":16075:16079   */\n      0x20\n        /* \"#utility.yul\":16072:16073   */\n      dup2\n        /* \"#utility.yul\":16068:16080   */\n      add\n        /* \"#utility.yul\":16063:16080   */\n      swap1\n      pop\n        /* \"#utility.yul\":16038:16246   */\n      jump(tag_343)\n    tag_345:\n        /* \"#utility.yul\":16274:16280   */\n      dup7\n        /* \"#utility.yul\":16265:16272   */\n      dup4\n        /* \"#utility.yul\":16262:16281   */\n      lt\n        /* \"#utility.yul\":16259:16438   */\n      iszero\n      tag_346\n      jumpi\n        /* \"#utility.yul\":16332:16341   */\n      dup5\n        /* \"#utility.yul\":16327:16330   */\n      dup10\n        /* \"#utility.yul\":16323:16342   */\n      add\n        /* \"#utility.yul\":16317:16343   */\n      mload\n        /* \"#utility.yul\":16375:16423   */\n      tag_347\n        /* \"#utility.yul\":16417:16421   */\n      0x1f\n        /* \"#utility.yul\":16409:16415   */\n      dup10\n        /* \"#utility.yul\":16405:16422   */\n      and\n        /* \"#utility.yul\":16394:16403   */\n      dup3\n        /* \"#utility.yul\":16375:16423   */\n      tag_171\n      jump\t// in\n    tag_347:\n        /* \"#utility.yul\":16367:16373   */\n      dup4\n        /* \"#utility.yul\":16360:16424   */\n      sstore\n        /* \"#utility.yul\":16282:16438   */\n      pop\n        /* \"#utility.yul\":16259:16438   */\n    tag_346:\n        /* \"#utility.yul\":16484:16485   */\n      0x01\n        /* \"#utility.yul\":16480:16481   */\n      0x02\n        /* \"#utility.yul\":16472:16478   */\n      dup9\n        /* \"#utility.yul\":16468:16482   */\n      mul\n        /* \"#utility.yul\":16464:16486   */\n      add\n        /* \"#utility.yul\":16458:16462   */\n      dup9\n        /* \"#utility.yul\":16451:16487   */\n      sstore\n        /* \"#utility.yul\":15886:16497   */\n      pop\n      pop\n      pop\n        /* \"#utility.yul\":15849:16736   */\n    tag_338:\n      pop\n        /* \"#utility.yul\":15439:16742   */\n      pop\n      pop\n      pop\n        /* \"#utility.yul\":15347:16742   */\n      pop\n      pop\n      jump\t// out\n        /* \"#utility.yul\":16748:16942   */\n    tag_86:\n        /* \"#utility.yul\":16788:16792   */\n      0x00\n        /* \"#utility.yul\":16808:16828   */\n      tag_349\n        /* \"#utility.yul\":16826:16827   */\n      dup3\n        /* \"#utility.yul\":16808:16828   */\n      tag_123\n      jump\t// in\n    tag_349:\n        /* \"#utility.yul\":16803:16828   */\n      swap2\n      pop\n        /* \"#utility.yul\":16842:16862   */\n      tag_350\n        /* \"#utility.yul\":16860:16861   */\n      dup4\n        /* \"#utility.yul\":16842:16862   */\n      tag_123\n      jump\t// in\n    tag_350:\n        /* \"#utility.yul\":16837:16862   */\n      swap3\n      pop\n        /* \"#utility.yul\":16886:16887   */\n      dup3\n        /* \"#utility.yul\":16883:16884   */\n      dup3\n        /* \"#utility.yul\":16879:16888   */\n      sub\n        /* \"#utility.yul\":16871:16888   */\n      swap1\n      pop\n        /* \"#utility.yul\":16910:16911   */\n      dup2\n        /* \"#utility.yul\":16904:16908   */\n      dup2\n        /* \"#utility.yul\":16901:16912   */\n      gt\n        /* \"#utility.yul\":16898:16935   */\n      iszero\n      tag_351\n      jumpi\n        /* \"#utility.yul\":16915:16933   */\n      tag_352\n      tag_152\n      jump\t// in\n    tag_352:\n        /* \"#utility.yul\":16898:16935   */\n    tag_351:\n        /* \"#utility.yul\":16748:16942   */\n      swap3\n      swap2\n      pop\n      pop\n      jump\t// out\n\n    auxdata: 0xa2646970667358221220f68f6ef923cd11585881e011a89125d9e193900b15bcf464664b27ead82f7a8364736f6c63430008210033\n}\n",
				"bytecode": {
					"linkReferences": {},
					"object": "608060405234801561000f575f5ffd5b50335f73ffffffffffffffffffffffffffffffffffffffff168173ffffffffffffffffffffffffffffffffffffffff1603610081575f6040517f1e4fbdf70000000000000000000000000000000000000000000000000000000081526004016100789190610196565b60405180910390fd5b6100908161009660201b60201c565b506101af565b5f5f5f9054906101000a900473ffffffffffffffffffffffffffffffffffffffff169050815f5f6101000a81548173ffffffffffffffffffffffffffffffffffffffff021916908373ffffffffffffffffffffffffffffffffffffffff1602179055508173ffffffffffffffffffffffffffffffffffffffff168173ffffffffffffffffffffffffffffffffffffffff167f8be0079c531659141344cd1fd0a4f28419497f9722a3daafe3b4186f6b6457e060405160405180910390a35050565b5f73ffffffffffffffffffffffffffffffffffffffff82169050919050565b5f61018082610157565b9050919050565b61019081610176565b82525050565b5f6020820190506101a95f830184610187565b92915050565b611129806101bc5f395ff3fe608060405234801561000f575f5ffd5b5060043610610091575f3560e01c8063462e91ec11610064578063462e91ec1461013057806347a553ad1461014c578063715018a61461016a5780638da5cb5b14610174578063f2fde38b1461019257610091565b80630121b93f1461009557806309eef43e146100b157806330a56347146100e15780633477ee2e146100ff575b5f5ffd5b6100af60048036038101906100aa919061084f565b6101ae565b005b6100cb60048036038101906100c691906108d4565b610347565b6040516100d89190610919565b60405180910390f35b6100e9610364565b6040516100f69190610941565b60405180910390f35b6101196004803603810190610114919061084f565b610370565b6040516101279291906109ca565b60405180910390f35b61014a60048036038101906101459190610b24565b610425565b005b610154610578565b6040516101619190610941565b60405180910390f35b6101726105fe565b005b61017c610611565b6040516101899190610b7a565b60405180910390f35b6101ac60048036038101906101a791906108d4565b610638565b005b60015f3373ffffffffffffffffffffffffffffffffffffffff1673ffffffffffffffffffffffffffffffffffffffff1681526020019081526020015f205f9054906101000a900460ff1615610238576040517f08c379a000000000000000000000000000000000000000000000000000000000815260040161022f90610bdd565b60405180910390fd5b600380549050811061027f576040517f08c379a000000000000000000000000000000000000000000000000000000000815260040161027690610c45565b60405180910390fd5b6003818154811061029357610292610c63565b5b905f5260205f2090600202016001015f8154809291906102b290610cbd565b91905055506001805f3373ffffffffffffffffffffffffffffffffffffffff1673ffffffffffffffffffffffffffffffffffffffff1681526020019081526020015f205f6101000a81548160ff0219169083151502179055507f4d99b957a2bc29a30ebd96a7be8e68fe50a3c701db28a91436490b7d53870ca4338260405161033c929190610d04565b60405180910390a150565b6001602052805f5260405f205f915054906101000a900460ff1681565b5f600380549050905090565b6003818154811061037f575f80fd5b905f5260205f2090600202015f91509050805f01805461039e90610d58565b80601f01602080910402602001604051908101604052809291908181526020018280546103ca90610d58565b80156104155780601f106103ec57610100808354040283529160200191610415565b820191905f5260205f20905b8154815290600101906020018083116103f857829003601f168201915b5050505050908060010154905082565b61042d6106bc565b60028160405161043d9190610dc2565b90815260200160405180910390205f9054906101000a900460ff1615610498576040517f08c379a000000000000000000000000000000000000000000000000000000000815260040161048f90610e22565b60405180910390fd5b60016002826040516104aa9190610dc2565b90815260200160405180910390205f6101000a81548160ff021916908315150217905550600360405180604001604052808381526020015f815250908060018154018082558091505060019003905f5260205f2090600202015f909190919091505f820151815f01908161051e9190610ff1565b506020820151816001015550507fa89e28469fa9e15d5149634a9ce8d8dd59ec42c18ba2d281b08c305f2095acef81600160038054905061055f91906110c0565b60405161056d9291906109ca565b60405180910390a150565b5f5f5f90505f5f90505f5f90505b6003805490508110156105f55782600382815481106105a8576105a7610c63565b5b905f5260205f2090600202016001015411156105e857600381815481106105d2576105d1610c63565b5b905f5260205f2090600202016001015492508091505b8080600101915050610586565b50809250505090565b6106066106bc565b61060f5f610743565b565b5f5f5f9054906101000a900473ffffffffffffffffffffffffffffffffffffffff16905090565b6106406106bc565b5f73ffffffffffffffffffffffffffffffffffffffff168173ffffffffffffffffffffffffffffffffffffffff16036106b0575f6040517f1e4fbdf70000000000000000000000000000000000000000000000000000000081526004016106a79190610b7a565b60405180910390fd5b6106b981610743565b50565b6106c4610804565b73ffffffffffffffffffffffffffffffffffffffff166106e2610611565b73ffffffffffffffffffffffffffffffffffffffff161461074157610705610804565b6040517f118cdaa70000000000000000000000000000000000000000000000000000000081526004016107389190610b7a565b60405180910390fd5b565b5f5f5f9054906101000a900473ffffffffffffffffffffffffffffffffffffffff169050815f5f6101000a81548173ffffffffffffffffffffffffffffffffffffffff021916908373ffffffffffffffffffffffffffffffffffffffff1602179055508173ffffffffffffffffffffffffffffffffffffffff168173ffffffffffffffffffffffffffffffffffffffff167f8be0079c531659141344cd1fd0a4f28419497f9722a3daafe3b4186f6b6457e060405160405180910390a35050565b5f33905090565b5f604051905090565b5f5ffd5b5f5ffd5b5f819050919050565b61082e8161081c565b8114610838575f5ffd5b50565b5f8135905061084981610825565b92915050565b5f6020828403121561086457610863610814565b5b5f6108718482850161083b565b91505092915050565b5f73ffffffffffffffffffffffffffffffffffffffff82169050919050565b5f6108a38261087a565b9050919050565b6108b381610899565b81146108bd575f5ffd5b50565b5f813590506108ce816108aa565b92915050565b5f602082840312156108e9576108e8610814565b5b5f6108f6848285016108c0565b91505092915050565b5f8115159050919050565b610913816108ff565b82525050565b5f60208201905061092c5f83018461090a565b92915050565b61093b8161081c565b82525050565b5f6020820190506109545f830184610932565b92915050565b5f81519050919050565b5f82825260208201905092915050565b8281835e5f83830152505050565b5f601f19601f8301169050919050565b5f61099c8261095a565b6109a68185610964565b93506109b6818560208601610974565b6109bf81610982565b840191505092915050565b5f6040820190508181035f8301526109e28185610992565b90506109f16020830184610932565b9392505050565b5f5ffd5b5f5ffd5b7f4e487b71000000000000000000000000000000000000000000000000000000005f52604160045260245ffd5b610a3682610982565b810181811067ffffffffffffffff82111715610a5557610a54610a00565b5b80604052505050565b5f610a6761080b565b9050610a738282610a2d565b919050565b5f67ffffffffffffffff821115610a9257610a91610a00565b5b610a9b82610982565b9050602081019050919050565b828183375f83830152505050565b5f610ac8610ac384610a78565b610a5e565b905082815260208101848484011115610ae457610ae36109fc565b5b610aef848285610aa8565b509392505050565b5f82601f830112610b0b57610b0a6109f8565b5b8135610b1b848260208601610ab6565b91505092915050565b5f60208284031215610b3957610b38610814565b5b5f82013567ffffffffffffffff811115610b5657610b55610818565b5b610b6284828501610af7565b91505092915050565b610b7481610899565b82525050565b5f602082019050610b8d5f830184610b6b565b92915050565b7f416c726561647920766f746564000000000000000000000000000000000000005f82015250565b5f610bc7600d83610964565b9150610bd282610b93565b602082019050919050565b5f6020820190508181035f830152610bf481610bbb565b9050919050565b7f496e76616c69642063616e6469646174650000000000000000000000000000005f82015250565b5f610c2f601183610964565b9150610c3a82610bfb565b602082019050919050565b5f6020820190508181035f830152610c5c81610c23565b9050919050565b7f4e487b71000000000000000000000000000000000000000000000000000000005f52603260045260245ffd5b7f4e487b71000000000000000000000000000000000000000000000000000000005f52601160045260245ffd5b5f610cc78261081c565b91507fffffffffffffffffffffffffffffffffffffffffffffffffffffffffffffffff8203610cf957610cf8610c90565b5b600182019050919050565b5f604082019050610d175f830185610b6b565b610d246020830184610932565b9392505050565b7f4e487b71000000000000000000000000000000000000000000000000000000005f52602260045260245ffd5b5f6002820490506001821680610d6f57607f821691505b602082108103610d8257610d81610d2b565b5b50919050565b5f81905092915050565b5f610d9c8261095a565b610da68185610d88565b9350610db6818560208601610974565b80840191505092915050565b5f610dcd8284610d92565b915081905092915050565b7f43616e64696461746520616c72656164792065786973747300000000000000005f82015250565b5f610e0c601883610964565b9150610e1782610dd8565b602082019050919050565b5f6020820190508181035f830152610e3981610e00565b9050919050565b5f819050815f5260205f209050919050565b5f6020601f8301049050919050565b5f82821b905092915050565b5f60088302610e9c7fffffffffffffffffffffffffffffffffffffffffffffffffffffffffffffffff82610e61565b610ea68683610e61565b95508019841693508086168417925050509392505050565b5f819050919050565b5f610ee1610edc610ed78461081c565b610ebe565b61081c565b9050919050565b5f819050919050565b610efa83610ec7565b610f0e610f0682610ee8565b848454610e6d565b825550505050565b5f5f905090565b610f25610f16565b610f30818484610ef1565b505050565b5f5b82811015610f5657610f4b5f828401610f1d565b600181019050610f37565b505050565b601f821115610fa95782821115610fa857610f7581610e40565b610f7e83610e52565b610f8785610e52565b6020861015610f94575f90505b808301610fa382840382610f35565b505050505b5b505050565b5f82821c905092915050565b5f610fc95f1984600802610fae565b1980831691505092915050565b5f610fe18383610fba565b9150826002028217905092915050565b610ffa8261095a565b67ffffffffffffffff81111561101357611012610a00565b5b61101d8254610d58565b611028828285610f5b565b5f60209050601f831160018114611059575f8415611047578287015190505b6110518582610fd6565b8655506110b8565b601f19841661106786610e40565b5f5b8281101561108e57848901518255600182019150602085019450602081019050611069565b868310156110ab57848901516110a7601f891682610fba565b8355505b6001600288020188555050505b505050505050565b5f6110ca8261081c565b91506110d58361081c565b92508282039050818111156110ed576110ec610c90565b5b9291505056fea2646970667358221220f68f6ef923cd11585881e011a89125d9e193900b15bcf464664b27ead82f7a8364736f6c63430008210033",
					"opcodes": "PUSH1 0x80 PUSH1 0x40 MSTORE CALLVALUE DUP1 ISZERO PUSH2 0xF JUMPI PUSH0 PUSH0 REVERT JUMPDEST POP CALLER PUSH0 PUSH20 0xFFFFFFFFFFFFFFFFFFFFFFFFFFFFFFFFFFFFFFFF AND DUP2 PUSH20 0xFFFFFFFFFFFFFFFFFFFFFFFFFFFFFFFFFFFFFFFF AND SUB PUSH2 0x81 JUMPI PUSH0 PUSH1 0x40 MLOAD PUSH32 0x1E4FBDF700000000000000000000000000000000000000000000000000000000 DUP2 MSTORE PUSH1 0x4 ADD PUSH2 0x78 SWAP2 SWAP1 PUSH2 0x196 JUMP JUMPDEST PUSH1 0x40 MLOAD DUP1 SWAP2 SUB SWAP1 REVERT JUMPDEST PUSH2 0x90 DUP2 PUSH2 0x96 PUSH1 0x20 SHL PUSH1 0x20 SHR JUMP JUMPDEST POP PUSH2 0x1AF JUMP JUMPDEST PUSH0 PUSH0 PUSH0 SWAP1 SLOAD SWAP1 PUSH2 0x100 EXP SWAP1 DIV PUSH20 0xFFFFFFFFFFFFFFFFFFFFFFFFFFFFFFFFFFFFFFFF AND SWAP1 POP DUP2 PUSH0 PUSH0 PUSH2 0x100 EXP DUP2 SLOAD DUP2 PUSH20 0xFFFFFFFFFFFFFFFFFFFFFFFFFFFFFFFFFFFFFFFF MUL NOT AND SWAP1 DUP4 PUSH20 0xFFFFFFFFFFFFFFFFFFFFFFFFFFFFFFFFFFFFFFFF AND MUL OR SWAP1 SSTORE POP DUP2 PUSH20 0xFFFFFFFFFFFFFFFFFFFFFFFFFFFFFFFFFFFFFFFF AND DUP2 PUSH20 0xFFFFFFFFFFFFFFFFFFFFFFFFFFFFFFFFFFFFFFFF AND PUSH32 0x8BE0079C531659141344CD1FD0A4F28419497F9722A3DAAFE3B4186F6B6457E0 PUSH1 0x40 MLOAD PUSH1 0x40 MLOAD DUP1 SWAP2 SUB SWAP1 LOG3 POP POP JUMP JUMPDEST PUSH0 PUSH20 0xFFFFFFFFFFFFFFFFFFFFFFFFFFFFFFFFFFFFFFFF DUP3 AND SWAP1 POP SWAP2 SWAP1 POP JUMP JUMPDEST PUSH0 PUSH2 0x180 DUP3 PUSH2 0x157 JUMP JUMPDEST SWAP1 POP SWAP2 SWAP1 POP JUMP JUMPDEST PUSH2 0x190 DUP2 PUSH2 0x176 JUMP JUMPDEST DUP3 MSTORE POP POP JUMP JUMPDEST PUSH0 PUSH1 0x20 DUP3 ADD SWAP1 POP PUSH2 0x1A9 PUSH0 DUP4 ADD DUP5 PUSH2 0x187 JUMP JUMPDEST SWAP3 SWAP2 POP POP JUMP JUMPDEST PUSH2 0x1129 DUP1 PUSH2 0x1BC PUSH0 CODECOPY PUSH0 RETURN INVALID PUSH1 0x80 PUSH1 0x40 MSTORE CALLVALUE DUP1 ISZERO PUSH2 0xF JUMPI PUSH0 PUSH0 REVERT JUMPDEST POP PUSH1 0x4 CALLDATASIZE LT PUSH2 0x91 JUMPI PUSH0 CALLDATALOAD PUSH1 0xE0 SHR DUP1 PUSH4 0x462E91EC GT PUSH2 0x64 JUMPI DUP1 PUSH4 0x462E91EC EQ PUSH2 0x130 JUMPI DUP1 PUSH4 0x47A553AD EQ PUSH2 0x14C JUMPI DUP1 PUSH4 0x715018A6 EQ PUSH2 0x16A JUMPI DUP1 PUSH4 0x8DA5CB5B EQ PUSH2 0x174 JUMPI DUP1 PUSH4 0xF2FDE38B EQ PUSH2 0x192 JUMPI PUSH2 0x91 JUMP JUMPDEST DUP1 PUSH4 0x121B93F EQ PUSH2 0x95 JUMPI DUP1 PUSH4 0x9EEF43E EQ PUSH2 0xB1 JUMPI DUP1 PUSH4 0x30A56347 EQ PUSH2 0xE1 JUMPI DUP1 PUSH4 0x3477EE2E EQ PUSH2 0xFF JUMPI JUMPDEST PUSH0 PUSH0 REVERT JUMPDEST PUSH2 0xAF PUSH1 0x4 DUP1 CALLDATASIZE SUB DUP2 ADD SWAP1 PUSH2 0xAA SWAP2 SWAP1 PUSH2 0x84F JUMP JUMPDEST PUSH2 0x1AE JUMP JUMPDEST STOP JUMPDEST PUSH2 0xCB PUSH1 0x4 DUP1 CALLDATASIZE SUB DUP2 ADD SWAP1 PUSH2 0xC6 SWAP2 SWAP1 PUSH2 0x8D4 JUMP JUMPDEST PUSH2 0x347 JUMP JUMPDEST PUSH1 0x40 MLOAD PUSH2 0xD8 SWAP2 SWAP1 PUSH2 0x919 JUMP JUMPDEST PUSH1 0x40 MLOAD DUP1 SWAP2 SUB SWAP1 RETURN JUMPDEST PUSH2 0xE9 PUSH2 0x364 JUMP JUMPDEST PUSH1 0x40 MLOAD PUSH2 0xF6 SWAP2 SWAP1 PUSH2 0x941 JUMP JUMPDEST PUSH1 0x40 MLOAD DUP1 SWAP2 SUB SWAP1 RETURN JUMPDEST PUSH2 0x119 PUSH1 0x4 DUP1 CALLDATASIZE SUB DUP2 ADD SWAP1 PUSH2 0x114 SWAP2 SWAP1 PUSH2 0x84F JUMP JUMPDEST PUSH2 0x370 JUMP JUMPDEST PUSH1 0x40 MLOAD PUSH2 0x127 SWAP3 SWAP2 SWAP1 PUSH2 0x9CA JUMP JUMPDEST PUSH1 0x40 MLOAD DUP1 SWAP2 SUB SWAP1 RETURN JUMPDEST PUSH2 0x14A PUSH1 0x4 DUP1 CALLDATASIZE SUB DUP2 ADD SWAP1 PUSH2 0x145 SWAP2 SWAP1 PUSH2 0xB24 JUMP JUMPDEST PUSH2 0x425 JUMP JUMPDEST STOP JUMPDEST PUSH2 0x154 PUSH2 0x578 JUMP JUMPDEST PUSH1 0x40 MLOAD PUSH2 0x161 SWAP2 SWAP1 PUSH2 0x941 JUMP JUMPDEST PUSH1 0x40 MLOAD DUP1 SWAP2 SUB SWAP1 RETURN JUMPDEST PUSH2 0x172 PUSH2 0x5FE JUMP JUMPDEST STOP JUMPDEST PUSH2 0x17C PUSH2 0x611 JUMP JUMPDEST PUSH1 0x40 MLOAD PUSH2 0x189 SWAP2 SWAP1 PUSH2 0xB7A JUMP JUMPDEST PUSH1 0x40 MLOAD DUP1 SWAP2 SUB SWAP1 RETURN JUMPDEST PUSH2 0x1AC PUSH1 0x4 DUP1 CALLDATASIZE SUB DUP2 ADD SWAP1 PUSH2 0x1A7 SWAP2 SWAP1 PUSH2 0x8D4 JUMP JUMPDEST PUSH2 0x638 JUMP JUMPDEST STOP JUMPDEST PUSH1 0x1 PUSH0 CALLER PUSH20 0xFFFFFFFFFFFFFFFFFFFFFFFFFFFFFFFFFFFFFFFF AND PUSH20 0xFFFFFFFFFFFFFFFFFFFFFFFFFFFFFFFFFFFFFFFF AND DUP2 MSTORE PUSH1 0x20 ADD SWAP1 DUP2 MSTORE PUSH1 0x20 ADD PUSH0 KECCAK256 PUSH0 SWAP1 SLOAD SWAP1 PUSH2 0x100 EXP SWAP1 DIV PUSH1 0xFF AND ISZERO PUSH2 0x238 JUMPI PUSH1 0x40 MLOAD PUSH32 0x8C379A000000000000000000000000000000000000000000000000000000000 DUP2 MSTORE PUSH1 0x4 ADD PUSH2 0x22F SWAP1 PUSH2 0xBDD JUMP JUMPDEST PUSH1 0x40 MLOAD DUP1 SWAP2 SUB SWAP1 REVERT JUMPDEST PUSH1 0x3 DUP1 SLOAD SWAP1 POP DUP2 LT PUSH2 0x27F JUMPI PUSH1 0x40 MLOAD PUSH32 0x8C379A000000000000000000000000000000000000000000000000000000000 DUP2 MSTORE PUSH1 0x4 ADD PUSH2 0x276 SWAP1 PUSH2 0xC45 JUMP JUMPDEST PUSH1 0x40 MLOAD DUP1 SWAP2 SUB SWAP1 REVERT JUMPDEST PUSH1 0x3 DUP2 DUP2 SLOAD DUP2 LT PUSH2 0x293 JUMPI PUSH2 0x292 PUSH2 0xC63 JUMP JUMPDEST JUMPDEST SWAP1 PUSH0 MSTORE PUSH1 0x20 PUSH0 KECCAK256 SWAP1 PUSH1 0x2 MUL ADD PUSH1 0x1 ADD PUSH0 DUP2 SLOAD DUP1 SWAP3 SWAP2 SWAP1 PUSH2 0x2B2 SWAP1 PUSH2 0xCBD JUMP JUMPDEST SWAP2 SWAP1 POP SSTORE POP PUSH1 0x1 DUP1 PUSH0 CALLER PUSH20 0xFFFFFFFFFFFFFFFFFFFFFFFFFFFFFFFFFFFFFFFF AND PUSH20 0xFFFFFFFFFFFFFFFFFFFFFFFFFFFFFFFFFFFFFFFF AND DUP2 MSTORE PUSH1 0x20 ADD SWAP1 DUP2 MSTORE PUSH1 0x20 ADD PUSH0 KECCAK256 PUSH0 PUSH2 0x100 EXP DUP2 SLOAD DUP2 PUSH1 0xFF MUL NOT AND SWAP1 DUP4 ISZERO ISZERO MUL OR SWAP1 SSTORE POP PUSH32 0x4D99B957A2BC29A30EBD96A7BE8E68FE50A3C701DB28A91436490B7D53870CA4 CALLER DUP3 PUSH1 0x40 MLOAD PUSH2 0x33C SWAP3 SWAP2 SWAP1 PUSH2 0xD04 JUMP JUMPDEST PUSH1 0x40 MLOAD DUP1 SWAP2 SUB SWAP1 LOG1 POP JUMP JUMPDEST PUSH1 0x1 PUSH1 0x20 MSTORE DUP1 PUSH0 MSTORE PUSH1 0x40 PUSH0 KECCAK256 PUSH0 SWAP2 POP SLOAD SWAP1 PUSH2 0x100 EXP SWAP1 DIV PUSH1 0xFF AND DUP2 JUMP JUMPDEST PUSH0 PUSH1 0x3 DUP1 SLOAD SWAP1 POP SWAP1 POP SWAP1 JUMP JUMPDEST PUSH1 0x3 DUP2 DUP2 SLOAD DUP2 LT PUSH2 0x37F JUMPI PUSH0 DUP1 REVERT JUMPDEST SWAP1 PUSH0 MSTORE PUSH1 0x20 PUSH0 KECCAK256 SWAP1 PUSH1 0x2 MUL ADD PUSH0 SWAP2 POP SWAP1 POP DUP1 PUSH0 ADD DUP1 SLOAD PUSH2 0x39E SWAP1 PUSH2 0xD58 JUMP JUMPDEST DUP1 PUSH1 0x1F ADD PUSH1 0x20 DUP1 SWAP2 DIV MUL PUSH1 0x20 ADD PUSH1 0x40 MLOAD SWAP1 DUP2 ADD PUSH1 0x40 MSTORE DUP1 SWAP3 SWAP2 SWAP1 DUP2 DUP2 MSTORE PUSH1 0x20 ADD DUP3 DUP1 SLOAD PUSH2 0x3CA SWAP1 PUSH2 0xD58 JUMP JUMPDEST DUP1 ISZERO PUSH2 0x415 JUMPI DUP1 PUSH1 0x1F LT PUSH2 0x3EC JUMPI PUSH2 0x100 DUP1 DUP4 SLOAD DIV MUL DUP4 MSTORE SWAP2 PUSH1 0x20 ADD SWAP2 PUSH2 0x415 JUMP JUMPDEST DUP3 ADD SWAP2 SWAP1 PUSH0 MSTORE PUSH1 0x20 PUSH0 KECCAK256 SWAP1 JUMPDEST DUP2 SLOAD DUP2 MSTORE SWAP1 PUSH1 0x1 ADD SWAP1 PUSH1 0x20 ADD DUP1 DUP4 GT PUSH2 0x3F8 JUMPI DUP3 SWAP1 SUB PUSH1 0x1F AND DUP3 ADD SWAP2 JUMPDEST POP POP POP POP POP SWAP1 DUP1 PUSH1 0x1 ADD SLOAD SWAP1 POP DUP3 JUMP JUMPDEST PUSH2 0x42D PUSH2 0x6BC JUMP JUMPDEST PUSH1 0x2 DUP2 PUSH1 0x40 MLOAD PUSH2 0x43D SWAP2 SWAP1 PUSH2 0xDC2 JUMP JUMPDEST SWAP1 DUP2 MSTORE PUSH1 0x20 ADD PUSH1 0x40 MLOAD DUP1 SWAP2 SUB SWAP1 KECCAK256 PUSH0 SWAP1 SLOAD SWAP1 PUSH2 0x100 EXP SWAP1 DIV PUSH1 0xFF AND ISZERO PUSH2 0x498 JUMPI PUSH1 0x40 MLOAD PUSH32 0x8C379A000000000000000000000000000000000000000000000000000000000 DUP2 MSTORE PUSH1 0x4 ADD PUSH2 0x48F SWAP1 PUSH2 0xE22 JUMP JUMPDEST PUSH1 0x40 MLOAD DUP1 SWAP2 SUB SWAP1 REVERT JUMPDEST PUSH1 0x1 PUSH1 0x2 DUP3 PUSH1 0x40 MLOAD PUSH2 0x4AA SWAP2 SWAP1 PUSH2 0xDC2 JUMP JUMPDEST SWAP1 DUP2 MSTORE PUSH1 0x20 ADD PUSH1 0x40 MLOAD DUP1 SWAP2 SUB SWAP1 KECCAK256 PUSH0 PUSH2 0x100 EXP DUP2 SLOAD DUP2 PUSH1 0xFF MUL NOT AND SWAP1 DUP4 ISZERO ISZERO MUL OR SWAP1 SSTORE POP PUSH1 0x3 PUSH1 0x40 MLOAD DUP1 PUSH1 0x40 ADD PUSH1 0x40 MSTORE DUP1 DUP4 DUP2 MSTORE PUSH1 0x20 ADD PUSH0 DUP2 MSTORE POP SWAP1 DUP1 PUSH1 0x1 DUP2 SLOAD ADD DUP1 DUP3 SSTORE DUP1 SWAP2 POP POP PUSH1 0x1 SWAP1 SUB SWAP1 PUSH0 MSTORE PUSH1 0x20 PUSH0 KECCAK256 SWAP1 PUSH1 0x2 MUL ADD PUSH0 SWAP1 SWAP2 SWAP1 SWAP2 SWAP1 SWAP2 POP PUSH0 DUP3 ADD MLOAD DUP2 PUSH0 ADD SWAP1 DUP2 PUSH2 0x51E SWAP2 SWAP1 PUSH2 0xFF1 JUMP JUMPDEST POP PUSH1 0x20 DUP3 ADD MLOAD DUP2 PUSH1 0x1 ADD SSTORE POP POP PUSH32 0xA89E28469FA9E15D5149634A9CE8D8DD59EC42C18BA2D281B08C305F2095ACEF DUP2 PUSH1 0x1 PUSH1 0x3 DUP1 SLOAD SWAP1 POP PUSH2 0x55F SWAP2 SWAP1 PUSH2 0x10C0 JUMP JUMPDEST PUSH1 0x40 MLOAD PUSH2 0x56D SWAP3 SWAP2 SWAP1 PUSH2 0x9CA JUMP JUMPDEST PUSH1 0x40 MLOAD DUP1 SWAP2 SUB SWAP1 LOG1 POP JUMP JUMPDEST PUSH0 PUSH0 PUSH0 SWAP1 POP PUSH0 PUSH0 SWAP1 POP PUSH0 PUSH0 SWAP1 POP JUMPDEST PUSH1 0x3 DUP1 SLOAD SWAP1 POP DUP2 LT ISZERO PUSH2 0x5F5 JUMPI DUP3 PUSH1 0x3 DUP3 DUP2 SLOAD DUP2 LT PUSH2 0x5A8 JUMPI PUSH2 0x5A7 PUSH2 0xC63 JUMP JUMPDEST JUMPDEST SWAP1 PUSH0 MSTORE PUSH1 0x20 PUSH0 KECCAK256 SWAP1 PUSH1 0x2 MUL ADD PUSH1 0x1 ADD SLOAD GT ISZERO PUSH2 0x5E8 JUMPI PUSH1 0x3 DUP2 DUP2 SLOAD DUP2 LT PUSH2 0x5D2 JUMPI PUSH2 0x5D1 PUSH2 0xC63 JUMP JUMPDEST JUMPDEST SWAP1 PUSH0 MSTORE PUSH1 0x20 PUSH0 KECCAK256 SWAP1 PUSH1 0x2 MUL ADD PUSH1 0x1 ADD SLOAD SWAP3 POP DUP1 SWAP2 POP JUMPDEST DUP1 DUP1 PUSH1 0x1 ADD SWAP2 POP POP PUSH2 0x586 JUMP JUMPDEST POP DUP1 SWAP3 POP POP POP SWAP1 JUMP JUMPDEST PUSH2 0x606 PUSH2 0x6BC JUMP JUMPDEST PUSH2 0x60F PUSH0 PUSH2 0x743 JUMP JUMPDEST JUMP JUMPDEST PUSH0 PUSH0 PUSH0 SWAP1 SLOAD SWAP1 PUSH2 0x100 EXP SWAP1 DIV PUSH20 0xFFFFFFFFFFFFFFFFFFFFFFFFFFFFFFFFFFFFFFFF AND SWAP1 POP SWAP1 JUMP JUMPDEST PUSH2 0x640 PUSH2 0x6BC JUMP JUMPDEST PUSH0 PUSH20 0xFFFFFFFFFFFFFFFFFFFFFFFFFFFFFFFFFFFFFFFF AND DUP2 PUSH20 0xFFFFFFFFFFFFFFFFFFFFFFFFFFFFFFFFFFFFFFFF AND SUB PUSH2 0x6B0 JUMPI PUSH0 PUSH1 0x40 MLOAD PUSH32 0x1E4FBDF700000000000000000000000000000000000000000000000000000000 DUP2 MSTORE PUSH1 0x4 ADD PUSH2 0x6A7 SWAP2 SWAP1 PUSH2 0xB7A JUMP JUMPDEST PUSH1 0x40 MLOAD DUP1 SWAP2 SUB SWAP1 REVERT JUMPDEST PUSH2 0x6B9 DUP2 PUSH2 0x743 JUMP JUMPDEST POP JUMP JUMPDEST PUSH2 0x6C4 PUSH2 0x804 JUMP JUMPDEST PUSH20 0xFFFFFFFFFFFFFFFFFFFFFFFFFFFFFFFFFFFFFFFF AND PUSH2 0x6E2 PUSH2 0x611 JUMP JUMPDEST PUSH20 0xFFFFFFFFFFFFFFFFFFFFFFFFFFFFFFFFFFFFFFFF AND EQ PUSH2 0x741 JUMPI PUSH2 0x705 PUSH2 0x804 JUMP JUMPDEST PUSH1 0x40 MLOAD PUSH32 0x118CDAA700000000000000000000000000000000000000000000000000000000 DUP2 MSTORE PUSH1 0x4 ADD PUSH2 0x738 SWAP2 SWAP1 PUSH2 0xB7A JUMP JUMPDEST PUSH1 0x40 MLOAD DUP1 SWAP2 SUB SWAP1 REVERT JUMPDEST JUMP JUMPDEST PUSH0 PUSH0 PUSH0 SWAP1 SLOAD SWAP1 PUSH2 0x100 EXP SWAP1 DIV PUSH20 0xFFFFFFFFFFFFFFFFFFFFFFFFFFFFFFFFFFFFFFFF AND SWAP1 POP DUP2 PUSH0 PUSH0 PUSH2 0x100 EXP DUP2 SLOAD DUP2 PUSH20 0xFFFFFFFFFFFFFFFFFFFFFFFFFFFFFFFFFFFFFFFF MUL NOT AND SWAP1 DUP4 PUSH20 0xFFFFFFFFFFFFFFFFFFFFFFFFFFFFFFFFFFFFFFFF AND MUL OR SWAP1 SSTORE POP DUP2 PUSH20 0xFFFFFFFFFFFFFFFFFFFFFFFFFFFFFFFFFFFFFFFF AND DUP2 PUSH20 0xFFFFFFFFFFFFFFFFFFFFFFFFFFFFFFFFFFFFFFFF AND PUSH32 0x8BE0079C531659141344CD1FD0A4F28419497F9722A3DAAFE3B4186F6B6457E0 PUSH1 0x40 MLOAD PUSH1 0x40 MLOAD DUP1 SWAP2 SUB SWAP1 LOG3 POP POP JUMP JUMPDEST PUSH0 CALLER SWAP1 POP SWAP1 JUMP JUMPDEST PUSH0 PUSH1 0x40 MLOAD SWAP1 POP SWAP1 JUMP JUMPDEST PUSH0 PUSH0 REVERT JUMPDEST PUSH0 PUSH0 REVERT JUMPDEST PUSH0 DUP2 SWAP1 POP SWAP2 SWAP1 POP JUMP JUMPDEST PUSH2 0x82E DUP2 PUSH2 0x81C JUMP JUMPDEST DUP2 EQ PUSH2 0x838 JUMPI PUSH0 PUSH0 REVERT JUMPDEST POP JUMP JUMPDEST PUSH0 DUP2 CALLDATALOAD SWAP1 POP PUSH2 0x849 DUP2 PUSH2 0x825 JUMP JUMPDEST SWAP3 SWAP2 POP POP JUMP JUMPDEST PUSH0 PUSH1 0x20 DUP3 DUP5 SUB SLT ISZERO PUSH2 0x864 JUMPI PUSH2 0x863 PUSH2 0x814 JUMP JUMPDEST JUMPDEST PUSH0 PUSH2 0x871 DUP5 DUP3 DUP6 ADD PUSH2 0x83B JUMP JUMPDEST SWAP2 POP POP SWAP3 SWAP2 POP POP JUMP JUMPDEST PUSH0 PUSH20 0xFFFFFFFFFFFFFFFFFFFFFFFFFFFFFFFFFFFFFFFF DUP3 AND SWAP1 POP SWAP2 SWAP1 POP JUMP JUMPDEST PUSH0 PUSH2 0x8A3 DUP3 PUSH2 0x87A JUMP JUMPDEST SWAP1 POP SWAP2 SWAP1 POP JUMP JUMPDEST PUSH2 0x8B3 DUP2 PUSH2 0x899 JUMP JUMPDEST DUP2 EQ PUSH2 0x8BD JUMPI PUSH0 PUSH0 REVERT JUMPDEST POP JUMP JUMPDEST PUSH0 DUP2 CALLDATALOAD SWAP1 POP PUSH2 0x8CE DUP2 PUSH2 0x8AA JUMP JUMPDEST SWAP3 SWAP2 POP POP JUMP JUMPDEST PUSH0 PUSH1 0x20 DUP3 DUP5 SUB SLT ISZERO PUSH2 0x8E9 JUMPI PUSH2 0x8E8 PUSH2 0x814 JUMP JUMPDEST JUMPDEST PUSH0 PUSH2 0x8F6 DUP5 DUP3 DUP6 ADD PUSH2 0x8C0 JUMP JUMPDEST SWAP2 POP POP SWAP3 SWAP2 POP POP JUMP JUMPDEST PUSH0 DUP2 ISZERO ISZERO SWAP1 POP SWAP2 SWAP1 POP JUMP JUMPDEST PUSH2 0x913 DUP2 PUSH2 0x8FF JUMP JUMPDEST DUP3 MSTORE POP POP JUMP JUMPDEST PUSH0 PUSH1 0x20 DUP3 ADD SWAP1 POP PUSH2 0x92C PUSH0 DUP4 ADD DUP5 PUSH2 0x90A JUMP JUMPDEST SWAP3 SWAP2 POP POP JUMP JUMPDEST PUSH2 0x93B DUP2 PUSH2 0x81C JUMP JUMPDEST DUP3 MSTORE POP POP JUMP JUMPDEST PUSH0 PUSH1 0x20 DUP3 ADD SWAP1 POP PUSH2 0x954 PUSH0 DUP4 ADD DUP5 PUSH2 0x932 JUMP JUMPDEST SWAP3 SWAP2 POP POP JUMP JUMPDEST PUSH0 DUP2 MLOAD SWAP1 POP SWAP2 SWAP1 POP JUMP JUMPDEST PUSH0 DUP3 DUP3 MSTORE PUSH1 0x20 DUP3 ADD SWAP1 POP SWAP3 SWAP2 POP POP JUMP JUMPDEST DUP3 DUP2 DUP4 MCOPY PUSH0 DUP4 DUP4 ADD MSTORE POP POP POP JUMP JUMPDEST PUSH0 PUSH1 0x1F NOT PUSH1 0x1F DUP4 ADD AND SWAP1 POP SWAP2 SWAP1 POP JUMP JUMPDEST PUSH0 PUSH2 0x99C DUP3 PUSH2 0x95A JUMP JUMPDEST PUSH2 0x9A6 DUP2 DUP6 PUSH2 0x964 JUMP JUMPDEST SWAP4 POP PUSH2 0x9B6 DUP2 DUP6 PUSH1 0x20 DUP7 ADD PUSH2 0x974 JUMP JUMPDEST PUSH2 0x9BF DUP2 PUSH2 0x982 JUMP JUMPDEST DUP5 ADD SWAP2 POP POP SWAP3 SWAP2 POP POP JUMP JUMPDEST PUSH0 PUSH1 0x40 DUP3 ADD SWAP1 POP DUP2 DUP2 SUB PUSH0 DUP4 ADD MSTORE PUSH2 0x9E2 DUP2 DUP6 PUSH2 0x992 JUMP JUMPDEST SWAP1 POP PUSH2 0x9F1 PUSH1 0x20 DUP4 ADD DUP5 PUSH2 0x932 JUMP JUMPDEST SWAP4 SWAP3 POP POP POP JUMP JUMPDEST PUSH0 PUSH0 REVERT JUMPDEST PUSH0 PUSH0 REVERT JUMPDEST PUSH32 0x4E487B7100000000000000000000000000000000000000000000000000000000 PUSH0 MSTORE PUSH1 0x41 PUSH1 0x4 MSTORE PUSH1 0x24 PUSH0 REVERT JUMPDEST PUSH2 0xA36 DUP3 PUSH2 0x982 JUMP JUMPDEST DUP2 ADD DUP2 DUP2 LT PUSH8 0xFFFFFFFFFFFFFFFF DUP3 GT OR ISZERO PUSH2 0xA55 JUMPI PUSH2 0xA54 PUSH2 0xA00 JUMP JUMPDEST JUMPDEST DUP1 PUSH1 0x40 MSTORE POP POP POP JUMP JUMPDEST PUSH0 PUSH2 0xA67 PUSH2 0x80B JUMP JUMPDEST SWAP1 POP PUSH2 0xA73 DUP3 DUP3 PUSH2 0xA2D JUMP JUMPDEST SWAP2 SWAP1 POP JUMP JUMPDEST PUSH0 PUSH8 0xFFFFFFFFFFFFFFFF DUP3 GT ISZERO PUSH2 0xA92 JUMPI PUSH2 0xA91 PUSH2 0xA00 JUMP JUMPDEST JUMPDEST PUSH2 0xA9B DUP3 PUSH2 0x982 JUMP JUMPDEST SWAP1 POP PUSH1 0x20 DUP2 ADD SWAP1 POP SWAP2 SWAP1 POP JUMP JUMPDEST DUP3 DUP2 DUP4 CALLDATACOPY PUSH0 DUP4 DUP4 ADD MSTORE POP POP POP JUMP JUMPDEST PUSH0 PUSH2 0xAC8 PUSH2 0xAC3 DUP5 PUSH2 0xA78 JUMP JUMPDEST PUSH2 0xA5E JUMP JUMPDEST SWAP1 POP DUP3 DUP2 MSTORE PUSH1 0x20 DUP2 ADD DUP5 DUP5 DUP5 ADD GT ISZERO PUSH2 0xAE4 JUMPI PUSH2 0xAE3 PUSH2 0x9FC JUMP JUMPDEST JUMPDEST PUSH2 0xAEF DUP5 DUP3 DUP6 PUSH2 0xAA8 JUMP JUMPDEST POP SWAP4 SWAP3 POP POP POP JUMP JUMPDEST PUSH0 DUP3 PUSH1 0x1F DUP4 ADD SLT PUSH2 0xB0B JUMPI PUSH2 0xB0A PUSH2 0x9F8 JUMP JUMPDEST JUMPDEST DUP2 CALLDATALOAD PUSH2 0xB1B DUP5 DUP3 PUSH1 0x20 DUP7 ADD PUSH2 0xAB6 JUMP JUMPDEST SWAP2 POP POP SWAP3 SWAP2 POP POP JUMP JUMPDEST PUSH0 PUSH1 0x20 DUP3 DUP5 SUB SLT ISZERO PUSH2 0xB39 JUMPI PUSH2 0xB38 PUSH2 0x814 JUMP JUMPDEST JUMPDEST PUSH0 DUP3 ADD CALLDATALOAD PUSH8 0xFFFFFFFFFFFFFFFF DUP2 GT ISZERO PUSH2 0xB56 JUMPI PUSH2 0xB55 PUSH2 0x818 JUMP JUMPDEST JUMPDEST PUSH2 0xB62 DUP5 DUP3 DUP6 ADD PUSH2 0xAF7 JUMP JUMPDEST SWAP2 POP POP SWAP3 SWAP2 POP POP JUMP JUMPDEST PUSH2 0xB74 DUP2 PUSH2 0x899 JUMP JUMPDEST DUP3 MSTORE POP POP JUMP JUMPDEST PUSH0 PUSH1 0x20 DUP3 ADD SWAP1 POP PUSH2 0xB8D PUSH0 DUP4 ADD DUP5 PUSH2 0xB6B JUMP JUMPDEST SWAP3 SWAP2 POP POP JUMP JUMPDEST PUSH32 0x416C726561647920766F74656400000000000000000000000000000000000000 PUSH0 DUP3 ADD MSTORE POP JUMP JUMPDEST PUSH0 PUSH2 0xBC7 PUSH1 0xD DUP4 PUSH2 0x964 JUMP JUMPDEST SWAP2 POP PUSH2 0xBD2 DUP3 PUSH2 0xB93 JUMP JUMPDEST PUSH1 0x20 DUP3 ADD SWAP1 POP SWAP2 SWAP1 POP JUMP JUMPDEST PUSH0 PUSH1 0x20 DUP3 ADD SWAP1 POP DUP2 DUP2 SUB PUSH0 DUP4 ADD MSTORE PUSH2 0xBF4 DUP2 PUSH2 0xBBB JUMP JUMPDEST SWAP1 POP SWAP2 SWAP1 POP JUMP JUMPDEST PUSH32 0x496E76616C69642063616E646964617465000000000000000000000000000000 PUSH0 DUP3 ADD MSTORE POP JUMP JUMPDEST PUSH0 PUSH2 0xC2F PUSH1 0x11 DUP4 PUSH2 0x964 JUMP JUMPDEST SWAP2 POP PUSH2 0xC3A DUP3 PUSH2 0xBFB JUMP JUMPDEST PUSH1 0x20 DUP3 ADD SWAP1 POP SWAP2 SWAP1 POP JUMP JUMPDEST PUSH0 PUSH1 0x20 DUP3 ADD SWAP1 POP DUP2 DUP2 SUB PUSH0 DUP4 ADD MSTORE PUSH2 0xC5C DUP2 PUSH2 0xC23 JUMP JUMPDEST SWAP1 POP SWAP2 SWAP1 POP JUMP JUMPDEST PUSH32 0x4E487B7100000000000000000000000000000000000000000000000000000000 PUSH0 MSTORE PUSH1 0x32 PUSH1 0x4 MSTORE PUSH1 0x24 PUSH0 REVERT JUMPDEST PUSH32 0x4E487B7100000000000000000000000000000000000000000000000000000000 PUSH0 MSTORE PUSH1 0x11 PUSH1 0x4 MSTORE PUSH1 0x24 PUSH0 REVERT JUMPDEST PUSH0 PUSH2 0xCC7 DUP3 PUSH2 0x81C JUMP JUMPDEST SWAP2 POP PUSH32 0xFFFFFFFFFFFFFFFFFFFFFFFFFFFFFFFFFFFFFFFFFFFFFFFFFFFFFFFFFFFFFFFF DUP3 SUB PUSH2 0xCF9 JUMPI PUSH2 0xCF8 PUSH2 0xC90 JUMP JUMPDEST JUMPDEST PUSH1 0x1 DUP3 ADD SWAP1 POP SWAP2 SWAP1 POP JUMP JUMPDEST PUSH0 PUSH1 0x40 DUP3 ADD SWAP1 POP PUSH2 0xD17 PUSH0 DUP4 ADD DUP6 PUSH2 0xB6B JUMP JUMPDEST PUSH2 0xD24 PUSH1 0x20 DUP4 ADD DUP5 PUSH2 0x932 JUMP JUMPDEST SWAP4 SWAP3 POP POP POP JUMP JUMPDEST PUSH32 0x4E487B7100000000000000000000000000000000000000000000000000000000 PUSH0 MSTORE PUSH1 0x22 PUSH1 0x4 MSTORE PUSH1 0x24 PUSH0 REVERT JUMPDEST PUSH0 PUSH1 0x2 DUP3 DIV SWAP1 POP PUSH1 0x1 DUP3 AND DUP1 PUSH2 0xD6F JUMPI PUSH1 0x7F DUP3 AND SWAP2 POP JUMPDEST PUSH1 0x20 DUP3 LT DUP2 SUB PUSH2 0xD82 JUMPI PUSH2 0xD81 PUSH2 0xD2B JUMP JUMPDEST JUMPDEST POP SWAP2 SWAP1 POP JUMP JUMPDEST PUSH0 DUP2 SWAP1 POP SWAP3 SWAP2 POP POP JUMP JUMPDEST PUSH0 PUSH2 0xD9C DUP3 PUSH2 0x95A JUMP JUMPDEST PUSH2 0xDA6 DUP2 DUP6 PUSH2 0xD88 JUMP JUMPDEST SWAP4 POP PUSH2 0xDB6 DUP2 DUP6 PUSH1 0x20 DUP7 ADD PUSH2 0x974 JUMP JUMPDEST DUP1 DUP5 ADD SWAP2 POP POP SWAP3 SWAP2 POP POP JUMP JUMPDEST PUSH0 PUSH2 0xDCD DUP3 DUP5 PUSH2 0xD92 JUMP JUMPDEST SWAP2 POP DUP2 SWAP1 POP SWAP3 SWAP2 POP POP JUMP JUMPDEST PUSH32 0x43616E64696461746520616C7265616479206578697374730000000000000000 PUSH0 DUP3 ADD MSTORE POP JUMP JUMPDEST PUSH0 PUSH2 0xE0C PUSH1 0x18 DUP4 PUSH2 0x964 JUMP JUMPDEST SWAP2 POP PUSH2 0xE17 DUP3 PUSH2 0xDD8 JUMP JUMPDEST PUSH1 0x20 DUP3 ADD SWAP1 POP SWAP2 SWAP1 POP JUMP JUMPDEST PUSH0 PUSH1 0x20 DUP3 ADD SWAP1 POP DUP2 DUP2 SUB PUSH0 DUP4 ADD MSTORE PUSH2 0xE39 DUP2 PUSH2 0xE00 JUMP JUMPDEST SWAP1 POP SWAP2 SWAP1 POP JUMP JUMPDEST PUSH0 DUP2 SWAP1 POP DUP2 PUSH0 MSTORE PUSH1 0x20 PUSH0 KECCAK256 SWAP1 POP SWAP2 SWAP1 POP JUMP JUMPDEST PUSH0 PUSH1 0x20 PUSH1 0x1F DUP4 ADD DIV SWAP1 POP SWAP2 SWAP1 POP JUMP JUMPDEST PUSH0 DUP3 DUP3 SHL SWAP1 POP SWAP3 SWAP2 POP POP JUMP JUMPDEST PUSH0 PUSH1 0x8 DUP4 MUL PUSH2 0xE9C PUSH32 0xFFFFFFFFFFFFFFFFFFFFFFFFFFFFFFFFFFFFFFFFFFFFFFFFFFFFFFFFFFFFFFFF DUP3 PUSH2 0xE61 JUMP JUMPDEST PUSH2 0xEA6 DUP7 DUP4 PUSH2 0xE61 JUMP JUMPDEST SWAP6 POP DUP1 NOT DUP5 AND SWAP4 POP DUP1 DUP7 AND DUP5 OR SWAP3 POP POP POP SWAP4 SWAP3 POP POP POP JUMP JUMPDEST PUSH0 DUP2 SWAP1 POP SWAP2 SWAP1 POP JUMP JUMPDEST PUSH0 PUSH2 0xEE1 PUSH2 0xEDC PUSH2 0xED7 DUP5 PUSH2 0x81C JUMP JUMPDEST PUSH2 0xEBE JUMP JUMPDEST PUSH2 0x81C JUMP JUMPDEST SWAP1 POP SWAP2 SWAP1 POP JUMP JUMPDEST PUSH0 DUP2 SWAP1 POP SWAP2 SWAP1 POP JUMP JUMPDEST PUSH2 0xEFA DUP4 PUSH2 0xEC7 JUMP JUMPDEST PUSH2 0xF0E PUSH2 0xF06 DUP3 PUSH2 0xEE8 JUMP JUMPDEST DUP5 DUP5 SLOAD PUSH2 0xE6D JUMP JUMPDEST DUP3 SSTORE POP POP POP POP JUMP JUMPDEST PUSH0 PUSH0 SWAP1 POP SWAP1 JUMP JUMPDEST PUSH2 0xF25 PUSH2 0xF16 JUMP JUMPDEST PUSH2 0xF30 DUP2 DUP5 DUP5 PUSH2 0xEF1 JUMP JUMPDEST POP POP POP JUMP JUMPDEST PUSH0 JUMPDEST DUP3 DUP2 LT ISZERO PUSH2 0xF56 JUMPI PUSH2 0xF4B PUSH0 DUP3 DUP5 ADD PUSH2 0xF1D JUMP JUMPDEST PUSH1 0x1 DUP2 ADD SWAP1 POP PUSH2 0xF37 JUMP JUMPDEST POP POP POP JUMP JUMPDEST PUSH1 0x1F DUP3 GT ISZERO PUSH2 0xFA9 JUMPI DUP3 DUP3 GT ISZERO PUSH2 0xFA8 JUMPI PUSH2 0xF75 DUP2 PUSH2 0xE40 JUMP JUMPDEST PUSH2 0xF7E DUP4 PUSH2 0xE52 JUMP JUMPDEST PUSH2 0xF87 DUP6 PUSH2 0xE52 JUMP JUMPDEST PUSH1 0x20 DUP7 LT ISZERO PUSH2 0xF94 JUMPI PUSH0 SWAP1 POP JUMPDEST DUP1 DUP4 ADD PUSH2 0xFA3 DUP3 DUP5 SUB DUP3 PUSH2 0xF35 JUMP JUMPDEST POP POP POP POP JUMPDEST JUMPDEST POP POP POP JUMP JUMPDEST PUSH0 DUP3 DUP3 SHR SWAP1 POP SWAP3 SWAP2 POP POP JUMP JUMPDEST PUSH0 PUSH2 0xFC9 PUSH0 NOT DUP5 PUSH1 0x8 MUL PUSH2 0xFAE JUMP JUMPDEST NOT DUP1 DUP4 AND SWAP2 POP POP SWAP3 SWAP2 POP POP JUMP JUMPDEST PUSH0 PUSH2 0xFE1 DUP4 DUP4 PUSH2 0xFBA JUMP JUMPDEST SWAP2 POP DUP3 PUSH1 0x2 MUL DUP3 OR SWAP1 POP SWAP3 SWAP2 POP POP JUMP JUMPDEST PUSH2 0xFFA DUP3 PUSH2 0x95A JUMP JUMPDEST PUSH8 0xFFFFFFFFFFFFFFFF DUP2 GT ISZERO PUSH2 0x1013 JUMPI PUSH2 0x1012 PUSH2 0xA00 JUMP JUMPDEST JUMPDEST PUSH2 0x101D DUP3 SLOAD PUSH2 0xD58 JUMP JUMPDEST PUSH2 0x1028 DUP3 DUP3 DUP6 PUSH2 0xF5B JUMP JUMPDEST PUSH0 PUSH1 0x20 SWAP1 POP PUSH1 0x1F DUP4 GT PUSH1 0x1 DUP2 EQ PUSH2 0x1059 JUMPI PUSH0 DUP5 ISZERO PUSH2 0x1047 JUMPI DUP3 DUP8 ADD MLOAD SWAP1 POP JUMPDEST PUSH2 0x1051 DUP6 DUP3 PUSH2 0xFD6 JUMP JUMPDEST DUP7 SSTORE POP PUSH2 0x10B8 JUMP JUMPDEST PUSH1 0x1F NOT DUP5 AND PUSH2 0x1067 DUP7 PUSH2 0xE40 JUMP JUMPDEST PUSH0 JUMPDEST DUP3 DUP2 LT ISZERO PUSH2 0x108E JUMPI DUP5 DUP10 ADD MLOAD DUP3 SSTORE PUSH1 0x1 DUP3 ADD SWAP2 POP PUSH1 0x20 DUP6 ADD SWAP5 POP PUSH1 0x20 DUP2 ADD SWAP1 POP PUSH2 0x1069 JUMP JUMPDEST DUP7 DUP4 LT ISZERO PUSH2 0x10AB JUMPI DUP5 DUP10 ADD MLOAD PUSH2 0x10A7 PUSH1 0x1F DUP10 AND DUP3 PUSH2 0xFBA JUMP JUMPDEST DUP4 SSTORE POP JUMPDEST PUSH1 0x1 PUSH1 0x2 DUP9 MUL ADD DUP9 SSTORE POP POP POP JUMPDEST POP POP POP POP POP POP JUMP JUMPDEST PUSH0 PUSH2 0x10CA DUP3 PUSH2 0x81C JUMP JUMPDEST SWAP2 POP PUSH2 0x10D5 DUP4 PUSH2 0x81C JUMP JUMPDEST SWAP3 POP DUP3 DUP3 SUB SWAP1 POP DUP2 DUP2 GT ISZERO PUSH2 0x10ED JUMPI PUSH2 0x10EC PUSH2 0xC90 JUMP JUMPDEST JUMPDEST SWAP3 SWAP2 POP POP JUMP INVALID LOG2 PUSH5 0x6970667358 0x22 SLT KECCAK256 0xF6 DUP16 PUSH15 0xF923CD11585881E011A89125D9E193 SWAP1 SIGNEXTEND ISZERO 0xBC DELEGATECALL PUSH5 0x664B27EAD8 0x2F PUSH27 0x8364736F6C63430008210033000000000000000000000000000000 "
				},
				"gasEstimates": {
					"creation": {
						"codeDepositCost": "878600",
						"executionCost": "infinite",
						"totalCost": "infinite"
					},
					"external": {
						"addCandidate(string)": "infinite",
						"candidates(uint256)": "infinite",
						"getCandidateCount()": "2485",
						"hasVoted(address)": "2856",
						"leadingCandidate()": "infinite",
						"owner()": "2580",
						"renounceOwnership()": "infinite",
						"transferOwnership(address)": "infinite",
						"vote(uint256)": "infinite"
					}
				},
				"methodIdentifiers": {
					"addCandidate(string)": "462e91ec",
					"candidates(uint256)": "3477ee2e",
					"getCandidateCount()": "30a56347",
					"hasVoted(address)": "09eef43e",
					"leadingCandidate()": "47a553ad",
					"owner()": "8da5cb5b",
					"renounceOwnership()": "715018a6",
					"transferOwnership(address)": "f2fde38b",
					"vote(uint256)": "0121b93f"
				}
			},
			"storageLayout": {
				"storage": [
					{
						"astId": 8,
						"contract": "votingSystem.sol:VotingSystem",
						"label": "_owner",
						"offset": 0,
						"slot": "0",
						"type": "t_address"
					},
					{
						"astId": 199,
						"contract": "votingSystem.sol:VotingSystem",
						"label": "hasVoted",
						"offset": 0,
						"slot": "1",
						"type": "t_mapping(t_address,t_bool)"
					},
					{
						"astId": 203,
						"contract": "votingSystem.sol:VotingSystem",
						"label": "_candidateNames",
						"offset": 0,
						"slot": "2",
						"type": "t_mapping(t_string_memory_ptr,t_bool)"
					},
					{
						"astId": 207,
						"contract": "votingSystem.sol:VotingSystem",
						"label": "candidates",
						"offset": 0,
						"slot": "3",
						"type": "t_array(t_struct(Candidate)195_storage)dyn_storage"
					}
				],
				"types": {
					"t_address": {
						"encoding": "inplace",
						"label": "address",
						"numberOfBytes": "20"
					},
					"t_array(t_struct(Candidate)195_storage)dyn_storage": {
						"base": "t_struct(Candidate)195_storage",
						"encoding": "dynamic_array",
						"label": "struct VotingSystem.Candidate[]",
						"numberOfBytes": "32"
					},
					"t_bool": {
						"encoding": "inplace",
						"label": "bool",
						"numberOfBytes": "1"
					},
					"t_mapping(t_address,t_bool)": {
						"encoding": "mapping",
						"key": "t_address",
						"label": "mapping(address => bool)",
						"numberOfBytes": "32",
						"value": "t_bool"
					},
					"t_mapping(t_string_memory_ptr,t_bool)": {
						"encoding": "mapping",
						"key": "t_string_memory_ptr",
						"label": "mapping(string => bool)",
						"numberOfBytes": "32",
						"value": "t_bool"
					},
					"t_string_memory_ptr": {
						"encoding": "bytes",
						"label": "string",
						"numberOfBytes": "32"
					},
					"t_string_storage": {
						"encoding": "bytes",
						"label": "string",
						"numberOfBytes": "32"
					},
					"t_struct(Candidate)195_storage": {
						"encoding": "inplace",
						"label": "struct VotingSystem.Candidate",
						"members": [
							{
								"astId": 192,
								"contract": "votingSystem.sol:VotingSystem",
								"label": "name",
								"offset": 0,
								"slot": "0",
								"type": "t_string_storage"
							},
							{
								"astId": 194,
								"contract": "votingSystem.sol:VotingSystem",
								"label": "voteCount",
								"offset": 0,
								"slot": "1",
								"type": "t_uint256"
							}
						],
						"numberOfBytes": "64"
					},
					"t_uint256": {
						"encoding": "inplace",
						"label": "uint256",
						"numberOfBytes": "32"
					}
				}
			},
			"userdoc": {
				"kind": "user",
				"methods": {},
				"version": 1
			}
		}
	}
}