{
	"votingSystem.sol": {
		"votingSystem": {
			"abi": [
				{
					"inputs": [
						{
							"internalType": "string",
							"name": "_name",
							"type": "string"
						}
					],
					"name": "addCandidate",
					"outputs": [],
					"stateMutability": "nonpayable",
					"type": "function"
				},
				{
					"inputs": [
						{
							"internalType": "uint256",
							"name": "",
							"type": "uint256"
						}
					],
					"name": "candidates",
					"outputs": [
						{
							"internalType": "string",
							"name": "name",
							"type": "string"
						},
						{
							"internalType": "uint256",
							"name": "voteCount",
							"type": "uint256"
						}
					],
					"stateMutability": "view",
					"type": "function"
				},
				{
					"inputs": [
						{
							"internalType": "address",
							"name": "",
							"type": "address"
						}
					],
					"name": "hasVoted",
					"outputs": [
						{
							"internalType": "bool",
							"name": "",
							"type": "bool"
						}
					],
					"stateMutability": "view",
					"type": "function"
				},
				{
					"inputs": [
						{
							"internalType": "uint256",
							"name": "_candidateIndex",
							"type": "uint256"
						}
					],
					"name": "vote",
					"outputs": [],
					"stateMutability": "nonpayable",
					"type": "function"
				}
			],
			"devdoc": {
				"kind": "dev",
				"methods": {},
				"version": 1
			},
			"evm": {
				"assembly": "    /* \"votingSystem.sol\":63:632  contract votingSystem{... */\n  mstore(0x40, 0x80)\n  callvalue\n  dup1\n  iszero\n  tag_1\n  jumpi\n  revert(0x00, 0x00)\ntag_1:\n  pop\n  dataSize(sub_0)\n  dup1\n  dataOffset(sub_0)\n  0x00\n  codecopy\n  0x00\n  return\nstop\n\nsub_0: assembly {\n        /* \"votingSystem.sol\":63:632  contract votingSystem{... */\n      mstore(0x40, 0x80)\n      callvalue\n      dup1\n      iszero\n      tag_1\n      jumpi\n      revert(0x00, 0x00)\n    tag_1:\n      pop\n      jumpi(tag_2, lt(calldatasize, 0x04))\n      shr(0xe0, calldataload(0x00))\n      dup1\n      0x0121b93f\n      eq\n      tag_3\n      jumpi\n      dup1\n      0x09eef43e\n      eq\n      tag_4\n      jumpi\n      dup1\n      0x3477ee2e\n      eq\n      tag_5\n      jumpi\n      dup1\n      0x462e91ec\n      eq\n      tag_6\n      jumpi\n    tag_2:\n      revert(0x00, 0x00)\n        /* \"votingSystem.sol\":413:627  function vote(uint256 _candidateIndex) public {... */\n    tag_3:\n      tag_7\n      0x04\n      dup1\n      calldatasize\n      sub\n      dup2\n      add\n      swap1\n      tag_8\n      swap2\n      swap1\n      tag_9\n      jump\t// in\n    tag_8:\n      tag_10\n      jump\t// in\n    tag_7:\n      stop\n        /* \"votingSystem.sol\":172:213  mapping (address => bool) public hasVoted */\n    tag_4:\n      tag_11\n      0x04\n      dup1\n      calldatasize\n      sub\n      dup2\n      add\n      swap1\n      tag_12\n      swap2\n      swap1\n      tag_13\n      jump\t// in\n    tag_12:\n      tag_14\n      jump\t// in\n    tag_11:\n      mload(0x40)\n      tag_15\n      swap2\n      swap1\n      tag_16\n      jump\t// in\n    tag_15:\n      mload(0x40)\n      dup1\n      swap2\n      sub\n      swap1\n      return\n        /* \"votingSystem.sol\":220:249  Candidate[] public candidates */\n    tag_5:\n      tag_17\n      0x04\n      dup1\n      calldatasize\n      sub\n      dup2\n      add\n      swap1\n      tag_18\n      swap2\n      swap1\n      tag_9\n      jump\t// in\n    tag_18:\n      tag_19\n      jump\t// in\n    tag_17:\n      mload(0x40)\n      tag_20\n      swap3\n      swap2\n      swap1\n      tag_21\n      jump\t// in\n    tag_20:\n      mload(0x40)\n      dup1\n      swap2\n      sub\n      swap1\n      return\n        /* \"votingSystem.sol\":279:384  function addCandidate(string memory _name) public {... */\n    tag_6:\n      tag_22\n      0x04\n      dup1\n      calldatasize\n      sub\n      dup2\n      add\n      swap1\n      tag_23\n      swap2\n      swap1\n      tag_24\n      jump\t// in\n    tag_23:\n      tag_25\n      jump\t// in\n    tag_22:\n      stop\n        /* \"votingSystem.sol\":413:627  function vote(uint256 _candidateIndex) public {... */\n    tag_10:\n        /* \"votingSystem.sol\":479:487  hasVoted */\n      0x00\n        /* \"votingSystem.sol\":479:499  hasVoted[msg.sender] */\n      0x00\n        /* \"votingSystem.sol\":488:498  msg.sender */\n      caller\n        /* \"votingSystem.sol\":479:499  hasVoted[msg.sender] */\n      0xffffffffffffffffffffffffffffffffffffffff\n      and\n      0xffffffffffffffffffffffffffffffffffffffff\n      and\n      dup2\n      mstore\n      0x20\n      add\n      swap1\n      dup2\n      mstore\n      0x20\n      add\n      0x00\n      keccak256\n      0x00\n      swap1\n      sload\n      swap1\n      0x0100\n      exp\n      swap1\n      div\n      0xff\n      and\n        /* \"votingSystem.sol\":478:499  !hasVoted[msg.sender] */\n      iszero\n        /* \"votingSystem.sol\":470:526  require(!hasVoted[msg.sender], \"You have already voted\") */\n      tag_27\n      jumpi\n      mload(0x40)\n      0x08c379a000000000000000000000000000000000000000000000000000000000\n      dup2\n      mstore\n      0x04\n      add\n      tag_28\n      swap1\n      tag_29\n      jump\t// in\n    tag_28:\n      mload(0x40)\n      dup1\n      swap2\n      sub\n      swap1\n      revert\n    tag_27:\n        /* \"votingSystem.sol\":580:581  1 */\n      0x01\n        /* \"votingSystem.sol\":539:549  candidates */\n      dup1\n        /* \"votingSystem.sol\":550:565  _candidateIndex */\n      dup3\n        /* \"votingSystem.sol\":539:566  candidates[_candidateIndex] */\n      dup2\n      sload\n      dup2\n      lt\n      tag_30\n      jumpi\n      tag_31\n      tag_32\n      jump\t// in\n    tag_31:\n    tag_30:\n      swap1\n      0x00\n      mstore\n      keccak256(0x00, 0x20)\n      swap1\n      0x02\n      mul\n      add\n        /* \"votingSystem.sol\":539:576  candidates[_candidateIndex].voteCount */\n      0x01\n      add\n      0x00\n        /* \"votingSystem.sol\":539:581  candidates[_candidateIndex].voteCount += 1 */\n      dup3\n      dup3\n      sload\n      tag_34\n      swap2\n      swap1\n      tag_35\n      jump\t// in\n    tag_34:\n      swap3\n      pop\n      pop\n      dup2\n      swap1\n      sstore\n      pop\n        /* \"votingSystem.sol\":615:619  true */\n      0x01\n        /* \"votingSystem.sol\":592:600  hasVoted */\n      0x00\n        /* \"votingSystem.sol\":592:612  hasVoted[msg.sender] */\n      0x00\n        /* \"votingSystem.sol\":601:611  msg.sender */\n      caller\n        /* \"votingSystem.sol\":592:612  hasVoted[msg.sender] */\n      0xffffffffffffffffffffffffffffffffffffffff\n      and\n      0xffffffffffffffffffffffffffffffffffffffff\n      and\n      dup2\n      mstore\n      0x20\n      add\n      swap1\n      dup2\n      mstore\n      0x20\n      add\n      0x00\n      keccak256\n      0x00\n        /* \"votingSystem.sol\":592:619  hasVoted[msg.sender] = true */\n      0x0100\n      exp\n      dup2\n      sload\n      dup2\n      0xff\n      mul\n      not\n      and\n      swap1\n      dup4\n      iszero\n      iszero\n      mul\n      or\n      swap1\n      sstore\n      pop\n        /* \"votingSystem.sol\":413:627  function vote(uint256 _candidateIndex) public {... */\n      pop\n      jump\t// out\n        /* \"votingSystem.sol\":172:213  mapping (address => bool) public hasVoted */\n    tag_14:\n      mstore(0x20, 0x00)\n      dup1\n      0x00\n      mstore\n      keccak256(0x00, 0x40)\n      0x00\n      swap2\n      pop\n      sload\n      swap1\n      0x0100\n      exp\n      swap1\n      div\n      0xff\n      and\n      dup2\n      jump\t// out\n        /* \"votingSystem.sol\":220:249  Candidate[] public candidates */\n    tag_19:\n      0x01\n      dup2\n      dup2\n      sload\n      dup2\n      lt\n      tag_36\n      jumpi\n      0x00\n      dup1\n      revert\n    tag_36:\n      swap1\n      0x00\n      mstore\n      keccak256(0x00, 0x20)\n      swap1\n      0x02\n      mul\n      add\n      0x00\n      swap2\n      pop\n      swap1\n      pop\n      dup1\n      0x00\n      add\n      dup1\n      sload\n      tag_38\n      swap1\n      tag_39\n      jump\t// in\n    tag_38:\n      dup1\n      0x1f\n      add\n      0x20\n      dup1\n      swap2\n      div\n      mul\n      0x20\n      add\n      mload(0x40)\n      swap1\n      dup2\n      add\n      0x40\n      mstore\n      dup1\n      swap3\n      swap2\n      swap1\n      dup2\n      dup2\n      mstore\n      0x20\n      add\n      dup3\n      dup1\n      sload\n      tag_40\n      swap1\n      tag_39\n      jump\t// in\n    tag_40:\n      dup1\n      iszero\n      tag_41\n      jumpi\n      dup1\n      0x1f\n      lt\n      tag_42\n      jumpi\n      0x0100\n      dup1\n      dup4\n      sload\n      div\n      mul\n      dup4\n      mstore\n      swap2\n      0x20\n      add\n      swap2\n      jump(tag_41)\n    tag_42:\n      dup3\n      add\n      swap2\n      swap1\n      0x00\n      mstore\n      keccak256(0x00, 0x20)\n      swap1\n    tag_43:\n      dup2\n      sload\n      dup2\n      mstore\n      swap1\n      0x01\n      add\n      swap1\n      0x20\n      add\n      dup1\n      dup4\n      gt\n      tag_43\n      jumpi\n      dup3\n      swap1\n      sub\n      0x1f\n      and\n      dup3\n      add\n      swap2\n    tag_41:\n      pop\n      pop\n      pop\n      pop\n      pop\n      swap1\n      dup1\n      0x01\n      add\n      sload\n      swap1\n      pop\n      dup3\n      jump\t// out\n        /* \"votingSystem.sol\":279:384  function addCandidate(string memory _name) public {... */\n    tag_25:\n        /* \"votingSystem.sol\":340:350  candidates */\n      0x01\n        /* \"votingSystem.sol\":356:375  Candidate(_name, 0) */\n      mload(0x40)\n      dup1\n      0x40\n      add\n      0x40\n      mstore\n      dup1\n        /* \"votingSystem.sol\":366:371  _name */\n      dup4\n        /* \"votingSystem.sol\":356:375  Candidate(_name, 0) */\n      dup2\n      mstore\n      0x20\n      add\n        /* \"votingSystem.sol\":373:374  0 */\n      0x00\n        /* \"votingSystem.sol\":356:375  Candidate(_name, 0) */\n      dup2\n      mstore\n      pop\n        /* \"votingSystem.sol\":340:376  candidates.push(Candidate(_name, 0)) */\n      swap1\n      dup1\n      0x01\n      dup2\n      sload\n      add\n      dup1\n      dup3\n      sstore\n      dup1\n      swap2\n      pop\n      pop\n      0x01\n      swap1\n      sub\n      swap1\n      0x00\n      mstore\n      keccak256(0x00, 0x20)\n      swap1\n      0x02\n      mul\n      add\n      0x00\n      swap1\n      swap2\n      swap1\n      swap2\n      swap1\n      swap2\n      pop\n      0x00\n      dup3\n      add\n      mload\n      dup2\n      0x00\n      add\n      swap1\n      dup2\n      tag_46\n      swap2\n      swap1\n      tag_47\n      jump\t// in\n    tag_46:\n      pop\n      0x20\n      dup3\n      add\n      mload\n      dup2\n      0x01\n      add\n      sstore\n      pop\n      pop\n        /* \"votingSystem.sol\":279:384  function addCandidate(string memory _name) public {... */\n      pop\n      jump\t// out\n        /* \"#utility.yul\":7:82   */\n    tag_48:\n        /* \"#utility.yul\":40:46   */\n      0x00\n        /* \"#utility.yul\":73:75   */\n      0x40\n        /* \"#utility.yul\":67:76   */\n      mload\n        /* \"#utility.yul\":57:76   */\n      swap1\n      pop\n        /* \"#utility.yul\":7:82   */\n      swap1\n      jump\t// out\n        /* \"#utility.yul\":88:205   */\n    tag_49:\n        /* \"#utility.yul\":197:198   */\n      0x00\n        /* \"#utility.yul\":194:195   */\n      0x00\n        /* \"#utility.yul\":187:199   */\n      revert\n        /* \"#utility.yul\":211:328   */\n    tag_50:\n        /* \"#utility.yul\":320:321   */\n      0x00\n        /* \"#utility.yul\":317:318   */\n      0x00\n        /* \"#utility.yul\":310:322   */\n      revert\n        /* \"#utility.yul\":334:411   */\n    tag_51:\n        /* \"#utility.yul\":371:378   */\n      0x00\n        /* \"#utility.yul\":400:405   */\n      dup2\n        /* \"#utility.yul\":389:405   */\n      swap1\n      pop\n        /* \"#utility.yul\":334:411   */\n      swap2\n      swap1\n      pop\n      jump\t// out\n        /* \"#utility.yul\":417:539   */\n    tag_52:\n        /* \"#utility.yul\":490:514   */\n      tag_100\n        /* \"#utility.yul\":508:513   */\n      dup2\n        /* \"#utility.yul\":490:514   */\n      tag_51\n      jump\t// in\n    tag_100:\n        /* \"#utility.yul\":483:488   */\n      dup2\n        /* \"#utility.yul\":480:515   */\n      eq\n        /* \"#utility.yul\":470:533   */\n      tag_101\n      jumpi\n        /* \"#utility.yul\":529:530   */\n      0x00\n        /* \"#utility.yul\":526:527   */\n      0x00\n        /* \"#utility.yul\":519:531   */\n      revert\n        /* \"#utility.yul\":470:533   */\n    tag_101:\n        /* \"#utility.yul\":417:539   */\n      pop\n      jump\t// out\n        /* \"#utility.yul\":545:684   */\n    tag_53:\n        /* \"#utility.yul\":591:596   */\n      0x00\n        /* \"#utility.yul\":629:635   */\n      dup2\n        /* \"#utility.yul\":616:636   */\n      calldataload\n        /* \"#utility.yul\":607:636   */\n      swap1\n      pop\n        /* \"#utility.yul\":645:678   */\n      tag_103\n        /* \"#utility.yul\":672:677   */\n      dup2\n        /* \"#utility.yul\":645:678   */\n      tag_52\n      jump\t// in\n    tag_103:\n        /* \"#utility.yul\":545:684   */\n      swap3\n      swap2\n      pop\n      pop\n      jump\t// out\n        /* \"#utility.yul\":690:1019   */\n    tag_9:\n        /* \"#utility.yul\":749:755   */\n      0x00\n        /* \"#utility.yul\":798:800   */\n      0x20\n        /* \"#utility.yul\":786:795   */\n      dup3\n        /* \"#utility.yul\":777:784   */\n      dup5\n        /* \"#utility.yul\":773:796   */\n      sub\n        /* \"#utility.yul\":769:801   */\n      slt\n        /* \"#utility.yul\":766:885   */\n      iszero\n      tag_105\n      jumpi\n        /* \"#utility.yul\":804:883   */\n      tag_106\n      tag_49\n      jump\t// in\n    tag_106:\n        /* \"#utility.yul\":766:885   */\n    tag_105:\n        /* \"#utility.yul\":924:925   */\n      0x00\n        /* \"#utility.yul\":949:1002   */\n      tag_107\n        /* \"#utility.yul\":994:1001   */\n      dup5\n        /* \"#utility.yul\":985:991   */\n      dup3\n        /* \"#utility.yul\":974:983   */\n      dup6\n        /* \"#utility.yul\":970:992   */\n      add\n        /* \"#utility.yul\":949:1002   */\n      tag_53\n      jump\t// in\n    tag_107:\n        /* \"#utility.yul\":939:1002   */\n      swap2\n      pop\n        /* \"#utility.yul\":895:1012   */\n      pop\n        /* \"#utility.yul\":690:1019   */\n      swap3\n      swap2\n      pop\n      pop\n      jump\t// out\n        /* \"#utility.yul\":1025:1151   */\n    tag_54:\n        /* \"#utility.yul\":1062:1069   */\n      0x00\n        /* \"#utility.yul\":1102:1144   */\n      0xffffffffffffffffffffffffffffffffffffffff\n        /* \"#utility.yul\":1095:1100   */\n      dup3\n        /* \"#utility.yul\":1091:1145   */\n      and\n        /* \"#utility.yul\":1080:1145   */\n      swap1\n      pop\n        /* \"#utility.yul\":1025:1151   */\n      swap2\n      swap1\n      pop\n      jump\t// out\n        /* \"#utility.yul\":1157:1253   */\n    tag_55:\n        /* \"#utility.yul\":1194:1201   */\n      0x00\n        /* \"#utility.yul\":1223:1247   */\n      tag_110\n        /* \"#utility.yul\":1241:1246   */\n      dup3\n        /* \"#utility.yul\":1223:1247   */\n      tag_54\n      jump\t// in\n    tag_110:\n        /* \"#utility.yul\":1212:1247   */\n      swap1\n      pop\n        /* \"#utility.yul\":1157:1253   */\n      swap2\n      swap1\n      pop\n      jump\t// out\n        /* \"#utility.yul\":1259:1381   */\n    tag_56:\n        /* \"#utility.yul\":1332:1356   */\n      tag_112\n        /* \"#utility.yul\":1350:1355   */\n      dup2\n        /* \"#utility.yul\":1332:1356   */\n      tag_55\n      jump\t// in\n    tag_112:\n        /* \"#utility.yul\":1325:1330   */\n      dup2\n        /* \"#utility.yul\":1322:1357   */\n      eq\n        /* \"#utility.yul\":1312:1375   */\n      tag_113\n      jumpi\n        /* \"#utility.yul\":1371:1372   */\n      0x00\n        /* \"#utility.yul\":1368:1369   */\n      0x00\n        /* \"#utility.yul\":1361:1373   */\n      revert\n        /* \"#utility.yul\":1312:1375   */\n    tag_113:\n        /* \"#utility.yul\":1259:1381   */\n      pop\n      jump\t// out\n        /* \"#utility.yul\":1387:1526   */\n    tag_57:\n        /* \"#utility.yul\":1433:1438   */\n      0x00\n        /* \"#utility.yul\":1471:1477   */\n      dup2\n        /* \"#utility.yul\":1458:1478   */\n      calldataload\n        /* \"#utility.yul\":1449:1478   */\n      swap1\n      pop\n        /* \"#utility.yul\":1487:1520   */\n      tag_115\n        /* \"#utility.yul\":1514:1519   */\n      dup2\n        /* \"#utility.yul\":1487:1520   */\n      tag_56\n      jump\t// in\n    tag_115:\n        /* \"#utility.yul\":1387:1526   */\n      swap3\n      swap2\n      pop\n      pop\n      jump\t// out\n        /* \"#utility.yul\":1532:1861   */\n    tag_13:\n        /* \"#utility.yul\":1591:1597   */\n      0x00\n        /* \"#utility.yul\":1640:1642   */\n      0x20\n        /* \"#utility.yul\":1628:1637   */\n      dup3\n        /* \"#utility.yul\":1619:1626   */\n      dup5\n        /* \"#utility.yul\":1615:1638   */\n      sub\n        /* \"#utility.yul\":1611:1643   */\n      slt\n        /* \"#utility.yul\":1608:1727   */\n      iszero\n      tag_117\n      jumpi\n        /* \"#utility.yul\":1646:1725   */\n      tag_118\n      tag_49\n      jump\t// in\n    tag_118:\n        /* \"#utility.yul\":1608:1727   */\n    tag_117:\n        /* \"#utility.yul\":1766:1767   */\n      0x00\n        /* \"#utility.yul\":1791:1844   */\n      tag_119\n        /* \"#utility.yul\":1836:1843   */\n      dup5\n        /* \"#utility.yul\":1827:1833   */\n      dup3\n        /* \"#utility.yul\":1816:1825   */\n      dup6\n        /* \"#utility.yul\":1812:1834   */\n      add\n        /* \"#utility.yul\":1791:1844   */\n      tag_57\n      jump\t// in\n    tag_119:\n        /* \"#utility.yul\":1781:1844   */\n      swap2\n      pop\n        /* \"#utility.yul\":1737:1854   */\n      pop\n        /* \"#utility.yul\":1532:1861   */\n      swap3\n      swap2\n      pop\n      pop\n      jump\t// out\n        /* \"#utility.yul\":1867:1957   */\n    tag_58:\n        /* \"#utility.yul\":1901:1908   */\n      0x00\n        /* \"#utility.yul\":1944:1949   */\n      dup2\n        /* \"#utility.yul\":1937:1950   */\n      iszero\n        /* \"#utility.yul\":1930:1951   */\n      iszero\n        /* \"#utility.yul\":1919:1951   */\n      swap1\n      pop\n        /* \"#utility.yul\":1867:1957   */\n      swap2\n      swap1\n      pop\n      jump\t// out\n        /* \"#utility.yul\":1963:2072   */\n    tag_59:\n        /* \"#utility.yul\":2044:2065   */\n      tag_122\n        /* \"#utility.yul\":2059:2064   */\n      dup2\n        /* \"#utility.yul\":2044:2065   */\n      tag_58\n      jump\t// in\n    tag_122:\n        /* \"#utility.yul\":2039:2042   */\n      dup3\n        /* \"#utility.yul\":2032:2066   */\n      mstore\n        /* \"#utility.yul\":1963:2072   */\n      pop\n      pop\n      jump\t// out\n        /* \"#utility.yul\":2078:2288   */\n    tag_16:\n        /* \"#utility.yul\":2165:2169   */\n      0x00\n        /* \"#utility.yul\":2203:2205   */\n      0x20\n        /* \"#utility.yul\":2192:2201   */\n      dup3\n        /* \"#utility.yul\":2188:2206   */\n      add\n        /* \"#utility.yul\":2180:2206   */\n      swap1\n      pop\n        /* \"#utility.yul\":2216:2281   */\n      tag_124\n        /* \"#utility.yul\":2278:2279   */\n      0x00\n        /* \"#utility.yul\":2267:2276   */\n      dup4\n        /* \"#utility.yul\":2263:2280   */\n      add\n        /* \"#utility.yul\":2254:2260   */\n      dup5\n        /* \"#utility.yul\":2216:2281   */\n      tag_59\n      jump\t// in\n    tag_124:\n        /* \"#utility.yul\":2078:2288   */\n      swap3\n      swap2\n      pop\n      pop\n      jump\t// out\n        /* \"#utility.yul\":2294:2393   */\n    tag_60:\n        /* \"#utility.yul\":2346:2352   */\n      0x00\n        /* \"#utility.yul\":2380:2385   */\n      dup2\n        /* \"#utility.yul\":2374:2386   */\n      mload\n        /* \"#utility.yul\":2364:2386   */\n      swap1\n      pop\n        /* \"#utility.yul\":2294:2393   */\n      swap2\n      swap1\n      pop\n      jump\t// out\n        /* \"#utility.yul\":2399:2568   */\n    tag_61:\n        /* \"#utility.yul\":2483:2494   */\n      0x00\n        /* \"#utility.yul\":2517:2523   */\n      dup3\n        /* \"#utility.yul\":2512:2515   */\n      dup3\n        /* \"#utility.yul\":2505:2524   */\n      mstore\n        /* \"#utility.yul\":2557:2561   */\n      0x20\n        /* \"#utility.yul\":2552:2555   */\n      dup3\n        /* \"#utility.yul\":2548:2562   */\n      add\n        /* \"#utility.yul\":2533:2562   */\n      swap1\n      pop\n        /* \"#utility.yul\":2399:2568   */\n      swap3\n      swap2\n      pop\n      pop\n      jump\t// out\n        /* \"#utility.yul\":2574:2713   */\n    tag_62:\n        /* \"#utility.yul\":2663:2669   */\n      dup3\n        /* \"#utility.yul\":2658:2661   */\n      dup2\n        /* \"#utility.yul\":2653:2656   */\n      dup4\n        /* \"#utility.yul\":2647:2670   */\n      mcopy\n        /* \"#utility.yul\":2704:2705   */\n      0x00\n        /* \"#utility.yul\":2695:2701   */\n      dup4\n        /* \"#utility.yul\":2690:2693   */\n      dup4\n        /* \"#utility.yul\":2686:2702   */\n      add\n        /* \"#utility.yul\":2679:2706   */\n      mstore\n        /* \"#utility.yul\":2574:2713   */\n      pop\n      pop\n      pop\n      jump\t// out\n        /* \"#utility.yul\":2719:2821   */\n    tag_63:\n        /* \"#utility.yul\":2760:2766   */\n      0x00\n        /* \"#utility.yul\":2811:2813   */\n      0x1f\n        /* \"#utility.yul\":2807:2814   */\n      not\n        /* \"#utility.yul\":2802:2804   */\n      0x1f\n        /* \"#utility.yul\":2795:2800   */\n      dup4\n        /* \"#utility.yul\":2791:2805   */\n      add\n        /* \"#utility.yul\":2787:2815   */\n      and\n        /* \"#utility.yul\":2777:2815   */\n      swap1\n      pop\n        /* \"#utility.yul\":2719:2821   */\n      swap2\n      swap1\n      pop\n      jump\t// out\n        /* \"#utility.yul\":2827:3204   */\n    tag_64:\n        /* \"#utility.yul\":2915:2918   */\n      0x00\n        /* \"#utility.yul\":2943:2982   */\n      tag_130\n        /* \"#utility.yul\":2976:2981   */\n      dup3\n        /* \"#utility.yul\":2943:2982   */\n      tag_60\n      jump\t// in\n    tag_130:\n        /* \"#utility.yul\":2998:3069   */\n      tag_131\n        /* \"#utility.yul\":3062:3068   */\n      dup2\n        /* \"#utility.yul\":3057:3060   */\n      dup6\n        /* \"#utility.yul\":2998:3069   */\n      tag_61\n      jump\t// in\n    tag_131:\n        /* \"#utility.yul\":2991:3069   */\n      swap4\n      pop\n        /* \"#utility.yul\":3078:3143   */\n      tag_132\n        /* \"#utility.yul\":3136:3142   */\n      dup2\n        /* \"#utility.yul\":3131:3134   */\n      dup6\n        /* \"#utility.yul\":3124:3128   */\n      0x20\n        /* \"#utility.yul\":3117:3122   */\n      dup7\n        /* \"#utility.yul\":3113:3129   */\n      add\n        /* \"#utility.yul\":3078:3143   */\n      tag_62\n      jump\t// in\n    tag_132:\n        /* \"#utility.yul\":3168:3197   */\n      tag_133\n        /* \"#utility.yul\":3190:3196   */\n      dup2\n        /* \"#utility.yul\":3168:3197   */\n      tag_63\n      jump\t// in\n    tag_133:\n        /* \"#utility.yul\":3163:3166   */\n      dup5\n        /* \"#utility.yul\":3159:3198   */\n      add\n        /* \"#utility.yul\":3152:3198   */\n      swap2\n      pop\n        /* \"#utility.yul\":2919:3204   */\n      pop\n        /* \"#utility.yul\":2827:3204   */\n      swap3\n      swap2\n      pop\n      pop\n      jump\t// out\n        /* \"#utility.yul\":3210:3328   */\n    tag_65:\n        /* \"#utility.yul\":3297:3321   */\n      tag_135\n        /* \"#utility.yul\":3315:3320   */\n      dup2\n        /* \"#utility.yul\":3297:3321   */\n      tag_51\n      jump\t// in\n    tag_135:\n        /* \"#utility.yul\":3292:3295   */\n      dup3\n        /* \"#utility.yul\":3285:3322   */\n      mstore\n        /* \"#utility.yul\":3210:3328   */\n      pop\n      pop\n      jump\t// out\n        /* \"#utility.yul\":3334:3757   */\n    tag_21:\n        /* \"#utility.yul\":3475:3479   */\n      0x00\n        /* \"#utility.yul\":3513:3515   */\n      0x40\n        /* \"#utility.yul\":3502:3511   */\n      dup3\n        /* \"#utility.yul\":3498:3516   */\n      add\n        /* \"#utility.yul\":3490:3516   */\n      swap1\n      pop\n        /* \"#utility.yul\":3562:3571   */\n      dup2\n        /* \"#utility.yul\":3556:3560   */\n      dup2\n        /* \"#utility.yul\":3552:3572   */\n      sub\n        /* \"#utility.yul\":3548:3549   */\n      0x00\n        /* \"#utility.yul\":3537:3546   */\n      dup4\n        /* \"#utility.yul\":3533:3550   */\n      add\n        /* \"#utility.yul\":3526:3573   */\n      mstore\n        /* \"#utility.yul\":3590:3668   */\n      tag_137\n        /* \"#utility.yul\":3663:3667   */\n      dup2\n        /* \"#utility.yul\":3654:3660   */\n      dup6\n        /* \"#utility.yul\":3590:3668   */\n      tag_64\n      jump\t// in\n    tag_137:\n        /* \"#utility.yul\":3582:3668   */\n      swap1\n      pop\n        /* \"#utility.yul\":3678:3750   */\n      tag_138\n        /* \"#utility.yul\":3746:3748   */\n      0x20\n        /* \"#utility.yul\":3735:3744   */\n      dup4\n        /* \"#utility.yul\":3731:3749   */\n      add\n        /* \"#utility.yul\":3722:3728   */\n      dup5\n        /* \"#utility.yul\":3678:3750   */\n      tag_65\n      jump\t// in\n    tag_138:\n        /* \"#utility.yul\":3334:3757   */\n      swap4\n      swap3\n      pop\n      pop\n      pop\n      jump\t// out\n        /* \"#utility.yul\":3763:3880   */\n    tag_66:\n        /* \"#utility.yul\":3872:3873   */\n      0x00\n        /* \"#utility.yul\":3869:3870   */\n      0x00\n        /* \"#utility.yul\":3862:3874   */\n      revert\n        /* \"#utility.yul\":3886:4003   */\n    tag_67:\n        /* \"#utility.yul\":3995:3996   */\n      0x00\n        /* \"#utility.yul\":3992:3993   */\n      0x00\n        /* \"#utility.yul\":3985:3997   */\n      revert\n        /* \"#utility.yul\":4009:4189   */\n    tag_68:\n        /* \"#utility.yul\":4057:4134   */\n      0x4e487b7100000000000000000000000000000000000000000000000000000000\n        /* \"#utility.yul\":4054:4055   */\n      0x00\n        /* \"#utility.yul\":4047:4135   */\n      mstore\n        /* \"#utility.yul\":4154:4158   */\n      0x41\n        /* \"#utility.yul\":4151:4152   */\n      0x04\n        /* \"#utility.yul\":4144:4159   */\n      mstore\n        /* \"#utility.yul\":4178:4182   */\n      0x24\n        /* \"#utility.yul\":4175:4176   */\n      0x00\n        /* \"#utility.yul\":4168:4183   */\n      revert\n        /* \"#utility.yul\":4195:4476   */\n    tag_69:\n        /* \"#utility.yul\":4278:4305   */\n      tag_143\n        /* \"#utility.yul\":4300:4304   */\n      dup3\n        /* \"#utility.yul\":4278:4305   */\n      tag_63\n      jump\t// in\n    tag_143:\n        /* \"#utility.yul\":4270:4276   */\n      dup2\n        /* \"#utility.yul\":4266:4306   */\n      add\n        /* \"#utility.yul\":4408:4414   */\n      dup2\n        /* \"#utility.yul\":4396:4406   */\n      dup2\n        /* \"#utility.yul\":4393:4415   */\n      lt\n        /* \"#utility.yul\":4372:4390   */\n      0xffffffffffffffff\n        /* \"#utility.yul\":4360:4370   */\n      dup3\n        /* \"#utility.yul\":4357:4391   */\n      gt\n        /* \"#utility.yul\":4354:4416   */\n      or\n        /* \"#utility.yul\":4351:4439   */\n      iszero\n      tag_144\n      jumpi\n        /* \"#utility.yul\":4419:4437   */\n      tag_145\n      tag_68\n      jump\t// in\n    tag_145:\n        /* \"#utility.yul\":4351:4439   */\n    tag_144:\n        /* \"#utility.yul\":4459:4469   */\n      dup1\n        /* \"#utility.yul\":4455:4457   */\n      0x40\n        /* \"#utility.yul\":4448:4470   */\n      mstore\n        /* \"#utility.yul\":4238:4476   */\n      pop\n        /* \"#utility.yul\":4195:4476   */\n      pop\n      pop\n      jump\t// out\n        /* \"#utility.yul\":4482:4611   */\n    tag_70:\n        /* \"#utility.yul\":4516:4522   */\n      0x00\n        /* \"#utility.yul\":4543:4563   */\n      tag_147\n      tag_48\n      jump\t// in\n    tag_147:\n        /* \"#utility.yul\":4533:4563   */\n      swap1\n      pop\n        /* \"#utility.yul\":4572:4605   */\n      tag_148\n        /* \"#utility.yul\":4600:4604   */\n      dup3\n        /* \"#utility.yul\":4592:4598   */\n      dup3\n        /* \"#utility.yul\":4572:4605   */\n      tag_69\n      jump\t// in\n    tag_148:\n        /* \"#utility.yul\":4482:4611   */\n      swap2\n      swap1\n      pop\n      jump\t// out\n        /* \"#utility.yul\":4617:4925   */\n    tag_71:\n        /* \"#utility.yul\":4679:4683   */\n      0x00\n        /* \"#utility.yul\":4769:4787   */\n      0xffffffffffffffff\n        /* \"#utility.yul\":4761:4767   */\n      dup3\n        /* \"#utility.yul\":4758:4788   */\n      gt\n        /* \"#utility.yul\":4755:4811   */\n      iszero\n      tag_150\n      jumpi\n        /* \"#utility.yul\":4791:4809   */\n      tag_151\n      tag_68\n      jump\t// in\n    tag_151:\n        /* \"#utility.yul\":4755:4811   */\n    tag_150:\n        /* \"#utility.yul\":4829:4858   */\n      tag_152\n        /* \"#utility.yul\":4851:4857   */\n      dup3\n        /* \"#utility.yul\":4829:4858   */\n      tag_63\n      jump\t// in\n    tag_152:\n        /* \"#utility.yul\":4821:4858   */\n      swap1\n      pop\n        /* \"#utility.yul\":4913:4917   */\n      0x20\n        /* \"#utility.yul\":4907:4911   */\n      dup2\n        /* \"#utility.yul\":4903:4918   */\n      add\n        /* \"#utility.yul\":4895:4918   */\n      swap1\n      pop\n        /* \"#utility.yul\":4617:4925   */\n      swap2\n      swap1\n      pop\n      jump\t// out\n        /* \"#utility.yul\":4931:5079   */\n    tag_72:\n        /* \"#utility.yul\":5029:5035   */\n      dup3\n        /* \"#utility.yul\":5024:5027   */\n      dup2\n        /* \"#utility.yul\":5019:5022   */\n      dup4\n        /* \"#utility.yul\":5006:5036   */\n      calldatacopy\n        /* \"#utility.yul\":5070:5071   */\n      0x00\n        /* \"#utility.yul\":5061:5067   */\n      dup4\n        /* \"#utility.yul\":5056:5059   */\n      dup4\n        /* \"#utility.yul\":5052:5068   */\n      add\n        /* \"#utility.yul\":5045:5072   */\n      mstore\n        /* \"#utility.yul\":4931:5079   */\n      pop\n      pop\n      pop\n      jump\t// out\n        /* \"#utility.yul\":5085:5510   */\n    tag_73:\n        /* \"#utility.yul\":5163:5168   */\n      0x00\n        /* \"#utility.yul\":5188:5254   */\n      tag_155\n        /* \"#utility.yul\":5204:5253   */\n      tag_156\n        /* \"#utility.yul\":5246:5252   */\n      dup5\n        /* \"#utility.yul\":5204:5253   */\n      tag_71\n      jump\t// in\n    tag_156:\n        /* \"#utility.yul\":5188:5254   */\n      tag_70\n      jump\t// in\n    tag_155:\n        /* \"#utility.yul\":5179:5254   */\n      swap1\n      pop\n        /* \"#utility.yul\":5277:5283   */\n      dup3\n        /* \"#utility.yul\":5270:5275   */\n      dup2\n        /* \"#utility.yul\":5263:5284   */\n      mstore\n        /* \"#utility.yul\":5315:5319   */\n      0x20\n        /* \"#utility.yul\":5308:5313   */\n      dup2\n        /* \"#utility.yul\":5304:5320   */\n      add\n        /* \"#utility.yul\":5353:5356   */\n      dup5\n        /* \"#utility.yul\":5344:5350   */\n      dup5\n        /* \"#utility.yul\":5339:5342   */\n      dup5\n        /* \"#utility.yul\":5335:5351   */\n      add\n        /* \"#utility.yul\":5332:5357   */\n      gt\n        /* \"#utility.yul\":5329:5441   */\n      iszero\n      tag_157\n      jumpi\n        /* \"#utility.yul\":5360:5439   */\n      tag_158\n      tag_67\n      jump\t// in\n    tag_158:\n        /* \"#utility.yul\":5329:5441   */\n    tag_157:\n        /* \"#utility.yul\":5450:5504   */\n      tag_159\n        /* \"#utility.yul\":5497:5503   */\n      dup5\n        /* \"#utility.yul\":5492:5495   */\n      dup3\n        /* \"#utility.yul\":5487:5490   */\n      dup6\n        /* \"#utility.yul\":5450:5504   */\n      tag_72\n      jump\t// in\n    tag_159:\n        /* \"#utility.yul\":5169:5510   */\n      pop\n        /* \"#utility.yul\":5085:5510   */\n      swap4\n      swap3\n      pop\n      pop\n      pop\n      jump\t// out\n        /* \"#utility.yul\":5530:5870   */\n    tag_74:\n        /* \"#utility.yul\":5586:5591   */\n      0x00\n        /* \"#utility.yul\":5635:5638   */\n      dup3\n        /* \"#utility.yul\":5628:5632   */\n      0x1f\n        /* \"#utility.yul\":5620:5626   */\n      dup4\n        /* \"#utility.yul\":5616:5633   */\n      add\n        /* \"#utility.yul\":5612:5639   */\n      slt\n        /* \"#utility.yul\":5602:5724   */\n      tag_161\n      jumpi\n        /* \"#utility.yul\":5643:5722   */\n      tag_162\n      tag_66\n      jump\t// in\n    tag_162:\n        /* \"#utility.yul\":5602:5724   */\n    tag_161:\n        /* \"#utility.yul\":5760:5766   */\n      dup2\n        /* \"#utility.yul\":5747:5767   */\n      calldataload\n        /* \"#utility.yul\":5785:5864   */\n      tag_163\n        /* \"#utility.yul\":5860:5863   */\n      dup5\n        /* \"#utility.yul\":5852:5858   */\n      dup3\n        /* \"#utility.yul\":5845:5849   */\n      0x20\n        /* \"#utility.yul\":5837:5843   */\n      dup7\n        /* \"#utility.yul\":5833:5850   */\n      add\n        /* \"#utility.yul\":5785:5864   */\n      tag_73\n      jump\t// in\n    tag_163:\n        /* \"#utility.yul\":5776:5864   */\n      swap2\n      pop\n        /* \"#utility.yul\":5592:5870   */\n      pop\n        /* \"#utility.yul\":5530:5870   */\n      swap3\n      swap2\n      pop\n      pop\n      jump\t// out\n        /* \"#utility.yul\":5876:6385   */\n    tag_24:\n        /* \"#utility.yul\":5945:5951   */\n      0x00\n        /* \"#utility.yul\":5994:5996   */\n      0x20\n        /* \"#utility.yul\":5982:5991   */\n      dup3\n        /* \"#utility.yul\":5973:5980   */\n      dup5\n        /* \"#utility.yul\":5969:5992   */\n      sub\n        /* \"#utility.yul\":5965:5997   */\n      slt\n        /* \"#utility.yul\":5962:6081   */\n      iszero\n      tag_165\n      jumpi\n        /* \"#utility.yul\":6000:6079   */\n      tag_166\n      tag_49\n      jump\t// in\n    tag_166:\n        /* \"#utility.yul\":5962:6081   */\n    tag_165:\n        /* \"#utility.yul\":6148:6149   */\n      0x00\n        /* \"#utility.yul\":6137:6146   */\n      dup3\n        /* \"#utility.yul\":6133:6150   */\n      add\n        /* \"#utility.yul\":6120:6151   */\n      calldataload\n        /* \"#utility.yul\":6178:6196   */\n      0xffffffffffffffff\n        /* \"#utility.yul\":6170:6176   */\n      dup2\n        /* \"#utility.yul\":6167:6197   */\n      gt\n        /* \"#utility.yul\":6164:6281   */\n      iszero\n      tag_167\n      jumpi\n        /* \"#utility.yul\":6200:6279   */\n      tag_168\n      tag_50\n      jump\t// in\n    tag_168:\n        /* \"#utility.yul\":6164:6281   */\n    tag_167:\n        /* \"#utility.yul\":6305:6368   */\n      tag_169\n        /* \"#utility.yul\":6360:6367   */\n      dup5\n        /* \"#utility.yul\":6351:6357   */\n      dup3\n        /* \"#utility.yul\":6340:6349   */\n      dup6\n        /* \"#utility.yul\":6336:6358   */\n      add\n        /* \"#utility.yul\":6305:6368   */\n      tag_74\n      jump\t// in\n    tag_169:\n        /* \"#utility.yul\":6295:6368   */\n      swap2\n      pop\n        /* \"#utility.yul\":6091:6378   */\n      pop\n        /* \"#utility.yul\":5876:6385   */\n      swap3\n      swap2\n      pop\n      pop\n      jump\t// out\n        /* \"#utility.yul\":6391:6563   */\n    tag_75:\n        /* \"#utility.yul\":6531:6555   */\n      0x596f75206861766520616c726561647920766f74656400000000000000000000\n        /* \"#utility.yul\":6527:6528   */\n      0x00\n        /* \"#utility.yul\":6519:6525   */\n      dup3\n        /* \"#utility.yul\":6515:6529   */\n      add\n        /* \"#utility.yul\":6508:6556   */\n      mstore\n        /* \"#utility.yul\":6391:6563   */\n      pop\n      jump\t// out\n        /* \"#utility.yul\":6569:6935   */\n    tag_76:\n        /* \"#utility.yul\":6711:6714   */\n      0x00\n        /* \"#utility.yul\":6732:6799   */\n      tag_172\n        /* \"#utility.yul\":6796:6798   */\n      0x16\n        /* \"#utility.yul\":6791:6794   */\n      dup4\n        /* \"#utility.yul\":6732:6799   */\n      tag_61\n      jump\t// in\n    tag_172:\n        /* \"#utility.yul\":6725:6799   */\n      swap2\n      pop\n        /* \"#utility.yul\":6808:6901   */\n      tag_173\n        /* \"#utility.yul\":6897:6900   */\n      dup3\n        /* \"#utility.yul\":6808:6901   */\n      tag_75\n      jump\t// in\n    tag_173:\n        /* \"#utility.yul\":6926:6928   */\n      0x20\n        /* \"#utility.yul\":6921:6924   */\n      dup3\n        /* \"#utility.yul\":6917:6929   */\n      add\n        /* \"#utility.yul\":6910:6929   */\n      swap1\n      pop\n        /* \"#utility.yul\":6569:6935   */\n      swap2\n      swap1\n      pop\n      jump\t// out\n        /* \"#utility.yul\":6941:7360   */\n    tag_29:\n        /* \"#utility.yul\":7107:7111   */\n      0x00\n        /* \"#utility.yul\":7145:7147   */\n      0x20\n        /* \"#utility.yul\":7134:7143   */\n      dup3\n        /* \"#utility.yul\":7130:7148   */\n      add\n        /* \"#utility.yul\":7122:7148   */\n      swap1\n      pop\n        /* \"#utility.yul\":7194:7203   */\n      dup2\n        /* \"#utility.yul\":7188:7192   */\n      dup2\n        /* \"#utility.yul\":7184:7204   */\n      sub\n        /* \"#utility.yul\":7180:7181   */\n      0x00\n        /* \"#utility.yul\":7169:7178   */\n      dup4\n        /* \"#utility.yul\":7165:7182   */\n      add\n        /* \"#utility.yul\":7158:7205   */\n      mstore\n        /* \"#utility.yul\":7222:7353   */\n      tag_175\n        /* \"#utility.yul\":7348:7352   */\n      dup2\n        /* \"#utility.yul\":7222:7353   */\n      tag_76\n      jump\t// in\n    tag_175:\n        /* \"#utility.yul\":7214:7353   */\n      swap1\n      pop\n        /* \"#utility.yul\":6941:7360   */\n      swap2\n      swap1\n      pop\n      jump\t// out\n        /* \"#utility.yul\":7366:7546   */\n    tag_32:\n        /* \"#utility.yul\":7414:7491   */\n      0x4e487b7100000000000000000000000000000000000000000000000000000000\n        /* \"#utility.yul\":7411:7412   */\n      0x00\n        /* \"#utility.yul\":7404:7492   */\n      mstore\n        /* \"#utility.yul\":7511:7515   */\n      0x32\n        /* \"#utility.yul\":7508:7509   */\n      0x04\n        /* \"#utility.yul\":7501:7516   */\n      mstore\n        /* \"#utility.yul\":7535:7539   */\n      0x24\n        /* \"#utility.yul\":7532:7533   */\n      0x00\n        /* \"#utility.yul\":7525:7540   */\n      revert\n        /* \"#utility.yul\":7552:7732   */\n    tag_77:\n        /* \"#utility.yul\":7600:7677   */\n      0x4e487b7100000000000000000000000000000000000000000000000000000000\n        /* \"#utility.yul\":7597:7598   */\n      0x00\n        /* \"#utility.yul\":7590:7678   */\n      mstore\n        /* \"#utility.yul\":7697:7701   */\n      0x11\n        /* \"#utility.yul\":7694:7695   */\n      0x04\n        /* \"#utility.yul\":7687:7702   */\n      mstore\n        /* \"#utility.yul\":7721:7725   */\n      0x24\n        /* \"#utility.yul\":7718:7719   */\n      0x00\n        /* \"#utility.yul\":7711:7726   */\n      revert\n        /* \"#utility.yul\":7738:7929   */\n    tag_35:\n        /* \"#utility.yul\":7778:7781   */\n      0x00\n        /* \"#utility.yul\":7797:7817   */\n      tag_179\n        /* \"#utility.yul\":7815:7816   */\n      dup3\n        /* \"#utility.yul\":7797:7817   */\n      tag_51\n      jump\t// in\n    tag_179:\n        /* \"#utility.yul\":7792:7817   */\n      swap2\n      pop\n        /* \"#utility.yul\":7831:7851   */\n      tag_180\n        /* \"#utility.yul\":7849:7850   */\n      dup4\n        /* \"#utility.yul\":7831:7851   */\n      tag_51\n      jump\t// in\n    tag_180:\n        /* \"#utility.yul\":7826:7851   */\n      swap3\n      pop\n        /* \"#utility.yul\":7874:7875   */\n      dup3\n        /* \"#utility.yul\":7871:7872   */\n      dup3\n        /* \"#utility.yul\":7867:7876   */\n      add\n        /* \"#utility.yul\":7860:7876   */\n      swap1\n      pop\n        /* \"#utility.yul\":7895:7898   */\n      dup1\n        /* \"#utility.yul\":7892:7893   */\n      dup3\n        /* \"#utility.yul\":7889:7899   */\n      gt\n        /* \"#utility.yul\":7886:7922   */\n      iszero\n      tag_181\n      jumpi\n        /* \"#utility.yul\":7902:7920   */\n      tag_182\n      tag_77\n      jump\t// in\n    tag_182:\n        /* \"#utility.yul\":7886:7922   */\n    tag_181:\n        /* \"#utility.yul\":7738:7929   */\n      swap3\n      swap2\n      pop\n      pop\n      jump\t// out\n        /* \"#utility.yul\":7935:8115   */\n    tag_78:\n        /* \"#utility.yul\":7983:8060   */\n      0x4e487b7100000000000000000000000000000000000000000000000000000000\n        /* \"#utility.yul\":7980:7981   */\n      0x00\n        /* \"#utility.yul\":7973:8061   */\n      mstore\n        /* \"#utility.yul\":8080:8084   */\n      0x22\n        /* \"#utility.yul\":8077:8078   */\n      0x04\n        /* \"#utility.yul\":8070:8085   */\n      mstore\n        /* \"#utility.yul\":8104:8108   */\n      0x24\n        /* \"#utility.yul\":8101:8102   */\n      0x00\n        /* \"#utility.yul\":8094:8109   */\n      revert\n        /* \"#utility.yul\":8121:8441   */\n    tag_39:\n        /* \"#utility.yul\":8165:8171   */\n      0x00\n        /* \"#utility.yul\":8202:8203   */\n      0x02\n        /* \"#utility.yul\":8196:8200   */\n      dup3\n        /* \"#utility.yul\":8192:8204   */\n      div\n        /* \"#utility.yul\":8182:8204   */\n      swap1\n      pop\n        /* \"#utility.yul\":8249:8250   */\n      0x01\n        /* \"#utility.yul\":8243:8247   */\n      dup3\n        /* \"#utility.yul\":8239:8251   */\n      and\n        /* \"#utility.yul\":8270:8288   */\n      dup1\n        /* \"#utility.yul\":8260:8341   */\n      tag_185\n      jumpi\n        /* \"#utility.yul\":8326:8330   */\n      0x7f\n        /* \"#utility.yul\":8318:8324   */\n      dup3\n        /* \"#utility.yul\":8314:8331   */\n      and\n        /* \"#utility.yul\":8304:8331   */\n      swap2\n      pop\n        /* \"#utility.yul\":8260:8341   */\n    tag_185:\n        /* \"#utility.yul\":8388:8390   */\n      0x20\n        /* \"#utility.yul\":8380:8386   */\n      dup3\n        /* \"#utility.yul\":8377:8391   */\n      lt\n        /* \"#utility.yul\":8357:8375   */\n      dup2\n        /* \"#utility.yul\":8354:8392   */\n      sub\n        /* \"#utility.yul\":8351:8435   */\n      tag_186\n      jumpi\n        /* \"#utility.yul\":8407:8425   */\n      tag_187\n      tag_78\n      jump\t// in\n    tag_187:\n        /* \"#utility.yul\":8351:8435   */\n    tag_186:\n        /* \"#utility.yul\":8172:8441   */\n      pop\n        /* \"#utility.yul\":8121:8441   */\n      swap2\n      swap1\n      pop\n      jump\t// out\n        /* \"#utility.yul\":8447:8588   */\n    tag_79:\n        /* \"#utility.yul\":8496:8500   */\n      0x00\n        /* \"#utility.yul\":8519:8522   */\n      dup2\n        /* \"#utility.yul\":8511:8522   */\n      swap1\n      pop\n        /* \"#utility.yul\":8542:8545   */\n      dup2\n        /* \"#utility.yul\":8539:8540   */\n      0x00\n        /* \"#utility.yul\":8532:8546   */\n      mstore\n        /* \"#utility.yul\":8576:8580   */\n      0x20\n        /* \"#utility.yul\":8573:8574   */\n      0x00\n        /* \"#utility.yul\":8563:8581   */\n      keccak256\n        /* \"#utility.yul\":8555:8581   */\n      swap1\n      pop\n        /* \"#utility.yul\":8447:8588   */\n      swap2\n      swap1\n      pop\n      jump\t// out\n        /* \"#utility.yul\":8594:8687   */\n    tag_80:\n        /* \"#utility.yul\":8631:8637   */\n      0x00\n        /* \"#utility.yul\":8678:8680   */\n      0x20\n        /* \"#utility.yul\":8673:8675   */\n      0x1f\n        /* \"#utility.yul\":8666:8671   */\n      dup4\n        /* \"#utility.yul\":8662:8676   */\n      add\n        /* \"#utility.yul\":8658:8681   */\n      div\n        /* \"#utility.yul\":8648:8681   */\n      swap1\n      pop\n        /* \"#utility.yul\":8594:8687   */\n      swap2\n      swap1\n      pop\n      jump\t// out\n        /* \"#utility.yul\":8693:8800   */\n    tag_81:\n        /* \"#utility.yul\":8737:8745   */\n      0x00\n        /* \"#utility.yul\":8787:8792   */\n      dup3\n        /* \"#utility.yul\":8781:8785   */\n      dup3\n        /* \"#utility.yul\":8777:8793   */\n      shl\n        /* \"#utility.yul\":8756:8793   */\n      swap1\n      pop\n        /* \"#utility.yul\":8693:8800   */\n      swap3\n      swap2\n      pop\n      pop\n      jump\t// out\n        /* \"#utility.yul\":8806:9199   */\n    tag_82:\n        /* \"#utility.yul\":8875:8881   */\n      0x00\n        /* \"#utility.yul\":8925:8926   */\n      0x08\n        /* \"#utility.yul\":8913:8923   */\n      dup4\n        /* \"#utility.yul\":8909:8927   */\n      mul\n        /* \"#utility.yul\":8948:9045   */\n      tag_192\n        /* \"#utility.yul\":8978:9044   */\n      0xffffffffffffffffffffffffffffffffffffffffffffffffffffffffffffffff\n        /* \"#utility.yul\":8967:8976   */\n      dup3\n        /* \"#utility.yul\":8948:9045   */\n      tag_81\n      jump\t// in\n    tag_192:\n        /* \"#utility.yul\":9066:9105   */\n      tag_193\n        /* \"#utility.yul\":9096:9104   */\n      dup7\n        /* \"#utility.yul\":9085:9094   */\n      dup4\n        /* \"#utility.yul\":9066:9105   */\n      tag_81\n      jump\t// in\n    tag_193:\n        /* \"#utility.yul\":9054:9105   */\n      swap6\n      pop\n        /* \"#utility.yul\":9138:9142   */\n      dup1\n        /* \"#utility.yul\":9134:9143   */\n      not\n        /* \"#utility.yul\":9127:9132   */\n      dup5\n        /* \"#utility.yul\":9123:9144   */\n      and\n        /* \"#utility.yul\":9114:9144   */\n      swap4\n      pop\n        /* \"#utility.yul\":9187:9191   */\n      dup1\n        /* \"#utility.yul\":9177:9185   */\n      dup7\n        /* \"#utility.yul\":9173:9192   */\n      and\n        /* \"#utility.yul\":9166:9171   */\n      dup5\n        /* \"#utility.yul\":9163:9193   */\n      or\n        /* \"#utility.yul\":9153:9193   */\n      swap3\n      pop\n        /* \"#utility.yul\":8882:9199   */\n      pop\n      pop\n        /* \"#utility.yul\":8806:9199   */\n      swap4\n      swap3\n      pop\n      pop\n      pop\n      jump\t// out\n        /* \"#utility.yul\":9205:9265   */\n    tag_83:\n        /* \"#utility.yul\":9233:9236   */\n      0x00\n        /* \"#utility.yul\":9254:9259   */\n      dup2\n        /* \"#utility.yul\":9247:9259   */\n      swap1\n      pop\n        /* \"#utility.yul\":9205:9265   */\n      swap2\n      swap1\n      pop\n      jump\t// out\n        /* \"#utility.yul\":9271:9413   */\n    tag_84:\n        /* \"#utility.yul\":9321:9330   */\n      0x00\n        /* \"#utility.yul\":9354:9407   */\n      tag_196\n        /* \"#utility.yul\":9372:9406   */\n      tag_197\n        /* \"#utility.yul\":9381:9405   */\n      tag_198\n        /* \"#utility.yul\":9399:9404   */\n      dup5\n        /* \"#utility.yul\":9381:9405   */\n      tag_51\n      jump\t// in\n    tag_198:\n        /* \"#utility.yul\":9372:9406   */\n      tag_83\n      jump\t// in\n    tag_197:\n        /* \"#utility.yul\":9354:9407   */\n      tag_51\n      jump\t// in\n    tag_196:\n        /* \"#utility.yul\":9341:9407   */\n      swap1\n      pop\n        /* \"#utility.yul\":9271:9413   */\n      swap2\n      swap1\n      pop\n      jump\t// out\n        /* \"#utility.yul\":9419:9494   */\n    tag_85:\n        /* \"#utility.yul\":9462:9465   */\n      0x00\n        /* \"#utility.yul\":9483:9488   */\n      dup2\n        /* \"#utility.yul\":9476:9488   */\n      swap1\n      pop\n        /* \"#utility.yul\":9419:9494   */\n      swap2\n      swap1\n      pop\n      jump\t// out\n        /* \"#utility.yul\":9500:9769   */\n    tag_86:\n        /* \"#utility.yul\":9610:9649   */\n      tag_201\n        /* \"#utility.yul\":9641:9648   */\n      dup4\n        /* \"#utility.yul\":9610:9649   */\n      tag_84\n      jump\t// in\n    tag_201:\n        /* \"#utility.yul\":9671:9762   */\n      tag_202\n        /* \"#utility.yul\":9720:9761   */\n      tag_203\n        /* \"#utility.yul\":9744:9760   */\n      dup3\n        /* \"#utility.yul\":9720:9761   */\n      tag_85\n      jump\t// in\n    tag_203:\n        /* \"#utility.yul\":9712:9718   */\n      dup5\n        /* \"#utility.yul\":9705:9709   */\n      dup5\n        /* \"#utility.yul\":9699:9710   */\n      sload\n        /* \"#utility.yul\":9671:9762   */\n      tag_82\n      jump\t// in\n    tag_202:\n        /* \"#utility.yul\":9665:9669   */\n      dup3\n        /* \"#utility.yul\":9658:9763   */\n      sstore\n        /* \"#utility.yul\":9576:9769   */\n      pop\n        /* \"#utility.yul\":9500:9769   */\n      pop\n      pop\n      pop\n      jump\t// out\n        /* \"#utility.yul\":9775:9848   */\n    tag_87:\n        /* \"#utility.yul\":9820:9823   */\n      0x00\n        /* \"#utility.yul\":9841:9842   */\n      0x00\n        /* \"#utility.yul\":9834:9842   */\n      swap1\n      pop\n        /* \"#utility.yul\":9775:9848   */\n      swap1\n      jump\t// out\n        /* \"#utility.yul\":9854:10043   */\n    tag_88:\n        /* \"#utility.yul\":9931:9963   */\n      tag_206\n      tag_87\n      jump\t// in\n    tag_206:\n        /* \"#utility.yul\":9972:10037   */\n      tag_207\n        /* \"#utility.yul\":10030:10036   */\n      dup2\n        /* \"#utility.yul\":10022:10028   */\n      dup5\n        /* \"#utility.yul\":10016:10020   */\n      dup5\n        /* \"#utility.yul\":9972:10037   */\n      tag_86\n      jump\t// in\n    tag_207:\n        /* \"#utility.yul\":9907:10043   */\n      pop\n        /* \"#utility.yul\":9854:10043   */\n      pop\n      pop\n      jump\t// out\n        /* \"#utility.yul\":10049:10263   */\n    tag_89:\n        /* \"#utility.yul\":10134:10135   */\n      0x00\n        /* \"#utility.yul\":10119:10257   */\n    tag_209:\n        /* \"#utility.yul\":10144:10153   */\n      dup3\n        /* \"#utility.yul\":10141:10142   */\n      dup2\n        /* \"#utility.yul\":10138:10154   */\n      lt\n        /* \"#utility.yul\":10119:10257   */\n      iszero\n      tag_211\n      jumpi\n        /* \"#utility.yul\":10196:10247   */\n      tag_212\n        /* \"#utility.yul\":10245:10246   */\n      0x00\n        /* \"#utility.yul\":10241:10242   */\n      dup3\n        /* \"#utility.yul\":10230:10239   */\n      dup5\n        /* \"#utility.yul\":10226:10243   */\n      add\n        /* \"#utility.yul\":10196:10247   */\n      tag_88\n      jump\t// in\n    tag_212:\n        /* \"#utility.yul\":10169:10170   */\n      0x01\n        /* \"#utility.yul\":10166:10167   */\n      dup2\n        /* \"#utility.yul\":10162:10171   */\n      add\n        /* \"#utility.yul\":10157:10171   */\n      swap1\n      pop\n        /* \"#utility.yul\":10119:10257   */\n      jump(tag_209)\n    tag_211:\n        /* \"#utility.yul\":10123:10137   */\n      pop\n        /* \"#utility.yul\":10049:10263   */\n      pop\n      pop\n      jump\t// out\n        /* \"#utility.yul\":10269:11015   */\n    tag_90:\n        /* \"#utility.yul\":10370:10372   */\n      0x1f\n        /* \"#utility.yul\":10365:10368   */\n      dup3\n        /* \"#utility.yul\":10362:10373   */\n      gt\n        /* \"#utility.yul\":10359:11008   */\n      iszero\n      tag_214\n      jumpi\n        /* \"#utility.yul\":10399:10409   */\n      dup3\n        /* \"#utility.yul\":10394:10397   */\n      dup3\n        /* \"#utility.yul\":10391:10410   */\n      gt\n        /* \"#utility.yul\":10388:10998   */\n      iszero\n      tag_215\n      jumpi\n        /* \"#utility.yul\":10445:10483   */\n      tag_216\n        /* \"#utility.yul\":10477:10482   */\n      dup2\n        /* \"#utility.yul\":10445:10483   */\n      tag_79\n      jump\t// in\n    tag_216:\n        /* \"#utility.yul\":10520:10542   */\n      tag_217\n        /* \"#utility.yul\":10538:10541   */\n      dup4\n        /* \"#utility.yul\":10520:10542   */\n      tag_80\n      jump\t// in\n    tag_217:\n        /* \"#utility.yul\":10579:10608   */\n      tag_218\n        /* \"#utility.yul\":10597:10607   */\n      dup6\n        /* \"#utility.yul\":10579:10608   */\n      tag_80\n      jump\t// in\n    tag_218:\n        /* \"#utility.yul\":10769:10771   */\n      0x20\n        /* \"#utility.yul\":10757:10767   */\n      dup7\n        /* \"#utility.yul\":10754:10772   */\n      lt\n        /* \"#utility.yul\":10751:10830   */\n      iszero\n      tag_219\n      jumpi\n        /* \"#utility.yul\":10811:10812   */\n      0x00\n        /* \"#utility.yul\":10795:10812   */\n      swap1\n      pop\n        /* \"#utility.yul\":10751:10830   */\n    tag_219:\n        /* \"#utility.yul\":10880:10892   */\n      dup1\n        /* \"#utility.yul\":10870:10878   */\n      dup4\n        /* \"#utility.yul\":10866:10893   */\n      add\n        /* \"#utility.yul\":10910:10984   */\n      tag_220\n        /* \"#utility.yul\":10970:10982   */\n      dup3\n        /* \"#utility.yul\":10956:10968   */\n      dup5\n        /* \"#utility.yul\":10952:10983   */\n      sub\n        /* \"#utility.yul\":10939:10950   */\n      dup3\n        /* \"#utility.yul\":10910:10984   */\n      tag_89\n      jump\t// in\n    tag_220:\n        /* \"#utility.yul\":10411:10998   */\n      pop\n      pop\n      pop\n      pop\n        /* \"#utility.yul\":10388:10998   */\n    tag_215:\n        /* \"#utility.yul\":10359:11008   */\n    tag_214:\n        /* \"#utility.yul\":10269:11015   */\n      pop\n      pop\n      pop\n      jump\t// out\n        /* \"#utility.yul\":11021:11138   */\n    tag_91:\n        /* \"#utility.yul\":11075:11083   */\n      0x00\n        /* \"#utility.yul\":11125:11130   */\n      dup3\n        /* \"#utility.yul\":11119:11123   */\n      dup3\n        /* \"#utility.yul\":11115:11131   */\n      shr\n        /* \"#utility.yul\":11094:11131   */\n      swap1\n      pop\n        /* \"#utility.yul\":11021:11138   */\n      swap3\n      swap2\n      pop\n      pop\n      jump\t// out\n        /* \"#utility.yul\":11144:11313   */\n    tag_92:\n        /* \"#utility.yul\":11188:11194   */\n      0x00\n        /* \"#utility.yul\":11221:11272   */\n      tag_223\n        /* \"#utility.yul\":11269:11270   */\n      0x00\n        /* \"#utility.yul\":11265:11271   */\n      not\n        /* \"#utility.yul\":11257:11262   */\n      dup5\n        /* \"#utility.yul\":11254:11255   */\n      0x08\n        /* \"#utility.yul\":11250:11263   */\n      mul\n        /* \"#utility.yul\":11221:11272   */\n      tag_91\n      jump\t// in\n    tag_223:\n        /* \"#utility.yul\":11217:11273   */\n      not\n        /* \"#utility.yul\":11302:11306   */\n      dup1\n        /* \"#utility.yul\":11296:11300   */\n      dup4\n        /* \"#utility.yul\":11292:11307   */\n      and\n        /* \"#utility.yul\":11282:11307   */\n      swap2\n      pop\n        /* \"#utility.yul\":11195:11313   */\n      pop\n        /* \"#utility.yul\":11144:11313   */\n      swap3\n      swap2\n      pop\n      pop\n      jump\t// out\n        /* \"#utility.yul\":11318:11613   */\n    tag_93:\n        /* \"#utility.yul\":11394:11398   */\n      0x00\n        /* \"#utility.yul\":11540:11569   */\n      tag_225\n        /* \"#utility.yul\":11565:11568   */\n      dup4\n        /* \"#utility.yul\":11559:11563   */\n      dup4\n        /* \"#utility.yul\":11540:11569   */\n      tag_92\n      jump\t// in\n    tag_225:\n        /* \"#utility.yul\":11532:11569   */\n      swap2\n      pop\n        /* \"#utility.yul\":11602:11605   */\n      dup3\n        /* \"#utility.yul\":11599:11600   */\n      0x02\n        /* \"#utility.yul\":11595:11606   */\n      mul\n        /* \"#utility.yul\":11589:11593   */\n      dup3\n        /* \"#utility.yul\":11586:11607   */\n      or\n        /* \"#utility.yul\":11578:11607   */\n      swap1\n      pop\n        /* \"#utility.yul\":11318:11613   */\n      swap3\n      swap2\n      pop\n      pop\n      jump\t// out\n        /* \"#utility.yul\":11618:13013   */\n    tag_47:\n        /* \"#utility.yul\":11735:11772   */\n      tag_227\n        /* \"#utility.yul\":11768:11771   */\n      dup3\n        /* \"#utility.yul\":11735:11772   */\n      tag_60\n      jump\t// in\n    tag_227:\n        /* \"#utility.yul\":11837:11855   */\n      0xffffffffffffffff\n        /* \"#utility.yul\":11829:11835   */\n      dup2\n        /* \"#utility.yul\":11826:11856   */\n      gt\n        /* \"#utility.yul\":11823:11879   */\n      iszero\n      tag_228\n      jumpi\n        /* \"#utility.yul\":11859:11877   */\n      tag_229\n      tag_68\n      jump\t// in\n    tag_229:\n        /* \"#utility.yul\":11823:11879   */\n    tag_228:\n        /* \"#utility.yul\":11903:11941   */\n      tag_230\n        /* \"#utility.yul\":11935:11939   */\n      dup3\n        /* \"#utility.yul\":11929:11940   */\n      sload\n        /* \"#utility.yul\":11903:11941   */\n      tag_39\n      jump\t// in\n    tag_230:\n        /* \"#utility.yul\":11988:12055   */\n      tag_231\n        /* \"#utility.yul\":12048:12054   */\n      dup3\n        /* \"#utility.yul\":12040:12046   */\n      dup3\n        /* \"#utility.yul\":12034:12038   */\n      dup6\n        /* \"#utility.yul\":11988:12055   */\n      tag_90\n      jump\t// in\n    tag_231:\n        /* \"#utility.yul\":12082:12083   */\n      0x00\n        /* \"#utility.yul\":12106:12110   */\n      0x20\n        /* \"#utility.yul\":12093:12110   */\n      swap1\n      pop\n        /* \"#utility.yul\":12138:12140   */\n      0x1f\n        /* \"#utility.yul\":12130:12136   */\n      dup4\n        /* \"#utility.yul\":12127:12141   */\n      gt\n        /* \"#utility.yul\":12155:12156   */\n      0x01\n        /* \"#utility.yul\":12150:12768   */\n      dup2\n      eq\n      tag_233\n      jumpi\n        /* \"#utility.yul\":12812:12813   */\n      0x00\n        /* \"#utility.yul\":12829:12835   */\n      dup5\n        /* \"#utility.yul\":12826:12903   */\n      iszero\n      tag_234\n      jumpi\n        /* \"#utility.yul\":12878:12887   */\n      dup3\n        /* \"#utility.yul\":12873:12876   */\n      dup8\n        /* \"#utility.yul\":12869:12888   */\n      add\n        /* \"#utility.yul\":12863:12889   */\n      mload\n        /* \"#utility.yul\":12854:12889   */\n      swap1\n      pop\n        /* \"#utility.yul\":12826:12903   */\n    tag_234:\n        /* \"#utility.yul\":12929:12996   */\n      tag_235\n        /* \"#utility.yul\":12989:12995   */\n      dup6\n        /* \"#utility.yul\":12982:12987   */\n      dup3\n        /* \"#utility.yul\":12929:12996   */\n      tag_93\n      jump\t// in\n    tag_235:\n        /* \"#utility.yul\":12923:12927   */\n      dup7\n        /* \"#utility.yul\":12916:12997   */\n      sstore\n        /* \"#utility.yul\":12785:13007   */\n      pop\n        /* \"#utility.yul\":12120:13007   */\n      jump(tag_232)\n        /* \"#utility.yul\":12150:12768   */\n    tag_233:\n        /* \"#utility.yul\":12202:12206   */\n      0x1f\n        /* \"#utility.yul\":12198:12207   */\n      not\n        /* \"#utility.yul\":12190:12196   */\n      dup5\n        /* \"#utility.yul\":12186:12208   */\n      and\n        /* \"#utility.yul\":12236:12273   */\n      tag_236\n        /* \"#utility.yul\":12268:12272   */\n      dup7\n        /* \"#utility.yul\":12236:12273   */\n      tag_79\n      jump\t// in\n    tag_236:\n        /* \"#utility.yul\":12295:12296   */\n      0x00\n        /* \"#utility.yul\":12309:12517   */\n    tag_237:\n        /* \"#utility.yul\":12323:12330   */\n      dup3\n        /* \"#utility.yul\":12320:12321   */\n      dup2\n        /* \"#utility.yul\":12317:12331   */\n      lt\n        /* \"#utility.yul\":12309:12517   */\n      iszero\n      tag_239\n      jumpi\n        /* \"#utility.yul\":12402:12411   */\n      dup5\n        /* \"#utility.yul\":12397:12400   */\n      dup10\n        /* \"#utility.yul\":12393:12412   */\n      add\n        /* \"#utility.yul\":12387:12413   */\n      mload\n        /* \"#utility.yul\":12379:12385   */\n      dup3\n        /* \"#utility.yul\":12372:12414   */\n      sstore\n        /* \"#utility.yul\":12453:12454   */\n      0x01\n        /* \"#utility.yul\":12445:12451   */\n      dup3\n        /* \"#utility.yul\":12441:12455   */\n      add\n        /* \"#utility.yul\":12431:12455   */\n      swap2\n      pop\n        /* \"#utility.yul\":12500:12502   */\n      0x20\n        /* \"#utility.yul\":12489:12498   */\n      dup6\n        /* \"#utility.yul\":12485:12503   */\n      add\n        /* \"#utility.yul\":12472:12503   */\n      swap5\n      pop\n        /* \"#utility.yul\":12346:12350   */\n      0x20\n        /* \"#utility.yul\":12343:12344   */\n      dup2\n        /* \"#utility.yul\":12339:12351   */\n      add\n        /* \"#utility.yul\":12334:12351   */\n      swap1\n      pop\n        /* \"#utility.yul\":12309:12517   */\n      jump(tag_237)\n    tag_239:\n        /* \"#utility.yul\":12545:12551   */\n      dup7\n        /* \"#utility.yul\":12536:12543   */\n      dup4\n        /* \"#utility.yul\":12533:12552   */\n      lt\n        /* \"#utility.yul\":12530:12709   */\n      iszero\n      tag_240\n      jumpi\n        /* \"#utility.yul\":12603:12612   */\n      dup5\n        /* \"#utility.yul\":12598:12601   */\n      dup10\n        /* \"#utility.yul\":12594:12613   */\n      add\n        /* \"#utility.yul\":12588:12614   */\n      mload\n        /* \"#utility.yul\":12646:12694   */\n      tag_241\n        /* \"#utility.yul\":12688:12692   */\n      0x1f\n        /* \"#utility.yul\":12680:12686   */\n      dup10\n        /* \"#utility.yul\":12676:12693   */\n      and\n        /* \"#utility.yul\":12665:12674   */\n      dup3\n        /* \"#utility.yul\":12646:12694   */\n      tag_92\n      jump\t// in\n    tag_241:\n        /* \"#utility.yul\":12638:12644   */\n      dup4\n        /* \"#utility.yul\":12631:12695   */\n      sstore\n        /* \"#utility.yul\":12553:12709   */\n      pop\n        /* \"#utility.yul\":12530:12709   */\n    tag_240:\n        /* \"#utility.yul\":12755:12756   */\n      0x01\n        /* \"#utility.yul\":12751:12752   */\n      0x02\n        /* \"#utility.yul\":12743:12749   */\n      dup9\n        /* \"#utility.yul\":12739:12753   */\n      mul\n        /* \"#utility.yul\":12735:12757   */\n      add\n        /* \"#utility.yul\":12729:12733   */\n      dup9\n        /* \"#utility.yul\":12722:12758   */\n      sstore\n        /* \"#utility.yul\":12157:12768   */\n      pop\n      pop\n      pop\n        /* \"#utility.yul\":12120:13007   */\n    tag_232:\n      pop\n        /* \"#utility.yul\":11710:13013   */\n      pop\n      pop\n      pop\n        /* \"#utility.yul\":11618:13013   */\n      pop\n      pop\n      jump\t// out\n\n    auxdata: 0xa2646970667358221220127690a951cdaa6d5922669eb84f9f138bf5f0e189d142a50387d60bc583086164736f6c63430008210033\n}\n",
				"bytecode": {
					"linkReferences": {},
					"object": "6080604052348015600e575f5ffd5b50610a808061001c5f395ff3fe608060405234801561000f575f5ffd5b506004361061004a575f3560e01c80630121b93f1461004e57806309eef43e1461006a5780633477ee2e1461009a578063462e91ec146100cb575b5f5ffd5b61006860048036038101906100639190610375565b6100e7565b005b610084600480360381019061007f91906103fa565b610200565b604051610091919061043f565b60405180910390f35b6100b460048036038101906100af9190610375565b61021c565b6040516100c29291906104d7565b60405180910390f35b6100e560048036038101906100e09190610631565b6102d1565b005b5f5f3373ffffffffffffffffffffffffffffffffffffffff1673ffffffffffffffffffffffffffffffffffffffff1681526020019081526020015f205f9054906101000a900460ff1615610170576040517f08c379a0000000000000000000000000000000000000000000000000000000008152600401610167906106c2565b60405180910390fd5b6001808281548110610185576101846106e0565b5b905f5260205f2090600202016001015f8282546101a2919061073a565b9250508190555060015f5f3373ffffffffffffffffffffffffffffffffffffffff1673ffffffffffffffffffffffffffffffffffffffff1681526020019081526020015f205f6101000a81548160ff02191690831515021790555050565b5f602052805f5260405f205f915054906101000a900460ff1681565b6001818154811061022b575f80fd5b905f5260205f2090600202015f91509050805f01805461024a9061079a565b80601f01602080910402602001604051908101604052809291908181526020018280546102769061079a565b80156102c15780601f10610298576101008083540402835291602001916102c1565b820191905f5260205f20905b8154815290600101906020018083116102a457829003601f168201915b5050505050908060010154905082565b600160405180604001604052808381526020015f815250908060018154018082558091505060019003905f5260205f2090600202015f909190919091505f820151815f019081610321919061097b565b5060208201518160010155505050565b5f604051905090565b5f5ffd5b5f5ffd5b5f819050919050565b61035481610342565b811461035e575f5ffd5b50565b5f8135905061036f8161034b565b92915050565b5f6020828403121561038a5761038961033a565b5b5f61039784828501610361565b91505092915050565b5f73ffffffffffffffffffffffffffffffffffffffff82169050919050565b5f6103c9826103a0565b9050919050565b6103d9816103bf565b81146103e3575f5ffd5b50565b5f813590506103f4816103d0565b92915050565b5f6020828403121561040f5761040e61033a565b5b5f61041c848285016103e6565b91505092915050565b5f8115159050919050565b61043981610425565b82525050565b5f6020820190506104525f830184610430565b92915050565b5f81519050919050565b5f82825260208201905092915050565b8281835e5f83830152505050565b5f601f19601f8301169050919050565b5f61049a82610458565b6104a48185610462565b93506104b4818560208601610472565b6104bd81610480565b840191505092915050565b6104d181610342565b82525050565b5f6040820190508181035f8301526104ef8185610490565b90506104fe60208301846104c8565b9392505050565b5f5ffd5b5f5ffd5b7f4e487b71000000000000000000000000000000000000000000000000000000005f52604160045260245ffd5b61054382610480565b810181811067ffffffffffffffff821117156105625761056161050d565b5b80604052505050565b5f610574610331565b9050610580828261053a565b919050565b5f67ffffffffffffffff82111561059f5761059e61050d565b5b6105a882610480565b9050602081019050919050565b828183375f83830152505050565b5f6105d56105d084610585565b61056b565b9050828152602081018484840111156105f1576105f0610509565b5b6105fc8482856105b5565b509392505050565b5f82601f83011261061857610617610505565b5b81356106288482602086016105c3565b91505092915050565b5f602082840312156106465761064561033a565b5b5f82013567ffffffffffffffff8111156106635761066261033e565b5b61066f84828501610604565b91505092915050565b7f596f75206861766520616c726561647920766f746564000000000000000000005f82015250565b5f6106ac601683610462565b91506106b782610678565b602082019050919050565b5f6020820190508181035f8301526106d9816106a0565b9050919050565b7f4e487b71000000000000000000000000000000000000000000000000000000005f52603260045260245ffd5b7f4e487b71000000000000000000000000000000000000000000000000000000005f52601160045260245ffd5b5f61074482610342565b915061074f83610342565b92508282019050808211156107675761076661070d565b5b92915050565b7f4e487b71000000000000000000000000000000000000000000000000000000005f52602260045260245ffd5b5f60028204905060018216806107b157607f821691505b6020821081036107c4576107c361076d565b5b50919050565b5f819050815f5260205f209050919050565b5f6020601f8301049050919050565b5f82821b905092915050565b5f600883026108267fffffffffffffffffffffffffffffffffffffffffffffffffffffffffffffffff826107eb565b61083086836107eb565b95508019841693508086168417925050509392505050565b5f819050919050565b5f61086b61086661086184610342565b610848565b610342565b9050919050565b5f819050919050565b61088483610851565b61089861089082610872565b8484546107f7565b825550505050565b5f5f905090565b6108af6108a0565b6108ba81848461087b565b505050565b5f5b828110156108e0576108d55f8284016108a7565b6001810190506108c1565b505050565b601f8211156109335782821115610932576108ff816107ca565b610908836107dc565b610911856107dc565b602086101561091e575f90505b80830161092d828403826108bf565b505050505b5b505050565b5f82821c905092915050565b5f6109535f1984600802610938565b1980831691505092915050565b5f61096b8383610944565b9150826002028217905092915050565b61098482610458565b67ffffffffffffffff81111561099d5761099c61050d565b5b6109a7825461079a565b6109b28282856108e5565b5f60209050601f8311600181146109e3575f84156109d1578287015190505b6109db8582610960565b865550610a42565b601f1984166109f1866107ca565b5f5b82811015610a18578489015182556001820191506020850194506020810190506109f3565b86831015610a355784890151610a31601f891682610944565b8355505b6001600288020188555050505b50505050505056fea2646970667358221220127690a951cdaa6d5922669eb84f9f138bf5f0e189d142a50387d60bc583086164736f6c63430008210033",
					"opcodes": "PUSH1 0x80 PUSH1 0x40 MSTORE CALLVALUE DUP1 ISZERO PUSH1 0xE JUMPI PUSH0 PUSH0 REVERT JUMPDEST POP PUSH2 0xA80 DUP1 PUSH2 0x1C PUSH0 CODECOPY PUSH0 RETURN INVALID PUSH1 0x80 PUSH1 0x40 MSTORE CALLVALUE DUP1 ISZERO PUSH2 0xF JUMPI PUSH0 PUSH0 REVERT JUMPDEST POP PUSH1 0x4 CALLDATASIZE LT PUSH2 0x4A JUMPI PUSH0 CALLDATALOAD PUSH1 0xE0 SHR DUP1 PUSH4 0x121B93F EQ PUSH2 0x4E JUMPI DUP1 PUSH4 0x9EEF43E EQ PUSH2 0x6A JUMPI DUP1 PUSH4 0x3477EE2E EQ PUSH2 0x9A JUMPI DUP1 PUSH4 0x462E91EC EQ PUSH2 0xCB JUMPI JUMPDEST PUSH0 PUSH0 REVERT JUMPDEST PUSH2 0x68 PUSH1 0x4 DUP1 CALLDATASIZE SUB DUP2 ADD SWAP1 PUSH2 0x63 SWAP2 SWAP1 PUSH2 0x375 JUMP JUMPDEST PUSH2 0xE7 JUMP JUMPDEST STOP JUMPDEST PUSH2 0x84 PUSH1 0x4 DUP1 CALLDATASIZE SUB DUP2 ADD SWAP1 PUSH2 0x7F SWAP2 SWAP1 PUSH2 0x3FA JUMP JUMPDEST PUSH2 0x200 JUMP JUMPDEST PUSH1 0x40 MLOAD PUSH2 0x91 SWAP2 SWAP1 PUSH2 0x43F JUMP JUMPDEST PUSH1 0x40 MLOAD DUP1 SWAP2 SUB SWAP1 RETURN JUMPDEST PUSH2 0xB4 PUSH1 0x4 DUP1 CALLDATASIZE SUB DUP2 ADD SWAP1 PUSH2 0xAF SWAP2 SWAP1 PUSH2 0x375 JUMP JUMPDEST PUSH2 0x21C JUMP JUMPDEST PUSH1 0x40 MLOAD PUSH2 0xC2 SWAP3 SWAP2 SWAP1 PUSH2 0x4D7 JUMP JUMPDEST PUSH1 0x40 MLOAD DUP1 SWAP2 SUB SWAP1 RETURN JUMPDEST PUSH2 0xE5 PUSH1 0x4 DUP1 CALLDATASIZE SUB DUP2 ADD SWAP1 PUSH2 0xE0 SWAP2 SWAP1 PUSH2 0x631 JUMP JUMPDEST PUSH2 0x2D1 JUMP JUMPDEST STOP JUMPDEST PUSH0 PUSH0 CALLER PUSH20 0xFFFFFFFFFFFFFFFFFFFFFFFFFFFFFFFFFFFFFFFF AND PUSH20 0xFFFFFFFFFFFFFFFFFFFFFFFFFFFFFFFFFFFFFFFF AND DUP2 MSTORE PUSH1 0x20 ADD SWAP1 DUP2 MSTORE PUSH1 0x20 ADD PUSH0 KECCAK256 PUSH0 SWAP1 SLOAD SWAP1 PUSH2 0x100 EXP SWAP1 DIV PUSH1 0xFF AND ISZERO PUSH2 0x170 JUMPI PUSH1 0x40 MLOAD PUSH32 0x8C379A000000000000000000000000000000000000000000000000000000000 DUP2 MSTORE PUSH1 0x4 ADD PUSH2 0x167 SWAP1 PUSH2 0x6C2 JUMP JUMPDEST PUSH1 0x40 MLOAD DUP1 SWAP2 SUB SWAP1 REVERT JUMPDEST PUSH1 0x1 DUP1 DUP3 DUP2 SLOAD DUP2 LT PUSH2 0x185 JUMPI PUSH2 0x184 PUSH2 0x6E0 JUMP JUMPDEST JUMPDEST SWAP1 PUSH0 MSTORE PUSH1 0x20 PUSH0 KECCAK256 SWAP1 PUSH1 0x2 MUL ADD PUSH1 0x1 ADD PUSH0 DUP3 DUP3 SLOAD PUSH2 0x1A2 SWAP2 SWAP1 PUSH2 0x73A JUMP JUMPDEST SWAP3 POP POP DUP2 SWAP1 SSTORE POP PUSH1 0x1 PUSH0 PUSH0 CALLER PUSH20 0xFFFFFFFFFFFFFFFFFFFFFFFFFFFFFFFFFFFFFFFF AND PUSH20 0xFFFFFFFFFFFFFFFFFFFFFFFFFFFFFFFFFFFFFFFF AND DUP2 MSTORE PUSH1 0x20 ADD SWAP1 DUP2 MSTORE PUSH1 0x20 ADD PUSH0 KECCAK256 PUSH0 PUSH2 0x100 EXP DUP2 SLOAD DUP2 PUSH1 0xFF MUL NOT AND SWAP1 DUP4 ISZERO ISZERO MUL OR SWAP1 SSTORE POP POP JUMP JUMPDEST PUSH0 PUSH1 0x20 MSTORE DUP1 PUSH0 MSTORE PUSH1 0x40 PUSH0 KECCAK256 PUSH0 SWAP2 POP SLOAD SWAP1 PUSH2 0x100 EXP SWAP1 DIV PUSH1 0xFF AND DUP2 JUMP JUMPDEST PUSH1 0x1 DUP2 DUP2 SLOAD DUP2 LT PUSH2 0x22B JUMPI PUSH0 DUP1 REVERT JUMPDEST SWAP1 PUSH0 MSTORE PUSH1 0x20 PUSH0 KECCAK256 SWAP1 PUSH1 0x2 MUL ADD PUSH0 SWAP2 POP SWAP1 POP DUP1 PUSH0 ADD DUP1 SLOAD PUSH2 0x24A SWAP1 PUSH2 0x79A JUMP JUMPDEST DUP1 PUSH1 0x1F ADD PUSH1 0x20 DUP1 SWAP2 DIV MUL PUSH1 0x20 ADD PUSH1 0x40 MLOAD SWAP1 DUP2 ADD PUSH1 0x40 MSTORE DUP1 SWAP3 SWAP2 SWAP1 DUP2 DUP2 MSTORE PUSH1 0x20 ADD DUP3 DUP1 SLOAD PUSH2 0x276 SWAP1 PUSH2 0x79A JUMP JUMPDEST DUP1 ISZERO PUSH2 0x2C1 JUMPI DUP1 PUSH1 0x1F LT PUSH2 0x298 JUMPI PUSH2 0x100 DUP1 DUP4 SLOAD DIV MUL DUP4 MSTORE SWAP2 PUSH1 0x20 ADD SWAP2 PUSH2 0x2C1 JUMP JUMPDEST DUP3 ADD SWAP2 SWAP1 PUSH0 MSTORE PUSH1 0x20 PUSH0 KECCAK256 SWAP1 JUMPDEST DUP2 SLOAD DUP2 MSTORE SWAP1 PUSH1 0x1 ADD SWAP1 PUSH1 0x20 ADD DUP1 DUP4 GT PUSH2 0x2A4 JUMPI DUP3 SWAP1 SUB PUSH1 0x1F AND DUP3 ADD SWAP2 JUMPDEST POP POP POP POP POP SWAP1 DUP1 PUSH1 0x1 ADD SLOAD SWAP1 POP DUP3 JUMP JUMPDEST PUSH1 0x1 PUSH1 0x40 MLOAD DUP1 PUSH1 0x40 ADD PUSH1 0x40 MSTORE DUP1 DUP4 DUP2 MSTORE PUSH1 0x20 ADD PUSH0 DUP2 MSTORE POP SWAP1 DUP1 PUSH1 0x1 DUP2 SLOAD ADD DUP1 DUP3 SSTORE DUP1 SWAP2 POP POP PUSH1 0x1 SWAP1 SUB SWAP1 PUSH0 MSTORE PUSH1 0x20 PUSH0 KECCAK256 SWAP1 PUSH1 0x2 MUL ADD PUSH0 SWAP1 SWAP2 SWAP1 SWAP2 SWAP1 SWAP2 POP PUSH0 DUP3 ADD MLOAD DUP2 PUSH0 ADD SWAP1 DUP2 PUSH2 0x321 SWAP2 SWAP1 PUSH2 0x97B JUMP JUMPDEST POP PUSH1 0x20 DUP3 ADD MLOAD DUP2 PUSH1 0x1 ADD SSTORE POP POP POP JUMP JUMPDEST PUSH0 PUSH1 0x40 MLOAD SWAP1 POP SWAP1 JUMP JUMPDEST PUSH0 PUSH0 REVERT JUMPDEST PUSH0 PUSH0 REVERT JUMPDEST PUSH0 DUP2 SWAP1 POP SWAP2 SWAP1 POP JUMP JUMPDEST PUSH2 0x354 DUP2 PUSH2 0x342 JUMP JUMPDEST DUP2 EQ PUSH2 0x35E JUMPI PUSH0 PUSH0 REVERT JUMPDEST POP JUMP JUMPDEST PUSH0 DUP2 CALLDATALOAD SWAP1 POP PUSH2 0x36F DUP2 PUSH2 0x34B JUMP JUMPDEST SWAP3 SWAP2 POP POP JUMP JUMPDEST PUSH0 PUSH1 0x20 DUP3 DUP5 SUB SLT ISZERO PUSH2 0x38A JUMPI PUSH2 0x389 PUSH2 0x33A JUMP JUMPDEST JUMPDEST PUSH0 PUSH2 0x397 DUP5 DUP3 DUP6 ADD PUSH2 0x361 JUMP JUMPDEST SWAP2 POP POP SWAP3 SWAP2 POP POP JUMP JUMPDEST PUSH0 PUSH20 0xFFFFFFFFFFFFFFFFFFFFFFFFFFFFFFFFFFFFFFFF DUP3 AND SWAP1 POP SWAP2 SWAP1 POP JUMP JUMPDEST PUSH0 PUSH2 0x3C9 DUP3 PUSH2 0x3A0 JUMP JUMPDEST SWAP1 POP SWAP2 SWAP1 POP JUMP JUMPDEST PUSH2 0x3D9 DUP2 PUSH2 0x3BF JUMP JUMPDEST DUP2 EQ PUSH2 0x3E3 JUMPI PUSH0 PUSH0 REVERT JUMPDEST POP JUMP JUMPDEST PUSH0 DUP2 CALLDATALOAD SWAP1 POP PUSH2 0x3F4 DUP2 PUSH2 0x3D0 JUMP JUMPDEST SWAP3 SWAP2 POP POP JUMP JUMPDEST PUSH0 PUSH1 0x20 DUP3 DUP5 SUB SLT ISZERO PUSH2 0x40F JUMPI PUSH2 0x40E PUSH2 0x33A JUMP JUMPDEST JUMPDEST PUSH0 PUSH2 0x41C DUP5 DUP3 DUP6 ADD PUSH2 0x3E6 JUMP JUMPDEST SWAP2 POP POP SWAP3 SWAP2 POP POP JUMP JUMPDEST PUSH0 DUP2 ISZERO ISZERO SWAP1 POP SWAP2 SWAP1 POP JUMP JUMPDEST PUSH2 0x439 DUP2 PUSH2 0x425 JUMP JUMPDEST DUP3 MSTORE POP POP JUMP JUMPDEST PUSH0 PUSH1 0x20 DUP3 ADD SWAP1 POP PUSH2 0x452 PUSH0 DUP4 ADD DUP5 PUSH2 0x430 JUMP JUMPDEST SWAP3 SWAP2 POP POP JUMP JUMPDEST PUSH0 DUP2 MLOAD SWAP1 POP SWAP2 SWAP1 POP JUMP JUMPDEST PUSH0 DUP3 DUP3 MSTORE PUSH1 0x20 DUP3 ADD SWAP1 POP SWAP3 SWAP2 POP POP JUMP JUMPDEST DUP3 DUP2 DUP4 MCOPY PUSH0 DUP4 DUP4 ADD MSTORE POP POP POP JUMP JUMPDEST PUSH0 PUSH1 0x1F NOT PUSH1 0x1F DUP4 ADD AND SWAP1 POP SWAP2 SWAP1 POP JUMP JUMPDEST PUSH0 PUSH2 0x49A DUP3 PUSH2 0x458 JUMP JUMPDEST PUSH2 0x4A4 DUP2 DUP6 PUSH2 0x462 JUMP JUMPDEST SWAP4 POP PUSH2 0x4B4 DUP2 DUP6 PUSH1 0x20 DUP7 ADD PUSH2 0x472 JUMP JUMPDEST PUSH2 0x4BD DUP2 PUSH2 0x480 JUMP JUMPDEST DUP5 ADD SWAP2 POP POP SWAP3 SWAP2 POP POP JUMP JUMPDEST PUSH2 0x4D1 DUP2 PUSH2 0x342 JUMP JUMPDEST DUP3 MSTORE POP POP JUMP JUMPDEST PUSH0 PUSH1 0x40 DUP3 ADD SWAP1 POP DUP2 DUP2 SUB PUSH0 DUP4 ADD MSTORE PUSH2 0x4EF DUP2 DUP6 PUSH2 0x490 JUMP JUMPDEST SWAP1 POP PUSH2 0x4FE PUSH1 0x20 DUP4 ADD DUP5 PUSH2 0x4C8 JUMP JUMPDEST SWAP4 SWAP3 POP POP POP JUMP JUMPDEST PUSH0 PUSH0 REVERT JUMPDEST PUSH0 PUSH0 REVERT JUMPDEST PUSH32 0x4E487B7100000000000000000000000000000000000000000000000000000000 PUSH0 MSTORE PUSH1 0x41 PUSH1 0x4 MSTORE PUSH1 0x24 PUSH0 REVERT JUMPDEST PUSH2 0x543 DUP3 PUSH2 0x480 JUMP JUMPDEST DUP2 ADD DUP2 DUP2 LT PUSH8 0xFFFFFFFFFFFFFFFF DUP3 GT OR ISZERO PUSH2 0x562 JUMPI PUSH2 0x561 PUSH2 0x50D JUMP JUMPDEST JUMPDEST DUP1 PUSH1 0x40 MSTORE POP POP POP JUMP JUMPDEST PUSH0 PUSH2 0x574 PUSH2 0x331 JUMP JUMPDEST SWAP1 POP PUSH2 0x580 DUP3 DUP3 PUSH2 0x53A JUMP JUMPDEST SWAP2 SWAP1 POP JUMP JUMPDEST PUSH0 PUSH8 0xFFFFFFFFFFFFFFFF DUP3 GT ISZERO PUSH2 0x59F JUMPI PUSH2 0x59E PUSH2 0x50D JUMP JUMPDEST JUMPDEST PUSH2 0x5A8 DUP3 PUSH2 0x480 JUMP JUMPDEST SWAP1 POP PUSH1 0x20 DUP2 ADD SWAP1 POP SWAP2 SWAP1 POP JUMP JUMPDEST DUP3 DUP2 DUP4 CALLDATACOPY PUSH0 DUP4 DUP4 ADD MSTORE POP POP POP JUMP JUMPDEST PUSH0 PUSH2 0x5D5 PUSH2 0x5D0 DUP5 PUSH2 0x585 JUMP JUMPDEST PUSH2 0x56B JUMP JUMPDEST SWAP1 POP DUP3 DUP2 MSTORE PUSH1 0x20 DUP2 ADD DUP5 DUP5 DUP5 ADD GT ISZERO PUSH2 0x5F1 JUMPI PUSH2 0x5F0 PUSH2 0x509 JUMP JUMPDEST JUMPDEST PUSH2 0x5FC DUP5 DUP3 DUP6 PUSH2 0x5B5 JUMP JUMPDEST POP SWAP4 SWAP3 POP POP POP JUMP JUMPDEST PUSH0 DUP3 PUSH1 0x1F DUP4 ADD SLT PUSH2 0x618 JUMPI PUSH2 0x617 PUSH2 0x505 JUMP JUMPDEST JUMPDEST DUP2 CALLDATALOAD PUSH2 0x628 DUP5 DUP3 PUSH1 0x20 DUP7 ADD PUSH2 0x5C3 JUMP JUMPDEST SWAP2 POP POP SWAP3 SWAP2 POP POP JUMP JUMPDEST PUSH0 PUSH1 0x20 DUP3 DUP5 SUB SLT ISZERO PUSH2 0x646 JUMPI PUSH2 0x645 PUSH2 0x33A JUMP JUMPDEST JUMPDEST PUSH0 DUP3 ADD CALLDATALOAD PUSH8 0xFFFFFFFFFFFFFFFF DUP2 GT ISZERO PUSH2 0x663 JUMPI PUSH2 0x662 PUSH2 0x33E JUMP JUMPDEST JUMPDEST PUSH2 0x66F DUP5 DUP3 DUP6 ADD PUSH2 0x604 JUMP JUMPDEST SWAP2 POP POP SWAP3 SWAP2 POP POP JUMP JUMPDEST PUSH32 0x596F75206861766520616C726561647920766F74656400000000000000000000 PUSH0 DUP3 ADD MSTORE POP JUMP JUMPDEST PUSH0 PUSH2 0x6AC PUSH1 0x16 DUP4 PUSH2 0x462 JUMP JUMPDEST SWAP2 POP PUSH2 0x6B7 DUP3 PUSH2 0x678 JUMP JUMPDEST PUSH1 0x20 DUP3 ADD SWAP1 POP SWAP2 SWAP1 POP JUMP JUMPDEST PUSH0 PUSH1 0x20 DUP3 ADD SWAP1 POP DUP2 DUP2 SUB PUSH0 DUP4 ADD MSTORE PUSH2 0x6D9 DUP2 PUSH2 0x6A0 JUMP JUMPDEST SWAP1 POP SWAP2 SWAP1 POP JUMP JUMPDEST PUSH32 0x4E487B7100000000000000000000000000000000000000000000000000000000 PUSH0 MSTORE PUSH1 0x32 PUSH1 0x4 MSTORE PUSH1 0x24 PUSH0 REVERT JUMPDEST PUSH32 0x4E487B7100000000000000000000000000000000000000000000000000000000 PUSH0 MSTORE PUSH1 0x11 PUSH1 0x4 MSTORE PUSH1 0x24 PUSH0 REVERT JUMPDEST PUSH0 PUSH2 0x744 DUP3 PUSH2 0x342 JUMP JUMPDEST SWAP2 POP PUSH2 0x74F DUP4 PUSH2 0x342 JUMP JUMPDEST SWAP3 POP DUP3 DUP3 ADD SWAP1 POP DUP1 DUP3 GT ISZERO PUSH2 0x767 JUMPI PUSH2 0x766 PUSH2 0x70D JUMP JUMPDEST JUMPDEST SWAP3 SWAP2 POP POP JUMP JUMPDEST PUSH32 0x4E487B7100000000000000000000000000000000000000000000000000000000 PUSH0 MSTORE PUSH1 0x22 PUSH1 0x4 MSTORE PUSH1 0x24 PUSH0 REVERT JUMPDEST PUSH0 PUSH1 0x2 DUP3 DIV SWAP1 POP PUSH1 0x1 DUP3 AND DUP1 PUSH2 0x7B1 JUMPI PUSH1 0x7F DUP3 AND SWAP2 POP JUMPDEST PUSH1 0x20 DUP3 LT DUP2 SUB PUSH2 0x7C4 JUMPI PUSH2 0x7C3 PUSH2 0x76D JUMP JUMPDEST JUMPDEST POP SWAP2 SWAP1 POP JUMP JUMPDEST PUSH0 DUP2 SWAP1 POP DUP2 PUSH0 MSTORE PUSH1 0x20 PUSH0 KECCAK256 SWAP1 POP SWAP2 SWAP1 POP JUMP JUMPDEST PUSH0 PUSH1 0x20 PUSH1 0x1F DUP4 ADD DIV SWAP1 POP SWAP2 SWAP1 POP JUMP JUMPDEST PUSH0 DUP3 DUP3 SHL SWAP1 POP SWAP3 SWAP2 POP POP JUMP JUMPDEST PUSH0 PUSH1 0x8 DUP4 MUL PUSH2 0x826 PUSH32 0xFFFFFFFFFFFFFFFFFFFFFFFFFFFFFFFFFFFFFFFFFFFFFFFFFFFFFFFFFFFFFFFF DUP3 PUSH2 0x7EB JUMP JUMPDEST PUSH2 0x830 DUP7 DUP4 PUSH2 0x7EB JUMP JUMPDEST SWAP6 POP DUP1 NOT DUP5 AND SWAP4 POP DUP1 DUP7 AND DUP5 OR SWAP3 POP POP POP SWAP4 SWAP3 POP POP POP JUMP JUMPDEST PUSH0 DUP2 SWAP1 POP SWAP2 SWAP1 POP JUMP JUMPDEST PUSH0 PUSH2 0x86B PUSH2 0x866 PUSH2 0x861 DUP5 PUSH2 0x342 JUMP JUMPDEST PUSH2 0x848 JUMP JUMPDEST PUSH2 0x342 JUMP JUMPDEST SWAP1 POP SWAP2 SWAP1 POP JUMP JUMPDEST PUSH0 DUP2 SWAP1 POP SWAP2 SWAP1 POP JUMP JUMPDEST PUSH2 0x884 DUP4 PUSH2 0x851 JUMP JUMPDEST PUSH2 0x898 PUSH2 0x890 DUP3 PUSH2 0x872 JUMP JUMPDEST DUP5 DUP5 SLOAD PUSH2 0x7F7 JUMP JUMPDEST DUP3 SSTORE POP POP POP POP JUMP JUMPDEST PUSH0 PUSH0 SWAP1 POP SWAP1 JUMP JUMPDEST PUSH2 0x8AF PUSH2 0x8A0 JUMP JUMPDEST PUSH2 0x8BA DUP2 DUP5 DUP5 PUSH2 0x87B JUMP JUMPDEST POP POP POP JUMP JUMPDEST PUSH0 JUMPDEST DUP3 DUP2 LT ISZERO PUSH2 0x8E0 JUMPI PUSH2 0x8D5 PUSH0 DUP3 DUP5 ADD PUSH2 0x8A7 JUMP JUMPDEST PUSH1 0x1 DUP2 ADD SWAP1 POP PUSH2 0x8C1 JUMP JUMPDEST POP POP POP JUMP JUMPDEST PUSH1 0x1F DUP3 GT ISZERO PUSH2 0x933 JUMPI DUP3 DUP3 GT ISZERO PUSH2 0x932 JUMPI PUSH2 0x8FF DUP2 PUSH2 0x7CA JUMP JUMPDEST PUSH2 0x908 DUP4 PUSH2 0x7DC JUMP JUMPDEST PUSH2 0x911 DUP6 PUSH2 0x7DC JUMP JUMPDEST PUSH1 0x20 DUP7 LT ISZERO PUSH2 0x91E JUMPI PUSH0 SWAP1 POP JUMPDEST DUP1 DUP4 ADD PUSH2 0x92D DUP3 DUP5 SUB DUP3 PUSH2 0x8BF JUMP JUMPDEST POP POP POP POP JUMPDEST JUMPDEST POP POP POP JUMP JUMPDEST PUSH0 DUP3 DUP3 SHR SWAP1 POP SWAP3 SWAP2 POP POP JUMP JUMPDEST PUSH0 PUSH2 0x953 PUSH0 NOT DUP5 PUSH1 0x8 MUL PUSH2 0x938 JUMP JUMPDEST NOT DUP1 DUP4 AND SWAP2 POP POP SWAP3 SWAP2 POP POP JUMP JUMPDEST PUSH0 PUSH2 0x96B DUP4 DUP4 PUSH2 0x944 JUMP JUMPDEST SWAP2 POP DUP3 PUSH1 0x2 MUL DUP3 OR SWAP1 POP SWAP3 SWAP2 POP POP JUMP JUMPDEST PUSH2 0x984 DUP3 PUSH2 0x458 JUMP JUMPDEST PUSH8 0xFFFFFFFFFFFFFFFF DUP2 GT ISZERO PUSH2 0x99D JUMPI PUSH2 0x99C PUSH2 0x50D JUMP JUMPDEST JUMPDEST PUSH2 0x9A7 DUP3 SLOAD PUSH2 0x79A JUMP JUMPDEST PUSH2 0x9B2 DUP3 DUP3 DUP6 PUSH2 0x8E5 JUMP JUMPDEST PUSH0 PUSH1 0x20 SWAP1 POP PUSH1 0x1F DUP4 GT PUSH1 0x1 DUP2 EQ PUSH2 0x9E3 JUMPI PUSH0 DUP5 ISZERO PUSH2 0x9D1 JUMPI DUP3 DUP8 ADD MLOAD SWAP1 POP JUMPDEST PUSH2 0x9DB DUP6 DUP3 PUSH2 0x960 JUMP JUMPDEST DUP7 SSTORE POP PUSH2 0xA42 JUMP JUMPDEST PUSH1 0x1F NOT DUP5 AND PUSH2 0x9F1 DUP7 PUSH2 0x7CA JUMP JUMPDEST PUSH0 JUMPDEST DUP3 DUP2 LT ISZERO PUSH2 0xA18 JUMPI DUP5 DUP10 ADD MLOAD DUP3 SSTORE PUSH1 0x1 DUP3 ADD SWAP2 POP PUSH1 0x20 DUP6 ADD SWAP5 POP PUSH1 0x20 DUP2 ADD SWAP1 POP PUSH2 0x9F3 JUMP JUMPDEST DUP7 DUP4 LT ISZERO PUSH2 0xA35 JUMPI DUP5 DUP10 ADD MLOAD PUSH2 0xA31 PUSH1 0x1F DUP10 AND DUP3 PUSH2 0x944 JUMP JUMPDEST DUP4 SSTORE POP JUMPDEST PUSH1 0x1 PUSH1 0x2 DUP9 MUL ADD DUP9 SSTORE POP POP POP JUMPDEST POP POP POP POP POP POP JUMP INVALID LOG2 PUSH5 0x6970667358 0x22 SLT KECCAK256 SLT PUSH23 0x90A951CDAA6D5922669EB84F9F138BF5F0E189D142A503 DUP8 0xD6 SIGNEXTEND 0xC5 DUP4 ADDMOD PUSH2 0x6473 PUSH16 0x6C634300082100330000000000000000 "
				},
				"gasEstimates": {
					"creation": {
						"codeDepositCost": "537600",
						"executionCost": "566",
						"totalCost": "538166"
					},
					"external": {
						"addCandidate(string)": "infinite",
						"candidates(uint256)": "infinite",
						"hasVoted(address)": "2832",
						"vote(uint256)": "infinite"
					}
				},
				"methodIdentifiers": {
					"addCandidate(string)": "462e91ec",
					"candidates(uint256)": "3477ee2e",
					"hasVoted(address)": "09eef43e",
					"vote(uint256)": "0121b93f"
				}
			},
			"storageLayout": {
				"storage": [
					{
						"astId": 10,
						"contract": "votingSystem.sol:votingSystem",
						"label": "hasVoted",
						"offset": 0,
						"slot": "0",
						"type": "t_mapping(t_address,t_bool)"
					},
					{
						"astId": 14,
						"contract": "votingSystem.sol:votingSystem",
						"label": "candidates",
						"offset": 0,
						"slot": "1",
						"type": "t_array(t_struct(Candidate)6_storage)dyn_storage"
					}
				],
				"types": {
					"t_address": {
						"encoding": "inplace",
						"label": "address",
						"numberOfBytes": "20"
					},
					"t_array(t_struct(Candidate)6_storage)dyn_storage": {
						"base": "t_struct(Candidate)6_storage",
						"encoding": "dynamic_array",
						"label": "struct votingSystem.Candidate[]",
						"numberOfBytes": "32"
					},
					"t_bool": {
						"encoding": "inplace",
						"label": "bool",
						"numberOfBytes": "1"
					},
					"t_mapping(t_address,t_bool)": {
						"encoding": "mapping",
						"key": "t_address",
						"label": "mapping(address => bool)",
						"numberOfBytes": "32",
						"value": "t_bool"
					},
					"t_string_storage": {
						"encoding": "bytes",
						"label": "string",
						"numberOfBytes": "32"
					},
					"t_struct(Candidate)6_storage": {
						"encoding": "inplace",
						"label": "struct votingSystem.Candidate",
						"members": [
							{
								"astId": 3,
								"contract": "votingSystem.sol:votingSystem",
								"label": "name",
								"offset": 0,
								"slot": "0",
								"type": "t_string_storage"
							},
							{
								"astId": 5,
								"contract": "votingSystem.sol:votingSystem",
								"label": "voteCount",
								"offset": 0,
								"slot": "1",
								"type": "t_uint256"
							}
						],
						"numberOfBytes": "64"
					},
					"t_uint256": {
						"encoding": "inplace",
						"label": "uint256",
						"numberOfBytes": "32"
					}
				}
			},
			"userdoc": {
				"kind": "user",
				"methods": {},
				"version": 1
			}
		}
	}
}